:020000042000DA
:10C0000020485FF44041016030EE10F704D440EC6A
:10C01000800740EC810740BF1B481C49086006C8E8
:10C0200081F3088810474FF05040006810B14FF07E
:10C030000000F2E71649174A002000E001C19142D2
:10C04000FCD1002080F30A881349884713498847A8
:10C050001349884700BEFDE7A8020120A80201207D
:10C06000040301200000042000000420000004203C
:10C070000010042000100420001004200000000024
:10C080007047000088ED00E000C1002008ED00E0EE
:10C090000803012014050120D1F8002069C3002005
:10C0A000C9F8002006005250ABB36053E0010120F4
:10C0B00006005250861C0302F00101200600525077
:10C0C0005422A29DFC010120F2EB88719402012010
:10C0D000A802012058C0002090A31AE70000000029
:10C0E0000000000000000000000000000000000050
:10C0F0000000000000000000000000000000000040
:10C100000020042027C0002013C2002015C20020F8
:10C1100011C2002011C2002011C2002011C2002053
:10C1200011C2002011C2002011C2002017C200203D
:10C1300011C2002011C2002019C200201BC2002021
:10C140001DC200201DC200201DC200201DC20020F3
:10C150001DC200201DC200201DC200201DC20020E3
:10C160001DC200201DC200201DC200201DC20020D3
:10C170001DC200201DC200201DC200201DC20020C3
:10C180001DC200201DC200201DC200201DC20020B3
:10C190001DC200201DC200201DC200201DC20020A3
:10C1A0001DC200201DC200201DC200201DC2002093
:10C1B0001DC200201DC200201DC200201DC2002083
:10C1C0001DC200201DC200201DC200201DC2002073
:10C1D0001DC200201DC200201DC200201DC2002063
:10C1E0001DC200201DC200201DC200201DC2002053
:10C1F0001DC200201DC200201DC200201DC2002043
:10C200001DC200201DC200201DC200201DC2002032
:10C2100000BE00BE00BE00BE00BE00BEEFF3058043
:10C22000103800BE00B503460268EFF3108C72B6FA
:10C23000D2E8CFEF0120BEF1000FF9D1C2E84E0FD6
:10C24000BEF1000FF4D1BFF35F8F93F90420002AF1
:10C250000ADB79B10A6000201A680023C2E88F3F28
:10C260008CF310885DF804FB4FF0504212681A718D
:10C270000120F1E70020EFE72DE9F04104461646E2
:10C280001D464FF05043D3F8008000272168EFF39C
:10C29000108C72B6D1E8CF2F0123002AFAD1C1E861
:10C2A000423F002AF6D1BFF35F8F94F904E0BEF15C
:10C2B000000F0CDB2368C3E88F7F8CF310883046B7
:10C2C000294601F029FE0028E0D0002008E084F88B
:10C2D000048022680023C2E88F3F8CF3108801207D
:10C2E000BDE8F08170B582B0064615461C4601A92E
:10C2F000FFF798FF38B99DF904204FF0504393F9A8
:10C3000000309A4201D102B070BD2A462346304621
:10C31000FFF7B2FFF7E70368EFF3108272B6D3E8D6
:10C32000CFCF0121BCF1000FF9D1C3E84C1FBCF104
:10C33000000FF4D1BFF35F8FFF2303710168002367
:10C34000C1E88F3F82F3108840BF704730B585B099
:10C35000012403944FF0FF350295282501950094A0
:10C3600001F0DAF805B030BD2DE9F043ADF5F55D2B
:10C3700081B003F0B7FB01F051F90527234E4FF4CC
:10C380007A753946304603F0EBFB284601F0AFFDE5
:10C39000013FF6D100230DF5756269461C48FFF791
:10C3A000D5FF28B900200DF5F55D01B0BDE8F0839B
:10C3B0000DF5756000F0CCFF061E21DD3D464FF007
:10C3C000200919E0484603F08FFB631C9E420CD005
:10C3D0001C462A4621460DF5756000F0BBFF00287B
:10C3E000F0D0404603F080FBEFE70A2003F07CFB2F
:10C3F0006B1CA54204D01D463C464FF02308E8E7DD
:10C400004FF47A74204601F072FDFBE7C8FF00206C
:10C41000CCFF002010B5B1F1010E17D41968CC1073
:10C4200020FA0EFC0CF0010CC94301F007010CFAD4
:10C4300001FC115D4CEA010C02F804C00EF1FF3E54
:10C44000196801311960BEF1FF3FE7D110BD00004E
:10C45000024600F1080300FB03F304331801012A2C
:10C4600013DD0A4981FB02311144D317C3EBA10349
:10C47000991C01EB810303EB83030A3B01FB03F3EC
:10C48000373BC01A062AC8BF243870479324499204
:10C4900038B505460C46FFF7DBFF0028B8BF07306C
:10C4A00004EB840104EBC104054B23445B570549AD
:10C4B0000C44625702FB03F3C3EBE00038BD00BF3E
:10C4C0000C000120B000012000B5864607220020A4
:10C4D000C309C3EBC30C03EB8C0383EA400341FAAB
:10C4E00002F000F0010010FB0EF04340D8B2013A18
:10C4F000B2F1FF3FECD15DF804FB0000012833D01E
:10C5000000B58446194A82FB00321318C217C2EBE9
:10C51000A302901CBCF1200F20D0013200EB4C0E86
:10C520004FEA4E0E0EF1010E53009EFBF3FE4FEA52
:10C530004E0E4FEA8C0C0CF10A0C002A0ADD013277
:10C540000A44134602F801CDACEB0E0C023B5B1A19
:10C55000002BF6DC06230B705DF804FB4FF01A0E7F
:10C560004FF08A0C0522EAE7002070479324499295
:10C570004368002B1BDD82689A4201D0002217E03D
:10C5800003EB4302C168914201D0002210E002692E
:10C590009A4201D000220BE042699A420BD000225D
:10C5A00006E082699A42B4BF0022012208E000221C
:10C5B0000020104470470268B2EB830FF1DA0022CA
:10C5C0008169B1EB830FF3DB01689942F0DB012055
:10C5D000EFE790F800C002FB0C1202F00701D21046
:10C5E00001322BB101238B40815C19438154704788
:10C5F000012303FA01F1835C23EA010383547047AA
:10C600002DE9F84F0A9E002B1ADD834692460D460F
:10C6100003EB010902EB000801270BE03B462A4629
:10C6200021463046FFF7D5FF01344445F6D10135A8
:10C630004D4505D0BAF1000FC8BF5C46EEDCF6E709
:10C64000BDE8F88F90F800C0614501D2624500D383
:10C65000704708B5FFF7BDFF08BD037802FB031262
:10C6600000EBE200407802F00702104100F0010008
:10C6700070470000B1F5004F2ED201280DD00228DE
:10C680001AD0042821D0082821D0072827D1002932
:10C6900014BF4FF0FF301820704701EB81014800B4
:10C6A0000230104981FB0031A1EBE070B0F5004F82
:10C6B000A8BF4FF0FF30704701EB810001EB400154
:10C6C000013101EBD1714810F0E7C800EEE701EB52
:10C6D000410001EB8000E9E74FF0FF3070474FF079
:10C6E000FF307047565555550731124B83FB0123D8
:10C6F000C917C1EBE3010138072805D8DFE800F0CE
:10C70000070B040F040417134FF0FF3070470A4B58
:10C7100053F821007047094B53F821007047084B2C
:10C7200053F821007047074B53F821007047002051
:10C73000704700BF79787878880101207C0101205A
:10C7400070010120640101202DE9F04F87B00290B3
:10C7500089468300039303F1110404FB04F30733B8
:10C7600048BF0733DB105A1C0021484600F082FF07
:10C7700089F80040CDF800902346012200210620D0
:10C78000FFF73EFFCDF8009001232246062100204E
:10C79000FFF736FFCDF8009009231A46002108461E
:10C7A000FFF72EFF039B03F10904CDF80090092346
:10C7B000082200212046FFF723FFCDF80090082330
:10C7C000092221460020FFF71BFF04A90298FFF76A
:10C7D00095FE061E3FDD0DF110080025C3461FE043
:10C7E000B4B3A7420BD014F80B1098F80000CDF8A2
:10C7F00000905346524602390238FFF701FF631C8E
:10C800009E4207D01C46002DEAD0AF42EBD1002C4F
:10C81000E9D1F4E76B1C08F10108A5421BD01D46C5
:10C8200000244FF0050A771EEDE7039C0634CDF88F
:10C8300000900623032200212046FFF7E1FECDF8F9
:10C8400000900323062221460020FFF7D9FE05E0D1
:10C85000631C9E42D6D1029B062BE6DC07B0BDE8E6
:10C86000F08F38B505460C460B6803B915441822FD
:10C870002146201D00F0DEFE256038BD2DE9F8437D
:10C8800016463A4B53F8205041EAC5010D460A229C
:10C8900040F237506B1200FB03F383EA4505013A7F
:10C8A000F8D145EA812585F4A84585F012050024D4
:10C8B000082745FA04F303F00103224639463046BF
:10C8C000FFF787FE0134062CF3D1C5F3801307224E
:10C8D00008213046FFF77DFEC5F3C013082211463C
:10C8E0003046FFF776FEC5F30023082207213046C5
:10C8F000FFF76FFE0924082745FA04F303F001034C
:10C900003A46C4F10E013046FFF763FE01340F2CA6
:10C91000F2D196F80090002409F1FF38082745FA73
:10C9200004F303F001033A46A8EB04013046FFF795
:10C9300050FE0134082CF2D1A9F10F08082745FA5E
:10C9400004F303F0010308EB040239463046FFF715
:10C9500040FE01340F2CF2D10123A9F10802082175
:10C960003046FFF736FEBDE8F88300BF54010120D2
:10C970002DE9F04F87B00190009102920B7805935A
:10C98000002B00F0B7809B464FF0000A574607EB9C
:10C99000D7735B100393B9463C464FF0000887F00D
:10C9A000010303F00103049315E084F0010505F091
:10C9B00001053A4631460098FFF74FFE2B1A18BF83
:10C9C00001233A4631460098FFF703FE0134C8447C
:10C9D0005C4500F0868004EB0A063A463146019831
:10C9E000FFF73BFE0028F1D1029B072B00F282806B
:10C9F00001A252F823F000BFABC9002019CA0020E1
:10CA00001FCA002037CA00204FCA002067CA002072
:10CA100091CA0020BBCA00209DF81050C9E7374BCF
:10CA200083FB0635A5EBE67505EB4505AE4214BF65
:10CA300000250125BDE7314B83FB0435A5EBE475EB
:10CA400005EB4505AC4214BF00250125B1E72B4B92
:10CA500083FB0635A5EBE675039B1D4485F00105B8
:10CA600005F00105A5E7B8F1000F08F00103B8BF14
:10CA70005B421A46214B83FB0813A3EBE87303EBDD
:10CA80004303A8EB0303DA420CBF0125002590E71E
:10CA9000B8F1000F08F00105B8BF6D42174B83FBDA
:10CAA0000823A3EBE87303EB4303A8EB03031D4444
:10CAB00085F0010505F001057BE7002C04F0010578
:10CAC000B8BF6D420D4B83FB0823A3EBE87303EB68
:10CAD0004303A8EB03031D4485F0010505F00105A0
:10CAE00067E701370BF1010B0AF1FF3A059B9F4203
:10CAF0007FF44DAF07B0BDE8F08F00BF56555555D8
:10CB00002DE9F04F9DB0019088460592DDF898A080
:10CB10009DF99C2010929DF8A02002924FF00109EF
:10CB20009B460DE0B5F1FF3F06D005995846FFF74B
:10CB3000AFFCB5EBC00F28DDD3451EDA0BF1010BBE
:10CB4000B8F1000F17D0019C00252E46E768594622
:10CB50002078FFF7C9FD09FA00F362689A42EBDA20
:10CB6000043007443D44B5F5004FE5DA0136103492
:10CB7000B045EBD1D6E70025D7E7DDF8A8B0002017
:10CB80008BF800001DB0BDE8F08FCDF834B0DDF8B3
:10CB9000A8B00124DDF81490029F02E00134042CB7
:10CBA0000BD0002FFAD0E6B231460D98FFF770FC9B
:10CBB000B5EBC00FD8BFB146F0E7CDF814900D9B90
:10CBC0009B00113303FB03F3073348BF0733DB102C
:10CBD0005A1C0021584600F04DFD00231B93B8F16C
:10CBE000000F32D0019E99464FF0040A012704E05D
:10CBF00009F101091036C84527D035461BAB5A4606
:10CC000051463078FFF706FC0D993078FFF76CFD40
:10CC100001461BAB5A467068FFF7FCFBF368002B1C
:10CC2000E6DD0024E310AA68D05CE34303F00703C9
:10CC300018411BAB5A46394600F00100FFF7EAFBEA
:10CC40000134EB68A342EDDCD2E705990D98FFF7BC
:10CC50001FFC0F90C5001B9BC3EBC0011BAB5A46CA
:10CC60000429A8BF04210020FFF7D4FB1B9B5A42D4
:10CC700003F0070302F0070258BF5342C3F1080351
:10CC8000584203F0070100F007001BAB5A4658BF9B
:10CC900041420020FFF7BEFB1B9B9D420CDDEC24B4
:10CCA00008261BAB5A4631462046FFF7B3FB84F0FB
:10CCB000FD041B9BAB42F4DB059A02EB820302EB03
:10CCC000C303B64A1A440D99084652560692B44A0E
:10CCD00013445B560193FFF7BBFB031EB8BF07333A
:10CCE000DA101192069992FBF1F301FB13228A1AD2
:10CCF0000892019C22461B1B0993002113A800F0F7
:10CD0000B9FC631E02931CAAD318012203F8242C39
:10CD1000002C06DD002701254FF00208DDF8049005
:10CD200005E3069B002B40F38480CDF81CB0002364
:10CD300004930F9B0BEB030A0AF101030393CDF855
:10CD4000A8B0DDF804B054E0314615F8010BFFF748
:10CD5000BBFB2378584004F8010BA742F4D1C84527
:10CD600016D019F8016F9AF800305E40019A0399C5
:10CD7000504600F05FFC029B4FF000020AF80320CF
:10CD8000BBF1000FEBDD13AD54460AEB0B07DBE7FD
:10CD9000DDF83880049B0C9AC2F101010B98069CC7
:10CDA000089F099D299E01EB0802954208BFDB1BE5
:10CDB00018F8012FF25423444045F4D1049B0F9AF4
:10CDC0001344BBF1000F0ADD52460AEB0B00069C30
:10CDD000299D12F8011BE95423448242F9D1079B93
:10CDE0000A9A13440793049B01330493069A9A42C8
:10CDF0001DD0099B089A04998A42D8BF01331C466A
:10CE00000A935A460021504600F034FC002CD5DD30
:10CE1000079A02F1FF380C9208EB04030B93C1460A
:10CE20000BF1FF320192CDF83880984699E7DDF892
:10CE3000A8B059460D98FFF787FC9BF80030049383
:10CE40005A1E0692002A47DD1199C90003910292E9
:10CE50004FF00008174630E04FEAE803299AD35C08
:10CE60006FEA080202F00702134103F001032A46A9
:10CE700021465846FFF7ADFB08F10108013CA245E9
:10CE80000BD001942A4621465846FFF7E6FB0028BE
:10CE9000F4D1039B4345F1DDDEE7013EB6F1FF3FF0
:10CEA00006D0BD1BB9F1000F08BF3546029CE8E76C
:10CEB000029B023B0293002B0EDD029B062B00F02F
:10CEC0002582049B002BF3D0069E029A531C03F08C
:10CED0000209A2F1020AE4E79BF800300393DF1F86
:10CEE000072F11DD07240026062533462246294652
:10CEF0005846FFF76EFB33462A4621465846FFF751
:10CF000068FB0234BC42F0DB039AA2F108030493ED
:10CF100099464FF0FF380027A2F1040A29E0E61CE9
:10CF20003B46424631465846FFF78CFB3B4642465D
:10CF30000AEB04015846FFF785FB3B464A4631465B
:10CF40005846FFF77FFB0134052C0BD084EAE473CD
:10CF5000A3EBE473AB42B8BF2B46022BDFD0042B0C
:10CF6000F1D1DCE708F1010809F10109B8F1080F76
:10CF700007D0A8F103056FF00304002DB8BF6D4280
:10CF8000E4E713A90D98FFF7B9FA031E019334DD06
:10CF900013AF4FF0000AD04629E000BFB0000120D7
:10CFA0000C000120B9F1000F08D0029B4B4505D0C1
:10CFB0004FF0FF35A8E14FF0FF35A5E109F101037E
:10CFC0000136019A9A420CD09946BAF1000FE9D085
:10CFD000029B5345EFD1B9F1000FEFD04FF0FF3571
:10CFE00092E10AF101030137CA4506D09A4613AE11
:10CFF000C146019B013B0293E7E70D9B062B2BDD0E
:10D000001D460C2241F62571EB1201FB03F383EA66
:10D010004505013AF8D10D9B45EA03350026DDF8B8
:10D020001080DDF80C9002E00136062E14D0A9F134
:10D030000B0405F001073B46324621465846FFF7F0
:10D04000C8FA3B46224631465846FFF7C2FA6D10F1
:10D050000134A045EDD1E7E729990D98FFF774FB5E
:10D06000109BB3F1FF3F0CD0109C224659462998E3
:10D07000FFF77EFC5A4621460598FFF7FFFB01208B
:10D0800080E5002301936FF00043039308E10AF168
:10D09000030A14E02A4613A93046FFF7E2FB3FB922
:10D0A000294613A8FFF764FA00EB80000AEBC00AD8
:10D0B000424621465846FFF7D0FA0746012601347A
:10D0C000AC420ED0424621465846FFF7C6FAB84257
:10D0D000E0D10136052EDAD0052EF0DD0AF1010A85
:10D0E000EDE7CFB92A4613A9A819FFF7BAFB2946DD
:10D0F00013A8FFF73DFA00EB80000AEBC00A08F125
:10D100000108A8450FD01C22002113A800F0B2FA94
:10D11000002637463446D5E72A4613A93046FFF79E
:10D12000A0FB0026DEE74FF000083CE00AF1030A0E
:10D1300014E02A4613A93046FFF793FB3FB929466E
:10D1400013A8FFF715FA00EB80000AEBC00A22468D
:10D1500041465846FFF781FA074601260134AC42A2
:10D160000ED0224641465846FFF777FAB842E0D142
:10D170000136052EDAD0052EF0DD0AF1010AEDE7C1
:10D18000D7B92A4613A9A819FFF76BFB294613A89C
:10D19000FFF7EEF900EB80000AEBC00A08F1010886
:10D1A000A84500F093801C22002113A800F062FA29
:10D1B000002637463446D4E72A4613A93046FFF7FF
:10D1C00050FB0026DDE74C451FD03A462146584625
:10D1D000FFF743FA0546264601343A4621465846AB
:10D1E000FFF73BFA8542EED1424631465846FFF7FB
:10D1F00034FA8542E7D1424621465846FFF72DFAD8
:10D20000854208BF0AF1030ADDE701374F4506DA18
:10D21000B9F1000FF9DD002407F10108D5E7049DFD
:10D220000027B5B100273E460EE00134AC4208DAD3
:10D23000324621465846FFF710FA0028F5D001374C
:10D24000F3E70136AE4204DA0024F1E74FF0000ABA
:10D25000574605FB05F507EB87076FF0090305FB4C
:10D2600003F303EB8703002BB8BF5B422B44013B66
:10D2700093FBF5F3013B03EB83030AEB4303039AB0
:10D28000934202DA0393029B1093029A594629981B
:10D29000FFF76EFB019B01330193082B3FF4E4AED3
:10D2A0009DF904301C4602931A4659462998FFF707
:10D2B0005FFB5A4621460598FFF7E0FA9BF80050BD
:10D2C000002DC3D04FF0000AD0461CE705F1FF390E
:10D2D000B9F1000FA6DD0027049599E70123584610
:10D2E000FFF777F90134631E3978194432782A44FC
:10D2F0002B43F3D043465846FFF76BF9012CF1DD81
:10D300000135022D3FF45AAE0024ECE7049B13B123
:10D3100005230293D8E503230293CEE54146284630
:10D32000FFF7D2F805460137B9453FF4FAAC13AC24
:10D3300004EB090629462078FFF7C6F804F8010B2C
:10D34000B442EBD02378584004F8010CF2E700BF58
:10D350000078704708B50378994204D29A4206D201
:10D36000FFF77BF900E0002000F0010008BD00207D
:10D37000FAE703784BB1303BDBB2092B07D810F842
:10D38000013F002BF7D1012070470120704700209A
:10D3900070470000017861B138B50446074D284652
:10D3A00002F07CFD38B114F8011F0029F7D10120EB
:10D3B00002E001207047002038BD00BFDCFF0020E4
:10D3C00008B5FFF757F9B0F1FF3F1ABF0730C008A3
:10D3D0004FF0FF3008BD2DE9F04184B005460C4602
:10D3E0001646084602F0C0FD074601208DF80000F1
:10D3F0003946FFF73FF90197002809DC0023039322
:10D40000207808B3303801214FF00A0800270DE0DA
:10D410000730C2080021304600F02CF9EEE703ABDC
:10D4200032464146FEF7F6FF3846394614F8013FCA
:10D4300043B100EB8000303B03EB40000131032996
:10D44000F4D1ECE7002909DC029604AB13E90F00E4
:10D4500085E80F00284604B0BDE8F08101EB4101EA
:10D4600003AB32460131FEF7D5FFEDE72DE9F0477A
:10D4700084B080460E469146084602F075FD04468B
:10D4800002208DF800002146FFF7F4F801940028EF
:10D490000DDC00230393317851B31E4C204602F07B
:10D4A000FDFC041B01251B4F4FF00B0A0EE007305B
:10D4B000C2080021484600F0DDF8EAE703AB4A461F
:10D4C00051462046FEF7A6FF0024254616F8011F08
:10D4D00061B1384602F0E2FC04EB4404C4EB0414EE
:10D4E000C01B04440135022DF0D1E7E7002D0ADC12
:10D4F000CDF8089004AB13E90F0088E80F00404610
:10D5000004B0BDE8F08703AB4A4606212046FEF78B
:10D5100081FFEDE7DCFF00202DE9F04F8FB00546DD
:10D520000E46174698469DF968A09DF86CB002F02B
:10D530001BFDC0B18146199B9C00113404FB04F40F
:10D54000073448BF0734E41001342846FFF711FFC1
:10D55000002833D049460120FFF732FFA04213D9FB
:10D56000002038700DE004970396CDF808B0CDF890
:10D5700004A0199B0093189B424600210846FFF720
:10D58000BFFA0FB0BDE8F08F06AC32462946204600
:10D59000FFF721FF94E80F000EAC04E90F00049799
:10D5A0000396CDF808B0CDF804A0199B0093189B02
:10D5B000424601210AA8FFF7A3FAE2E72846FFF74F
:10D5C000E9FE88B149460220FFF7FAFEA042C7D81B
:10D5D00006AC324629462046FFF748FF94E80F0084
:10D5E0000EAC04E90F00DAE7A145B9D8013D731E7E
:10D5F00005EB090115F8012F03F8012F8D42F9D130
:10D6000004208DF828004946FFF734F80D90B0F15A
:10D61000FF3FA5D0CDF82C900C96C0E703B4044989
:10D620000D604E608F605FEA0800C86003BC704701
:10D63000DC04012088420CD2DAB14B1E00F1FF3C21
:10D64000013A0A4413F8011F0CF8011F9342F9D163
:10D650007047012A0DD400B501EB020C0244634669
:10D660001CF801ED02F801ED5B1A022BF7D55DF80D
:10D6700004FB704732B1431E8218013A03F8011FC0
:10D680009342FBD1704700000FB400B583B0049CF7
:10D69000074802F038FA3CB105A90191204602F092
:10D6A000F9F8044802F02FFA012002F00BF900BF4C
:10D6B00094010120A4010120EFF3108072B6064B03
:10D6C000D3E8CF1F01220029FAD1C3E8412F002956
:10D6D000F6D1BFF35F8F7047930401200023034A04
:10D6E000C2E88F3F80F31088704700BF9304012089
:10D6F00070B505460C461646FFF7DEFFE208A95C4A
:10D7000004F0070C012303FA0CF3194204D10B4374
:10D71000AB54FFF7E3FF70BD21463046FFF7B4FF7F
:10D72000064B1878431CDBB2172B02D8034A137040
:10D730007047024B10221A70704700BFA8020120E8
:10D740004FF0E022936843F000539360704700006D
:10D75000044B03F120010022C3E88F2F01338B42D9
:10D76000FAD1704788040120064B9B68103043F8BB
:10D770002010BFF35F8F00230349C1E88F3F82F37E
:10D780001088704700ED00E091040120044B4FF039
:10D79000803004491A46043310608B42FAD1704736
:10D7A00000E400E034E400E042B1800000F16040B9
:10D7B00000F56140C0F88011016070472030024BD5
:10D7C00043F82010704700BF00E100E008B50A46AA
:10D7D00000F01F03012199404009FFF7E5FF08BD54
:10D7E000024B9B68103053F82000704700ED00E0BA
:10D7F00070B505460C46EFF3108672B60D4BD3E8B4
:10D80000CF1F01220029FAD1C3E8412F0029F6D108
:10D81000BFF35F8FFFF7E4FF074B984201D0A042B0
:10D8200005D1324621462846FFF79EFF70BD00F025
:10D83000E5FCF6E7910401201DC20020014B0B44DA
:10D84000036070478804012010B50446FFF768FFA5
:10D8500001462046FFF7F2FFFF232371BFF35F8FDE
:10D8600010BD10B50446FFF75BFF01462046FFF7E9
:10D87000E5FFFF23237100236371BFF35F8F10BDAA
:10D8800038B50B4A0B4B9A4210D214461D4605E0A0
:10D890002046FFF7E6FF0834AC4207D22368002B8E
:10D8A000F6D12046FFF7D0FF0834F5E738BD00BFBA
:10D8B000C4020120CC0201200D4B1A68EFF3108145
:10D8C00072B6D2E8CFCF0120BCF1000FF9D1C2E887
:10D8D0004C0FBCF1000FF4D1BFF35F8F1A68002327
:10D8E000C2E88F3F81F3108840BF002000217047BD
:10D8F00010050120000000002DE9F04F2DED028BF6
:10D9000085B0EFF30583DBB2103B9A08AC49AD4A12
:10D9100014BF8A46924603F0030401940B468A45DD
:10D9200014BF0023012304EB8303A74A52F823B05A
:10D93000504600F05BFB0123A3401A4600930AF512
:10D9400041535A609FED9C8B5CE06A6913690292B7
:10D950001046984778B1029B1A6802925B6803935D
:10D9600072E0504600F042FB029B10EB030C039B5D
:10D9700043EB010673E039F93830ABF80830DBF8D7
:10D980001030EFF3108272B6D3E8CF0F01210028D8
:10D99000FAD1C3E8401F0028F6D1BFF35F8FBBF96F
:10D9A000023029F83830ABF80240DBF810100023C1
:10D9B000C1E88F3F82F31088BBF8043013F4004FA6
:10D9C0007BD09BF80630002B40F0C580504600F01D
:10D9D0000DFBBBF90830002BC0F2E880DBF8142007
:10D9E00003EB430302EBC3039C68DB68019A043238
:10D9F0004AF82240241A63EB0103012C73F100035F
:10DA000080F2D480009BCAF83C30BBF90840002C5F
:10DA1000D2DB04EB4408DBF8149009EBC805AF68CF
:10DA2000EE68C01B61EB06010029C5DB002EA2DBFE
:10DA30002B69664A934288D0688880B2696940EA57
:10DA400004409847029003910299039B1A460A43A7
:10DA500091D0002B85DAB7EB010C66EB0306C5F815
:10DA600008C0EE6039F93830002BA5DBDBF8147004
:10DA700003EB430207EBC2029168D268BCEB0101E1
:10DA800066EB0202002A97DBDE462EF8083F03EB26
:10DA9000430507EBC5008168C268BCEB010166EB7A
:10DAA0000202002A04DB864637F93530002BEEDA15
:10DAB00029F83830AEF800407EE7DBF81030EFF39D
:10DAC000108272B6D3E8CF0F01210028FAD1C3E843
:10DAD000401F0028F6D1BFF35F8FBBF804E00FFAB8
:10DAE0008EFE4FF6FF73ABF80430DBF81010002306
:10DAF000C1E88F3F82F310889E45FFF662AF0BF1BD
:10DB0000080909E0A7F800E035F938E025F83830D1
:10DB1000BEF1000FFFF655AFDBF814500EEB4E08C8
:10DB200005EBC8039E68D3F80CC04F46BBF908301C
:10DB3000002BE7DB03EB430405EBC4008168C268FC
:10DB4000711A6CEB0202002ADCDB074635F934302F
:10DB5000002BEFDAD6E700238BF806300BF108062E
:10DB6000BBF90830B3F1FF3F11D12FE780ED028BF5
:10DB7000BBF90800A84206D03380BBF9080022F8A0
:10DB80003100ABF80850B3F1FF3F3FF41FAF03EB98
:10DB90004301DBF8142002EBC1001D4632F931309D
:10DBA000448814F4004FE1D10646ECE705B0BDEC23
:10DBB000028BBDE8F08F00BFFFFFFFFFFFFFFFFFFD
:10DBC00000800B4000000B40F0040120F9D8002039
:10DBD0002DE9F04104460F4690461E46C160FFF70E
:10DBE0009FFD204B0344236184F80080B3B263811E
:10DBF0004FF05042126862704FF6FF722281A2808D
:10DC0000013B63806EB14FF0000EF44660690CF189
:10DC1000FF3520F80E500CF1010C0EF1180E664580
:10DC2000F4D1114DAF4214BF0023012308EB83034D
:10DC30000E4A42F82340AF420CBF0425002545445C
:10DC4000012606FA08F43C6209492846FFF7D0FD90
:10DC500031462846FFF7BAFD07F501573C60BDE89D
:10DC6000F08100BF8804012000800B40F0040120F7
:10DC7000F9D8002010B50A4B1B6923B10A210948C5
:10DC8000FFF7DCFD10BD084C0321204600F09CF995
:10DC90001023032221460248FFF79AFFEEE700BF58
:10DCA000AC0201201005012000000B40F0B5014638
:10DCB0000069EFF3108472B6D0E8CF6F0125002E13
:10DCC000FAD1C0E8465F002EF6D1BFF35F8FB1F9FD
:10DCD00002E00EEB4E0C4FEACC064D6905EBCC0C86
:10DCE000BEF1000FA4BFA85F488000200F69C7E8FD
:10DCF0008F0F84F31088864538DB0598CCF8100028
:10DD00000698CCF81400CCF80820CCF80C30BCF8FD
:10DD100002000130C0F30E00012838BF0120ACF82A
:10DD2000020040EA0E400B69EFF3108272B6D3E8AE
:10DD3000CFCF0124BCF1000FF9D1C3E84C4FBCF1A7
:10DD4000000FF4D1BFF35F8F8B88AB53A1F804E0D1
:10DD50000C690023C4E88F3F82F310880B780122FE
:10DD60009A40CB6803F501535A60F0BD4FF0FF3085
:10DD7000FBE770B582B0064615461C469DF820307C
:10DD800033B900F04BF9854264EB010100290ADB4D
:10DD9000079B0193069B00932A4623463046FFF7D4
:10DDA00085FF02B070BD0020FBE703464089B0EB61
:10DDB000214F31DD10B50A1402EB4202586900EB25
:10DDC000C2021869EFF3108C72B6D0E8CF4F5FF043
:10DDD000010E002CF9D1C0E844EF002CF5D1BFF3BF
:10DDE0005F8F508880B289B288420FD000201969B5
:10DDF0000022C1E88F2F8CF3108830B119780122EE
:10DE00008A40DB6803F501535A6010BD40F40040BE
:10DE1000508001209871EAE7002070472DE9F04119
:10DE200084B004460F46861F41F1FF35B04271EBC6
:10DE300005033CBF0026354600F0F0F8301A65EBCC
:10DE40000101012871F1000306DA2046394600F08D
:10DE5000EDF804B0BDE8F081002302930193174B65
:10DE6000009332462B461648FFF783FF0028ECDB71
:10DE70001448154A4FF0000C17E01368EFF31081B7
:10DE800072B6D3E8CF8F5FF0010EB8F1000FF8D172
:10DE9000C3E848EFB8F1000FF3D1BFF35F8F136809
:10DEA000C3E88FCF81F3108820BF436A9D42E4D836
:10DEB000816AB142C9D29D42C7D1DEE7B9D80020FC
:10DEC000AC02012000000B401005012038B50446CB
:10DED0000D4600F0A3F8201845EB01010029BCBF56
:10DEE0004FF0FF306FF00041FFF798FF38BD08B5E5
:10DEF000C30E4101091A63F100039B0043EA9173C9
:10DF00008900091843F10003DB00C80043EA51719E
:10DF1000FFF7DCFF08BD0000C0B585B007460E4620
:10DF2000EFF30583DBB27BB1244B586A814206D8FC
:10DF30009A6ABA4206D2081A18BF012000E00020EF
:10DF400005B0C0BD0120FBE70023029301931C4BE9
:10DF5000009302460B461B48FFF70BFF011E1ADD1C
:10DF600040BF20BF154B5B6A9E4205D8134A926A98
:10DF7000BA4202D29E4200D120BF1248FFF715FFDD
:10DF80000E4B586A864215D89B6ABB4214D2301A8F
:10DF900018BF0120D4E7094B586A864206D89B6A0D
:10DFA000BB4205D2301A18BF0120C9E70020C7E7DD
:10DFB0000120C5E70020C3E70120C1E700000B40B6
:10DFC000B9D80020AC02012010B5054A054B064C1B
:10DFD000A04214BF1846581CFFF78AFB10BD00BFB3
:10DFE000A8010120A804012000800B400346416ADB
:10DFF000986A0A46596A8A42FAD17047416A8B4246
:10E0000002D9416A8B42FCD88B4206D1816A914287
:10E0100002D2416A8B42F9D07047704708B5024876
:10E02000FFF7E4FF08BD00BF00000B4008B5024643
:10E030000B460248FFF7E2FF08BD00BF00000B409F
:10E0400070B5049D00EB400C4FEA8C0C0CF1804C39
:10E050000CF5803CDCF80440AC4238BFCCF80450EE
:10E06000A0F1040E5FFA8EFEBEF1010F28D90CF567
:10E0700040544FF400662660234C54F820603EB1B3
:10E080006469B4FBF6F4013404EB4404033CFDD2B0
:10E09000DCF8004084EA421202F0E00264460CF52B
:10E0A00080563260BEF1010F1FD904F500544FF4C1
:10E0B00000622260CCF80450134A42F8203070BD50
:10E0C0000129D4D10CF5405403262660DCF8084021
:10E0D00014F0010FFAD0DCF8004084EA421202F09A
:10E0E000E00264460CF580563260DCF800204A40BD
:10E0F00002F003023260012202FA01F1DCF808208A
:10E100000A42FBD0D1E700BFAC04012010B582B0B9
:10E110004FF480340094FFF793FF02B010BD00006D
:10E12000014B53F820007047AC04012070B41E4C22
:10E13000B4FBF1F4B2FBF4F6039C240344EA034578
:10E140000368002B1FDB194B98420CBF0F230E23D3
:10E1500001229A40164B1A6003F580531A60154C41
:10E16000A36832EA0303FBD10160866000F54053E7
:10E17000043321221A600268002AFCDAC5600822F2
:10E180001A6070BC7047036803F03F038B42DAD11A
:10E190008368C3F30B03B342D5D1C36803F4EE2302
:10E1A000AB42D0D1EDE700BF001BB70000800540B7
:10E1B000002002400000024000EB4000800000F11F
:10E1C000804000F584104160012303607047000027
:10E1D000074B4FF42A621A602F22DA6003F50053CE
:10E1E000044A1A60024A5368002BFCDA704700BFE9
:10E1F0000080044000B0FA007047000008B50148F4
:10E20000FFF742FACC01012038B5064A064B9A4284
:10E2100006D214461D4654F8043B9847AC42FAD344
:10E2200038BD00BFCC02012004030120064B074A81
:10E230001A6003F58053064A1A6006498B6832EA71
:10E240000303FBD1704700BF002002407F3BEFEF8C
:10E25000F6FFF30300000240054BDB6CB3F5004F03
:10E2600000D07047034B4FF48022DA64F9E700BF17
:10E2700000001150002011504FF0E022D2F8881D0C
:10E28000034B0B43C2F8883D10EE3004704700BFCB
:10E2900003033000054B6FF060421A60044A936834
:10E2A000DB4333F06043FAD1704700BF00300240D7
:10E2B0000000024008B545F2532000F07BF8034609
:10E2C0000120984708BD08B5FFF742FA08BD0000D5
:10E2D00030B583B02D4B0022C3F88420FFF778FFC0
:10E2E0002B4B0122DA63294A536C012BFCD1284BBA
:10E2F00003221A63254A936B012BFCD1022400945C
:10E300000523244A01212448FFF710FF0525009525
:10E310002B46224A01212248FFF708FF214B002209
:10E3200021460420FFF7F2FE1F4C23460022012164
:10E330002846FFF7EBFE1D4D2B4600221146082014
:10E34000FFF7E4FE2B46002211460920FFF7DEFE10
:10E350002346002211460620FFF7D8FE234600225E
:10E3600011460720FFF7D2FE0420FFF7D9FE104D1B
:10E37000A5FB0035AD0C00242946E0B2FFF71CFFD9
:10E380000134062CF8D103B030BD00BF00000140BD
:10E3900000300140002F685900000540008C86477E
:10E3A00000800540001BB70080D1F008006CDC0243
:10E3B00083DE1B4308B50023DB7CDBB2022B0CBFE2
:10E3C000162318231B88002242E800F212F4800F63
:10E3D0000CBF10210421984708BD0000034AD2F861
:10E3E0002838002BFBD0BFF35F8F704700000E4032
:10E3F000044B0021044ABFF35F8F43F8041B934290
:10E40000F9D170470C080E402C080E4008B5FFF7F4
:10E41000EFFF08BD86B003B451FC0804CDE902014A
:10E4200051FC0904CDE9040151EC0A04CDE90601CF
:10E4300003BCF047BDE800504EEC00C4BDE80050FE
:10E440004EEC01C4BDE800504EEC02C400BD00001B
:10E4500000B5FFF7DFFF02E010FE30F4F8D441EC26
:10E46000100443EC112400EE010410EE010480EED0
:10E47000200451EC1004704700B5FFF7CBFF02E019
:10E4800010FE30F4F8D441EC100443EC112400EEFB
:10E49000010410EE210480EE200451EC300470479A
:10E4A00000B5FFF7B7FF02E010FE30F4F8D410B566
:10E4B00041EC100443EC112451EC040453EC05240A
:10E4C000A0FB024C5FF0000EE0FB03CEE1FB02CEAE
:10E4D0004CEC20440024E1FB03E444EC30E480EE07
:10E4E000200451EC5004BDE81040704700B5FFF720
:10E4F00091FF02E010FE30F4F8D441EC100443EC3C
:10E50000112451EC2104A0FB01126FEA820252FB9C
:10E51000100052FB12F252FB1000A0EBD07C53EC27
:10E5200004245CFB13F153EC1524A1FB022001FB36
:10E53000030053EC4424A2EB000050FB1CF24FEA12
:10E54000111312EB017043EBE27140EA515020EAE3
:10E55000915020F0070053EC7524A0FB023C53ECD3
:10E56000752400FB03CC01FB02CC53EC0424ACEB80
:10E57000824C40EA5C70A0F1010041EC400480EE66
:10E58000200451EC7004704700B5FFF743FF02E030
:10E5900010FE30F4F8D440EC700400EE010410EEEC
:10E5A000210480EE200451EC3004704700B5FFF7E1
:10E5B00031FF02E010FE30F4F8D440EC600400EECD
:10E5C000010410EE210480EE200451EC3004704769
:10E5D00000B5FFF71FFF02E010FE30F4F8D441EC65
:10E5E000800400EE010410EE010480EE400410EE01
:10E5F0001304704700B5FFF70DFF02E010FE30F482
:10E60000F8D441EC800400EE010410EE010480EE29
:10E61000400410EE3304704700B5FFF7FBFE02E044
:10E6200010FE30F4F8D441EC100443EC112400EE59
:10E63000010410EE3004C0F30070704700B5FFF71E
:10E64000E9FE02E010FE30F4F8D443EC102441EC73
:10E65000110400EE010410EE30F48CBF0120002004
:10E66000704700BF00B5FFF7D5FE02E010FE30F4A2
:10E67000F8D443EC102441EC110400EE010410EE38
:10E6800030F42CBF01200020704700BF00B5FFF719
:10E69000C1FE02E010FE30F4F8D441EC100443EC6B
:10E6A000112400EE010410EE30F42CBF01200020F4
:10E6B000704700BF00B5FFF7ADFE02E010FE30F47A
:10E6C000F8D441EC100443EC112400EE010410EEE8
:10E6D00030F48CBF01200020704700BF704720B18C
:10E6E00008B50A684968904708BD70472DE9F04FA2
:10E6F00083B006460F4601929846DDF83090DDF86B
:10E7000038A00F9B13F0030F14D10D9B534528BF66
:10E71000154610D20D9BAAEB0305019C25444FF032
:10E72000200B22460134434639465846B047AC4296
:10E73000F7D100E0019D0D9B7BB10D9B09EB030B15
:10E740005C46AB44ABEB04024346394614F8010D7A
:10E75000B0474C45F6D10D9B1D440F9B13F0020FA3
:10E760000ED0019BEC1AA2450AD94FF020092A4687
:10E770004346013539464846B04701345445F6D33F
:10E78000284603B0BDE8F08F2DE9F04385B0DDF8F1
:10E7900030E00D9C9DF83880109F119D129E16F060
:10E7A000020F38D17DB116F0010F00F08A80B8F168
:10E7B000000F02D116F00C0F00D0013DBC4215D263
:10E7C0001F2C04D912E0BC420DD21F2C0BD804F12F
:10E7D000FF3CF4444FF0300901340CF8019FA7428C
:10E7E00001D9202CF8D116F0010F14D0A54212D96E
:10E7F0001F2C0BD804F1FF3CF4444FF030090134D6
:10E800000CF8019FAC4205D0202CF8D116F0100F67
:10E8100004D120E02C4616F0100F13D016F4806FB0
:10E8200004D11CB1A74220D0AC421ED00F9F102FA4
:10E8300024D00F9F022F2DD01F2C0CD830270EF87C
:10E84000047001341F2C06D8B8F1000F29D02D27F1
:10E850000EF804700134039602950194CDF800E09F
:10E86000FFF744FF05B0BDE8F083B4F1010C0FD011
:10E870000F9F102F01D06446DBE7023C16F0200FFB
:10E8800024D11F2CD8D878270EF804700134D3E790
:10E890006446CBE71F2CDED862270EF804700134E3
:10E8A000CAE716F0040F04D02B270EF804700134C9
:10E8B000D1E716F0080FCED020270EF804700134EF
:10E8C000C9E7BC42A7D21F2C81D9A4E71F2CC2D80C
:10E8D00058270EF804700134AEE72DE9F04190B0EE
:10E8E000169C189DDDF86C802CB928F0100618F4E1
:10E8F000806F34D1B04618F0200F14BF4127612734
:10E900000DF1200E00260A3F00E06446B4FBF5FC42
:10E9100005FB1C4C5FFA8CFCBCF1090F94BF0CF199
:10E92000300CBC445FFA8CFC01360EF801CBB4FB12
:10E93000F5FCAC4201D3202EE7D1CDF818801A9C0B
:10E940000594199C049403959DF85C4002940196EB
:10E9500008AC0094FFF718FF10B0BDE8F081B04696
:10E960002646EAE72DE9F04F95B0089009910A9202
:10E970000B931E9C1F9D229EDDF88C80DDF898B0C5
:10E9800054EA050305D12BF010031BF4806F40D12E
:10E990009B461BF0200F14BF4FF0410A4FF0610A55
:10E9A0000DF130090027AAF10A0A01E004460D46DC
:10E9B000324643462046294601F0E0F8D2B2092A01
:10E9C00094BF30325244D2B2013709F8012B32469B
:10E9D00043462046294601F0D1F8B44275EB0803BE
:10E9E00001D3202FE2D1CDF818B0259B0593249BAD
:10E9F000049303969DF88030029301970CAB00932B
:10EA00000B9B0A9A09990898FFF7BEFE15B0BDE85E
:10EA1000F08F9B460027E6E72DE9F04F91B00446C2
:10EA20000D4608921E46DDE91AAB1E9F52465B4614
:10EA300050465946FFF7F4FD002840F004814FF09E
:10EA4000FF32A34B50465946FFF738FE002840F0EE
:10EA5000FA804FF0FF326FF4801350465946FFF7AB
:10EA6000F1FD002840F0EF80002200235046594677
:10EA7000FFF7E8FD002840F0F880CDE906AB17F479
:10EA800080630D931C9B08BF06231C93DDE9068958
:10EA9000CDE90A89434649460B4300F0B781C9F3E3
:10EAA0000A50A0F2FF30FFF773FD79A3D3E90023EA
:10EAB000FFF7FAFC78A3D3E90023FFF7CDFC8046EB
:10EAC00089460B9BC3F313030A9843F07F5141F42B
:10EAD000401100227F4BFFF7D3FC71A3D3E9002341
:10EAE000FFF7E2FC02460B4640464946FFF7B4FCFE
:10EAF000FFF772FD0990FFF74BFD804689466AA338
:10EB0000D3E90023FFF7D0FC0022734BFFF7A4FCEE
:10EB1000FFF762FD0C9066A3D3E900234046494607
:10EB2000FFF7C2FC804689460C98FFF731FD62A3CF
:10EB3000D3E90023FFF7B8FC02460B46404649469E
:10EB4000FFF79EFC02460B46CDE90A23FFF7ACFC1B
:10EB500080468946DDE90A0102460B46FFF77CFC48
:10EB6000CDE90E0100225D4B40464946FFF7C2FC4D
:10EB700000225B4BFFF770FC02460B4640464946BD
:10EB8000FFF7B8FC0022574BFFF766FC02460B4626
:10EB900040464946FFF7AEFC80468946DDE90A2338
:10EBA00000204FF08041FFF76BFC02460B464046C9
:10EBB0004946FFF751FC02460B46DDE90E01FFF71F
:10EBC00099FC0022484BFFF747FC0C9B03F2FF3CEB
:10EBD00000224FEA0C53FFF767FC80468946DDE9C7
:10EBE0000623FFF76BFD002845D1CDE90A89099B73
:10EBF0006333C72B34BF4FF004084FF0050817F4F8
:10EC0000006F00F08780DDE90A120B4613436FD0D6
:10EC10002BA3D3E90023DDE90601FFF73BFD40B15B
:10EC200029A3D3E90023DDE90601FFF70BFD002846
:10EC30005ED11C9B002B6DD00D9B002B6AD01C9BC2
:10EC4000013B1C9366E004971D9B03931C9B02935E
:10EC5000CDE900AB3346089A2946204600F0E0F89B
:10EC60008146484611B0BDE8F08FCDF818A00BF1F1
:10EC70000043079303E7099B013B09930022184BCC
:10EC800040464946FFF736FCCDE90A01AFE700BF31
:10EC9000FB799F501344D33FB3C8608B288AC63F8B
:10ECA00061436F63A787D23F71A379094F930A40ED
:10ECB0001655B5BBB16B0240EF39FAFE422EE63F66
:10ECC0002D431CEBE2361A3F0000000080842E41E9
:10ECD000FFFFEF7F0000F83F0000E03F00002C4006
:10ECE00000002440000018400000F03F002309937A
:10ECF0001C9B1946099B1A469942C3BF0A46D31A60
:10ED000003F1FF3300231C9347F480674FF00008A2
:10ED1000CDF824801D9B984534BFA3EB08094FF024
:10ED2000000917F002030C9304D0B8F1000F18BFCC
:10ED30004FF00009099B3BB1DDE90A23DDE906013B
:10ED4000FFF7D8FBCDE906010022002350465946C3
:10ED5000FFF778FC002851D127F400630493CDF825
:10ED60000C901C9B02939DED067B8DED007B334642
:10ED7000DDF820A052462946204600F051F8814691
:10ED8000B8F1000F3FF46DAF17F0200F00F101074D
:10ED900033460246294614BF45206520A047052377
:10EDA000059308F1FF330493002303930A2302938E
:10EDB0000999CB0F01930029B8BF4942009133460E
:10EDC0003A4629462046FFF788FD81460C9B002BDA
:10EDD0003FF447AFA0EB0A071D9BBB427FF641AF54
:10EDE0004FF020089A464A46334609F10109294660
:10EDF0004046A04701375745F5D332E7DDE9060124
:10EE0000024601F10043CDE90623A5E717F4006FA0
:10EE10007FF46CAF4FF00408002309937AE700BF3A
:10EE20002DE9F04F2DED028B95B007900A91924697
:10EE30009B46DDE9208942464B4640464946FFF75E
:10EE4000EFFB002849D14FF0FF326FF480134046AA
:10EE50004946FFF7F7FB00284ED14FF0FF32B24B87
:10EE600040464946FFF72AFC002854D1AAA3D3E91B
:10EE7000002340464946FFF721FC002863D1A8A3A0
:10EE8000D3E9002340464946FFF7DCFB00285AD16E
:10EE90000022002340464946FFF7D4FB002861D1F9
:10EEA00000230B93249B13F4806569D0229B092BCC
:10EEB00063D930238DF83030229B5E1E0CAAA3F15B
:10EEC000090501233021AB425BD0013302F8011F59
:10EED000013E202BF7D11D4653E0249B0393239B37
:10EEE000029303230193914B00935B4652460A9988
:10EEF0000798FFF7FBFB51E1249B0393239B0293AD
:10EF0000042301938A4B00935B4652460A99079863
:10EF1000FFF7ECFB42E1249B13F00402854B86498A
:10EF200008BF0B46002A14BF042203222499039130
:10EF300023990291019200935B4652460A990798E1
:10EF4000FFF7D4FB2AE1249B0493239B0393229B8A
:10EF50000293CDE900895B4652460A990798FFF76C
:10EF60005BFD1BE142464B4600200021FFF788FA7B
:10EF70008046894601230B9394E71E46002500E056
:10EF8000062640464946FFF727FB04466B4B03EB3A
:10EF9000C60393ED008BFFF7FBFA02460B46404693
:10EFA0004946FFF76DFA53EC182BFFF77DFA02463E
:10EFB0000B46CDE90823FFF721FB0746FFF7FAFAD6
:10EFC00002460B46DDE90801FFF75AFA02460B46F6
:10EFD000CDE9082300225A4BFFF770FB50B30137ED
:10EFE0003846FFF7E7FA02460B4651EC180BFFF7DD
:10EFF0003DFB08B101340027002E6BD12046FFF7FE
:10F00000C7FA02460B4640464946FFF739FA06461C
:10F010000F4600224A4BFFF715FB90BB0022484BDE
:10F0200030463946FFF74AFB58BB14F0010F28D091
:10F03000013426E00022424BDDE90801FFF702FB24
:10F040000028D9D117B117F0010FD5D00137D3E778
:10F050001F2900F2A880BCF1000F39D00CAB5A195F
:10F060000D463020013502F8010F202D09D0EB4369
:10F070000B44F342F6D114AB2B442E2203F8202C80
:10F08000013514AB5A19213A2E491F2D74D8013578
:10F0900081FB0430E317C3EBA00303EB8300A4EB75
:10F0A0004004303402F8014F1C46002BEDD1249B64
:10F0B00003F00303012B27D01F2D62D80B9B002BDD
:10F0C00044D014AB2B442D2203F8202C013558E0FA
:10F0D0000D46D0E714AB58192138DFF86CE01F2D2E
:10F0E000CFD806F1FF3C691CAEFB0732D20802EB19
:10F0F0008203A7EB4303303300F8013F092FA7D960
:10F10000664617460D46EAE7239B002BD4D04FE016
:10F11000239DD1E7AFF300800000000065CDCD4115
:10F120000000000065CDCDC1FFFFEF7F2C02012064
:10F130003002012020020120280201203802012093
:10F140000000E03F67666666CDCCCCCC249B13F014
:10F15000040F06D014AB2B442B2203F8202C0135CE
:10F160000FE0249B13F0080F0BD014AB2B4420228C
:10F1700003F8202C013504E0249B03F00303012B4A
:10F1800013D0249B0393239B029301950CAB009314
:10F190005B4652460A990798FFF7A8FA15B0BDECEE
:10F1A000028BBDE8F08F0D466BE7239B002BE8D068
:10F1B0000B9B1BB9249B13F00C0F02D0239B013B2C
:10F1C0002393239BAB427FF677AF1F2DD9D814AB87
:10F1D0002B44213B30222399013503F8012F8D4226
:10F1E00096D0202DF8D1CCE700B9704708B500F0D3
:10F1F0007BFC08BD2DE9F04F91B017461C46DDF8A9
:10F200006880824B824A1A60B1F10009814B14BFB9
:10F2100082469A462078002800F0D2824FF0000BF8
:10F2200031E1621C4FF0000C144612F8013BA3F1CF
:10F23000200110290AD8DFE801F02E090931090957
:10F2400009090909092B092809092500A3F1300238
:10F25000D2B2092A25D92A2B31D0002523782E2B8A
:10F2600036D000262378683B122B5DD8DFE803F008
:10F27000B85CC65C535C5C5C5C5C5C5CC25C5C5CAB
:10F280005C5CCA004CF0010CCEE74CF0020CCBE702
:10F290004CF0040CC8E74CF0080CC5E74CF0100C1F
:10F2A000C2E7002505EB850503EB4505303D14F865
:10F2B000013FA3F13002D2B2092AF3D9CEE758F8C0
:10F2C000045B002DBCBF4CF0020C6D420134C5E75D
:10F2D0004CF4806C611C6378A3F13002D2B2092A2D
:10F2E00004D92A2B11D00C460026BBE7002606EBDA
:10F2F000860603EB4606303E11F8013FA3F13002CB
:10F30000D2B2092AF3D90C46ACE758F8046B26EAC6
:10F31000E6760234A6E763786C2B19BF4CF4807C48
:10F3200001344CF4407C02342078A0F12503532BA7
:10F3300000F23D82DFE813F031023B023B023B0268
:10F340003B023B023B023B023B023B023B023B02D5
:10F350003B023B023B023B023B023B023B023B02C5
:10F360003B023B023B023B023B023B023B023B02B5
:10F370003B023B023B023B0243012A0143013B02A9
:10F380003B023B023B023B023B023B023B023B0295
:10F390003B023B023B023B023B023B023B02700052
:10F3A0003B023B023B023B023B023B023B023B0275
:10F3B0003B0270006701700043012A0143013B02D8
:10F3C00070003B023B023B023B023B0270001B020F
:10F3D0003B023B02A2013B0270003B023B02700079
:10F3E0006378682B19BF4CF0800C01344CF0C00CD2
:10F3F000023499E74CF4807C013495E74CF4007CAE
:10F40000013491E74CF4807C01348DE7EC04012059
:10F41000F5F10020DDE60020782800F0228258284F
:10F4200000F0DD816F2800F01E82622800F01D824E
:10F430002CF01003692832D11CF4806F40F00D824B
:10F440000A2213F4007F35D113F4807F54D113F0D6
:10F45000400F65D058F8041BC9B205930495039674
:10F460000292CB0F01930029B8BF494200913B465D
:10F470005A4649465046FFF730FA83460134207811
:10F48000002800F09F8125283FF4CBAE0BF1010549
:10F490003B465A464946D0470134AB46EFE764281D
:10F4A00005D11CF4806F40F0D4810A22C9E79C4644
:10F4B0000A2297E108F1070020F00700804658F87B
:10F4C000081B40680893079506960492002305934D
:10F4D000C30F02930246002809DB009101923B46CC
:10F4E0005A4649465046FFF73DFA8346C6E74B4227
:10F4F000194660EB4002F0E758F8041B05930495A9
:10F5000003960292CB0F01930029B8BF49420091A4
:10F510003B465A4649465046FFF7DFF98346ADE77A
:10F5200013F0800F58F8041B18BF09B295E708F1D3
:10F53000070828F007080893079506960023049209
:10F5400005930293F8E80223CDE900233B465A468F
:10F5500049465046FFF706FA83468FE70593049520
:10F56000039602920023019358F8043B00933B4614
:10F570005A4649465046FFF7B0F983467EE713F0F6
:10F58000800F58F8041B18BF89B247E1462808BF0E
:10F590004CF0200C08F1070828F00708CDF810C03F
:10F5A00003950296F8E80223CDE900233B465A462C
:10F5B00049465046FFF734FC834601345FE700F0CC
:10F5C000DF03472B02D0452808D105E04CF4006C3E
:10F5D00000F0FD00452801D14CF0200C08F107088F
:10F5E00028F00708CDF810C003950296F8E802232A
:10F5F000CDE900233B465A4649465046FFF70CFAF0
:10F60000834601343BE71CF0020F1CD043460BF14C
:10F61000010653F8040B0B933B465A464946C0B2C9
:10F62000D047012D88BF05EB0B0840F2068132461A
:10F6300001363B4649462020D047B045F7D1AB4480
:10F64000DDF82C8018E0012D40F2FB800BF1FF3338
:10F650001D4420265A460BF1010B3B4649463046D5
:10F66000D047AB45F6D105F1010B58F8040B3B46EA
:10F670002A464946C0B2D047013400E7434653F812
:10F68000048B0C93002E14BF31464FF0FF3198F8D5
:10F690000000002800F0DB80434613F8012F1AB168
:10F6A000A8EB0302CA42F8D1A3EB08030B931CF4A6
:10F6B00080620D9203D0B34228BF33460B931CF0F7
:10F6C00002030E9306D0002800F0BD805A460F9525
:10F6D0000D9D29E00B9A531C954240F2B68005EB34
:10F6E0000B039B1A0F93CDF82C8098465A460BF1CA
:10F6F000010B3B4649462020D047D845F6D1DDF8DE
:10F700002C806B1C0B93DDF83CB098F800000028AF
:10F71000DCD114E01E4602F1010B3B464946D047BE
:10F7200018F8010F40B15A46002DF4D0731E002E78
:10F73000F0D10F9D934600E00F9D0E9B1BB9013445
:10F74000DDF830809BE65E460B9B1A469D420CD945
:10F750003544A5EB030B2025324601363B4649468E
:10F760002846D047B345F7D1E9E7B346E7E74CF081
:10F770002103059308230493039610230293002387
:10F78000019358F8043B00933B465A46494650467D
:10F79000FFF7A3F88346013471E60BF101053B4600
:10F7A0005A4649462520D0470134AB4667E60BF15F
:10F7B00001053B465A464946D0470134AB465EE612
:10F7C0004FF0000B5F4594BF07F1FF325A463B46AE
:10F7D00049460020D047584611B0BDE8F08F4CF0A4
:10F7E000200C10222CF00C031CF4806F07D02CF09E
:10F7F0000D0369283FF425AE64283FF422AE13F4CC
:10F80000007F7FF494AE13F4807F7FF4A7AE13F0F3
:10F81000400F3FF4B4AE58F8041BC9B205930495E9
:10F82000039602920023019300913B465A464946B3
:10F830005046FFF752F8834620E6DDF82C80B346A9
:10F840001AE75D460FE75E467EE70B935DE74346AA
:10F850002AE72CF011030A22F3E52CF011030A2207
:10F86000EFE51022BEE70822BCE70222BAE700BF9C
:10F8700000B585B002900391009313464FF0FF321C
:10F8800002A90348FFF7B6FC05B05DF804FB00BF12
:10F89000DFE6002010B584B00346084A146844B17E
:10F8A00000914FF0FF3203A90548A047012004B0A2
:10F8B00010BD00F028F90020F9E700BFEC0401209A
:10F8C000E9F1002000BEFDE708B5FFF7FBFF0000EF
:10F8D00038B5FEF799FC064A064B9A4206D2144602
:10F8E0001D4654F8043B9847AC42FAD338BD00BFDC
:10F8F000040301200403012008B5034608461B68E1
:10F900001146984708BD00002DE9F0470746884694
:10F910001646437D4BB1002A38DD4D1E002420469B
:10F92000DFF86CA04FF002090EE003681146404674
:10F9300098472BE03B7D0EE03B6849465046984790
:10F94000601C0134A64213D0002CF3DD2B780D2B64
:10F9500014BF0023012315F8012F0A2AF1D1002B2F
:10F96000EFD1A042E8DA3B68211A40449847E3E728
:10F97000A04203DA3B68211A40449847464416F8EF
:10F98000013C0D2B14BF002301233B75BDE8F0871C
:10F9900088020120F8B50368C3B105460C4B1C680A
:10F9A00094B10C4E071D06E02A6839462046FFF741
:10F9B000ABFF246944B12368002BFAD03368002BD5
:10F9C000F2D0A342F5D1EFE700232B60F8BD00BFD2
:10F9D000D4040120D804012038B505460C460B6834
:10F9E000802B05D021684B1C23600C44257138BD49
:10F9F0000846FFF7CFFFF5E708B5FEF70FFB074A0C
:10FA0000821841F10003002BBCBF4FF0FF326FF0B2
:10FA100000430348FCF766FC08BD00BF40420F00EE
:10FA2000C402012008B50248FCF775FC08BD00BF00
:10FA3000C40201202DE9F04F83B080460D46914667
:10FA40001C46FFF7D9FF8246B5F1FF3F0BD0194E98
:10FA5000194B002C08BF1E46184B1C6804B3184FE6
:10FA60004FF00A0B06E0404600F07EFA0546EEE74E
:10FA70002469ACB12368002BFAD03B680BB1A342D8
:10FA8000F6D12A4641462046B047B9F1000FEFD0E3
:10FA90008DF807B001220DF107012046B047E7E7D6
:10FAA000BAF1000F03D1284603B0BDE8F08FFFF78D
:10FAB000B9FFF8E709F90020F9F80020D404012083
:10FAC000D804012010B5064B1C6824B910BD984716
:10FAD0002469002CFAD06368002BF8D1F8E700BF46
:10FAE000D40401200020704710B582B004468DF880
:10FAF00007000123002219460DF10700FFF79AFFC6
:10FB0000204602B010BD38B5054600F02DFA044677
:10FB100001231A4601462846FFF78CFFFFF7D2FF64
:10FB2000204638BD70B5A2B004460E46FFF764FF0C
:10FB30000546002301933346224601A90748FFF7F3
:10FB400097FE044601A8FFF725FFFFF7BBFF15B995
:10FB5000204622B070BDFFF765FFF9E7D9F9002014
:10FB60000FB400B583B004A951F8040B0191FFF75D
:10FB7000D9FF03B05DF804EB04B0704753B94AB93C
:10FB8000002908BF00281CBF4FF0FF314FF0FF30A5
:10FB900000F082B9ADF1080C6DE904CE00F006F872
:10FBA000DDF804E0DDE9022304B070472DE9F04FF1
:10FBB000099D04460F46002B48D18A42944661D9DC
:10FBC000B2FA82F343B1C3F120019F4002FA03FC71
:10FBD0009C4020FA01F10F434FEA1C411FFA8CFEB2
:10FBE000220CB7FBF1F601FB167706FB0EF042EA9A
:10FBF0000742904208D91CEB020206F1FF3702D2FD
:10FC0000904200F237813E46121AA4B2B2FBF1F0E4
:10FC100001FB102200FB0EFE44EA0244A64508D96F
:10FC20001CEB040400F1FF3202D2A64500F21C8155
:10FC3000104640EA0640A4EB0E0400261DB1DC404D
:10FC40000023C5E900433146BDE8F08F8B4209D956
:10FC5000002D00F0FD800026C5E900013046314648
:10FC6000BDE8F08FB3FA83F6002E4BD18B42C0F083
:10FC7000F280824240F2EF803046002DE3D0C5E9A9
:10FC80000047E0E702B9FFDEB2FA82F3002B40F052
:10FC90009D80891A4FEA124E97B20126200CB1FBC3
:10FCA000FEF20EFB121140EA014107FB02F088420E
:10FCB0000FD91CEB010102F1FF382CBF4FF00109F5
:10FCC0004FF00009884203D9B9F1000F00F0CF804E
:10FCD0004246091AA4B2B1FBFEF00EFB101100FB64
:10FCE00007F744EA0144A74208D91CEB040400F1D9
:10FCF000FF3102D2A74200F2B4800846E41B40EA7A
:10FD000002409BE7C6F12007B34001FA06F422FA4D
:10FD100007FCF940B2404CEA030C20FA07F34FEA23
:10FD20001C491C431FFA8CFE00FA06F3200CB1FBA1
:10FD3000F9F809FB181140EA014108FB0EF088426E
:10FD40000FD91CEB010108F1FF3A2CBF4FF0010B5A
:10FD50004FF0000B884203D9BBF1000F00F08D80FB
:10FD6000D046091AA4B2B1FBF9F009FB101100FB4F
:10FD70000EFE44EA01418E4507D91CEB010100F15A
:10FD8000FF3401D28E457FD8204640EA0840A1EBDF
:10FD90000E01A0FB029841454C46C64602D306D14F
:10FDA0004B4504D20138B9EB020468EB0C0E002D70
:10FDB00070D01A1B61EB0E0122FA06F301FA07F765
:10FDC000F14000261F43C5E900713CE702FA03FC3D
:10FDD000C3F1200001FA03F221FA00F64FEA1C4EAB
:10FDE00024FA00F11FFA8CF79C401143B6FBFEF099
:10FDF0000A0C0EFB106642EA064200FB07F696422A
:10FE00000ED91CEB020200F1FF382CBF4FF00109A4
:10FE10004FF00009964202D9B9F1000F31D04046A7
:10FE2000921B89B2B2FBFEF60EFB162241EA02419A
:10FE300006FB07F28A4207D91CEB010106F1FF38E5
:10FE400001D28A4223D84646891A46EA004625E767
:10FE50002E462846F7E6841A61EB030301201F466D
:10FE60000BE76444023849E764440238E1E6023AA9
:10FE700061442EE7023E6244C6E6A8F102086144EE
:10FE80006FE702386244CBE7023861447DE7023E07
:10FE90006144D9E72E46D6E6704700BF11F0FF0156
:10FEA000034644D0820732D110B541EA012E0368DF
:10FEB0004EEA0E4EA3F101328EEA030422EA030257
:10FEC000A4F1013323EA0403134313F0803F0FD15D
:10FED00050F8044F84EA0E0CA4F10133ACF1013266
:10FEE00023EA040322EA0C02134313F0803FEFD00D
:10FEF000037823B936E010F8013F002B32D0994245
:10FF0000F9D110BD8A4211D09A071846CCD01846B4
:10FF100013F8012B002AF5D11046704799071846AF
:10FF200007D0184601330278002AF7D170478207BC
:10FF3000F7D10268A2F1013323EA020313F0803FF4
:10FF400008D150F8042FA2F1013323EA020313F081
:10FF5000803FF6D00378002BE8D010F8013F002B4B
:10FF6000FBD17047184610BD20F0030110F00300CC
:10FF7000C0F1000051F8043B00F1040C4FEACC0C36
:10FF80006FF000021CBF22FA0CF213434FF0010C79
:10FF90004CEA0C2C4CEA0C4CA3EB0C0222EA0302B8
:10FFA00012EACC1204BF51F8043B0430F4D0C2F181
:10FFB000000102EA0102B2FA82F2C2F11F0200EB72
:04FFC000D2007047B4
:10FFC80025640A0048656C6C6F2C20776F726C642E
:10FFD8002100000030313233343536373839414268
:10FFE800434445464748494A4B4C4D4E4F50515261
:08FFF800535455565758595A4D
:020000042001D9
:100000002024252A2B2D2E2F3A000000FF070A0F4F
:10001000141A1214181E1214181A1E16181C1E1C5C
:100020001C1C1C1E1E1A1C1E1E1E1E1E1E1E1E1EFC
:100030001E1E1E1E1EFF0A101A1218101216161A65
:100040001E161618181C1C1A1A1A1A1C1C1C1C1C0A
:100050001C1C1C1C1C1C1C1C1C1C1C1C1C1CFF0D0C
:1000600016121A1218121614181C1A18141E181C1C
:100070001C1A1E1C1E1E1E1E1C1E1E1E1E1E1E1EAA
:100080001E1E1E1E1E1E1EFF111C1610161C1A1AE6
:10009000181C181C1618181E1C1C1A1C1E181E1EB4
:1000A0001E1E1E1E1E1E1E1E1E1E1E1E1E1E1E1E70
:1000B000FF0101010101020202020404040404061A
:1000C00006060607080809090A0C0C0C0D0E0F108D
:1000D000111213131415161819FF0101010202045D
:1000E00004040505050809090A0A0B0D0E10111173
:1000F00012141517191A1C1D1F21232526282B2D14
:100100002F31FF01010202040406060808080A0C48
:10011000100C11101215141717191B1D222223265B
:10012000282B2D303335383B3E4144FF010102047A
:100130000404050608080B0B1010121013151919EA
:1001400019221E202325282A2D303336393C3F42E0
:10015000464A4D510100000000000000030000006D
:1001600002000000080000000A0000000C0000006F
:10017000080000001000000010000000090000004E
:100180000B0000000D0000000A0000000C00000041
:100190000E0000000A2A2A2A2050414E4943202AF4
:1001A0002A2A0A000A0000004861726477617265B9
:1001B00020616C61726D20256420616C72656164E0
:1001C0007920636C61696D65640000004861726448
:1001D000206173736572740052656C6561736500AC
:1001E000322E302E300000007069636F3200000044
:1001F0005152434F44453043000000004F63742088
:10020000203520323032340006005250BBFF3CB65D
:10021000E801012006005250D3F07542D8010120B8
:10022000666E692B00000000666E69006E616E00EC
:10023000666E692D00000000000000000000F03F25
:1002400000000000000024400000000000005940B1
:100250000000000000408F40000000000088C34004
:1002600000000000006AF8400000000080842E4179
:1002700000000000D01263410000000084D79741C5
:0C0280000000000065CDCD410D0A00001B
:08028C0020F9FF7F01000000D2
:10029400BCC00020B0C0002008020120A4C000207F
:0402A400140201201F
:1002A8001000000000000000000000000000000036
:1002B800000000000000000008030120000000000A
:1002C800000000002DE2002059E20020D1E20020C9
:1002D80095E20020C7E200200DE40020DDE30020C5
:1002E80081D8002075DC0020F9E10020B5E200206B
:0C02F80079E2002041D700208DD70020C3
:040000052000C00116
:00000001FF
