:020000042000DA
:10C0000019481A49086006C881F30888104718487B
:10C010000068002823D11749174A002000E001C119
:10C020009142FCD1154988471549884715498847E9
:10C0300000BEFDE7D0120120D0120120881301209C
:10C040000000042000000420000004200010042050
:10C0500000100420001004200000000070470A486F
:10C0600003F010FE0047000000C1002008ED00E0D2
:10C07000000000D08813012048170120DDE80020CF
:10C0800001C30020C5E900205756000006005250A9
:10C09000ABB360537012012006005250861C03029D
:10C0A00080120120060052505422A29D8C120120C1
:10C0B000F2EB8871B4120120C812012034C00020B4
:10C0C00090A31AE70000000000000000000000003C
:10C0D0000000000000000000000000000000000060
:10C0E0000000000000000000000000000000000050
:10C0F0000000000000000000000000000000000040
:10C10000002004200FC00020C3C10020C5C10020B2
:10C11000C1C10020C1C10020C1C10020C1C1002097
:10C12000C1C10020C1C10020C1C10020C7C1002081
:10C13000C1C10020C1C10020C9C10020CBC1002065
:10C14000CDC10020CDC10020CDC10020CDC1002037
:10C15000CDC10020CDC10020CDC10020CDC1002027
:10C16000CDC10020CDC10020CDC10020CDC1002017
:10C17000CDC10020CDC10020CDC10020CDC1002007
:10C18000CDC10020CDC10020CDC10020CDC10020F7
:10C19000CDC10020CDC10020CDC10020CDC10020E7
:10C1A000CDC10020CDC10020CDC10020CDC10020D7
:10C1B000CDC10020CDC10020CDC10020CDC10020C7
:10C1C00000BE00BE00BE00BE00BE00BEEFF3058094
:10C1D000103800BE03000068EFF3108C72B60268DE
:10C1E000002AFCD0BFF35F8F04229A56002A0BDB93
:10C1F00000290FD00A6000201B68BFF35F8F002268
:10C200001A608CF310887047D022120612681A71D7
:10C210000120F1E70020EFE7F0B5D6464F4646464D
:10C22000C0B5040090461F00D0231B061B689A4629
:10C23000002399462668EFF3108372B63568002D07
:10C24000FCD0BFF35F8F25797F2D0ED82268BFF316
:10C250005F8F4946116083F310884046390001F032
:10C260004FFF0028E6D0002009E0524622712268E4
:10C27000BFF35F8F0021116083F310880120E0BCC1
:10C28000BA46B146A846F0BD70B582B006001500AA
:10C290001C0001A9FFF79EFF002807D1019B5BB29C
:10C2A000D0221206127852B2934201D102B070BD70
:10C2B0002A0023003000FFF7AFFFF7E70268EFF333
:10C2C000108172B61368002BFCD0BFF35F8FFF2381
:10C2D00003710368BFF35F8F00221A6081F3108837
:10C2E00040BF704730B585B00124039401256D42ED
:10C2F000029529350195009401F00AF905B030BD89
:10C30000F0B5274CA54404F0CBFC01F091F90525CC
:10C31000244EFA24A4002900300004F0B5FC2000CB
:10C3200001F0E4FE013D002DF5D10023F5221201BC
:10C330006A4469461C48FFF7D5FF002803D1002056
:10C340001A4B9D44F0BDF5200001684400F0F0FF59
:10C3500007002E00002821DCFA24A400200001F0B0
:10C36000C5FEFBE7202004F041FC631C9F420ED079
:10C370001C0032002100F5231B016B44180000F063
:10C38000D9FF0028EED0232004F030FCEDE70A208E
:10C3900004F02CFC731CA642DED01E002C00E8E743
:10C3A0005CE1FFFFC80D0120CC0D0120A41E0000A0
:10C3B000F0B5CE46474680B5013915D40124A046D4
:10C3C0000634A1461C68E5100400CC4046463440C3
:10C3D0004F461E68B743BC40565D344354551C68F5
:10C3E00001341C600139EDD2C0BCB946B046F0BD85
:10C3F00070B50500040008344443043424010128C6
:10C400000EDD072103F064FC023083001B189A0044
:10C410009B180A3B58433738241A062D00DD243C6C
:10C42000200070BD70B504000D00FFF7E1FFC217DA
:10C43000072313401B18DB10A9004919C90049192B
:10C44000044A52181557044A511808576843181AD5
:10C4500070BDC046500E0120F40E012070B50500DD
:10C46000072400200126C309DA00D21A92009B1883
:10C470004000434008002041304068435840C0B26B
:10C48000013CF0D270BDF8B505000E0001281FD0A8
:10C49000072103F01DFC871C202D15D0441C6800CB
:10C4A000C01940000130610003F012FC4000AB00F5
:10C4B0000A33002C04DD3355013C1B1A002CFADC36
:10C4C000062333703800F8BD1A208A230524F2E7CA
:10C4D0000027F7E710B54368002B16DD00228168BE
:10C4E000994213D15900C918C4688C420ED1016910
:10C4F00099420BD142699A420BD0002206E0816931
:10C50000CA17DC0F9942624108E00022002080181F
:10C5100010BD9A0001689142F1DA00229900846905
:10C520008C42F3DB016801209942F0DAEEE710B5A6
:10C5300004786243511807220A40C9100131002BC8
:10C5400006D0012393401A00435C1343435410BDAB
:10C55000012393401A00435C93434354F7E7F0B53B
:10C56000D6464F4680B583B0019092460A9E002B76
:10C5700016DD0D0099468944504407000BE0012365
:10C580002A0021003000FFF7D2FF0134BC42F6D16F
:10C5900001354D4504D0019C5346002BEFDCF7E7F5
:10C5A00003B0C0BCBA46B146F0BD10B50478A14294
:10C5B00001D2A24200D310BDFFF7B9FFFBE7037819
:10C5C0005A435118CB10C0184378072211400B4131
:10C5D00001201840704710B580231B0299422ED2CB
:10C5E00001280DD0022817D004281ED008281ED0FC
:10C5F000072827D14B1E99414942113008430AE0D0
:10C600008800401840000230032103F061FB8023C2
:10C610001B02984210DA10BD8800401840004118F3
:10C620000131C80F40184010F1E7C800EFE748009B
:10C63000401880004018EAE701204042EBE7012063
:10C640004042E8E701204042E5E7000010B5040061
:10C65000C81D112103F03CFB082C03D8A4000C4B8F
:10C660001B599F460120404210BD8000094BC05815
:10C67000FAE78000084BC058F6E78000074BC05827
:10C68000F2E78000064BC058EEE70020ECE7C0461A
:10C69000DC0D0120CC0F0120C00F0120B40F0120C0
:10C6A000A80F0120F0B5DE4657464E464546E0B598
:10C6B00087B0050003908A4683009B461C00113416
:10C6C000230063430733D91707220A40D218D21038
:10C6D00001320021504600F0CAFF53461C700093FF
:10C6E0002300012200210620FFF739FF5346009363
:10C6F0000123220006210020FFF731FF534600935B
:10C700000923092200210020FFF729FF083C534696
:10C7100000930923082200212000FFF720FF534641
:10C7200000930823092221000020FFF718FF04A925
:10C730002800FFF7A8FE061E12DD04AB994600256F
:10C74000431E98464F4609E0A0452ED13CE06B1CA5
:10C7500001229446E144A54202D01D0000241FE0BE
:10C76000039B062B06DC07B0F0BCBB46B246A946CD
:10C77000A046F0BD5C4606345346009306230322D0
:10C7800000212000FFF7EBFE53460093032306220F
:10C7900021000020FFF7E3FEE5E70134A642DFD0E9
:10C7A0002B002343F9D0002DCED0A84501D1002C79
:10C7B0000AD0E15D02394B4618780238534600939F
:10C7C00005230522FFF7CBFE631C9E42BFD01C0051
:10C7D000E6E770B505000C000B68002B00D185184A
:10C7E000201D1822210000F02FFF256070BD0000E1
:10C7F000F8B5CE46474680B515008000394BC6587F
:10C80000F60031430B000A22374C58005B12634399
:10C810004340013A002AF8D189020B43334E5E406F
:10C8200000240127330023413B4022000821280037
:10C83000FFF77DFE0134062CF4D1B311053C2340F3
:10C84000072208212800FFF772FEF3112340082277
:10C8500008212800FFF76BFE33122340082207212E
:10C860002800FFF764FE0834012398460E273300A2
:10C87000234142461340391B08222800FFF757FE88
:10C8800001340F2CF3D12B789846002401239946CC
:10C8900043465F1E330023414A461340391B08229A
:10C8A0002800FFF744FE0134082CF3D101239946F8
:10C8B00047460F3F330023414A4613403A190821A7
:10C8C0002800FFF734FE01340F2CF3D14246083A1A
:10C8D000012308212800FFF72AFEC0BCB946B04654
:10C8E000F8BDC046980F0120370500001254000023
:10C8F000F0B5DE4657464E464546E0B585B0009059
:10C90000894601920B789A460025002B00DC90E0C6
:10C9100093004B4A90469844EB0F5B195B100293CF
:10C920002F000026002417E0E119012359400B4095
:10C930009B462A0021004846FFF741FE5B461B1A32
:10C940005A1E9341DBB22A0021004846FFF7EFFD53
:10C950000134F619544568DA2A0021000098FFF7DF
:10C960002EFE0028F4D16B461B79072B61D8434675
:10C970001B689F460121794001230B409B46D8E765
:10C980000321200003F0A4F94B425941CBB29B464E
:10C99000CFE7E019032103F09BF94B425941CBB299
:10C9A0009B46C6E70321200003F092F9029B9C46B8
:10C9B00060440121484001408B46BAE7F20FB118AC
:10C9C00001230B409B1A9B460321300003F080F9A2
:10C9D00059444B425941CBB29B46AAE7F20FB318D8
:10C9E00001218B460B409B1A03930231300003F068
:10C9F0006FF9039B9C4661445B4659400B409B4644
:10CA000097E7E319DA0F9B1801218B460B409B1A1D
:10CA100003930231300003F05BF9039B9C466144B1
:10CA20005B4659400B409B4683E70135554500DA8C
:10CA300072E705B0F0BCBB46B246A946A046F0BDC1
:10CA4000000E0120F0B5DE4657464E464546E0B59D
:10CA50009BB0019088460792190024AB04CB029248
:10CA600000229A560E9226AB1A7803920122914622
:10CA70008022120292468B460EE06B1C06D007996C
:10CA80005846FFF7CFFCC000A8422EDA029B9B4518
:10CA90001EDA01239C46E3444346002B16D0019C3A
:10CAA00000250026E76820785946FFF7CFFD4B4662
:10CAB000834062689A42E9DA0430C719ED19554596
:10CAC000E4DA01361034B045ECD1D6E70025D6E7DC
:10CAD000289B9B4600235A46137000201BB0F0BCD5
:10CAE000BB46B246A946A046F0BD5B460A93289BCA
:10CAF0009B460124039E02E00134042C0BD0002E3F
:10CB0000FAD0E7B239000A98FFF78CFCC000A842BF
:10CB1000F2DB0797F0E70A9B9B0011335B43073377
:10CB2000D91707220A40D218D210013200215846E4
:10CB300000F09DFD002319934346002B39D0019F3F
:10CB400000239A460733994601265B462893BB4645
:10CB50001F0007E001239C46E2440F339C46E34458
:10CB6000D04525D05D46287819AB3A000421FFF75F
:10CB70001FFC28780A99FFF769FD010019AB3A00FC
:10CB80006868FFF715FCEB68002BE3DD0024E31079
:10CB9000AA68D05C4B46A3431841304019AB3A0019
:10CBA0003100FFF705FC0134EB68A342EFDCD1E76D
:10CBB000BB4607990A98FFF735FC0C90C500199BF6
:10CBC000E91A042900DD042119AB5A460020FFF7B9
:10CBD000EFFB199AD3175B0FD118072211405B1A8C
:10CBE0000833D917490F5B181340591A19AB5A4625
:10CBF0000020FFF7DDFB199B9D420FDDEC2403268F
:10CC000076425F4619AB3A0008212000FFF7D0FBBF
:10CC10007440E4B2199BAB42F4DBBB46079A930025
:10CC200094466344DB006344CF4AD2180A995256B3
:10CC300091460B92CD4AD3185F560800FFF7D8FBF8
:10CC4000C217072313401B18DB101C000F93494623
:10CC5000180003F03DF84A46521A0892494620004F
:10CC600003F036F8C31B099311AC3A0000212000F1
:10CC700000F0FDFC7B1E1A0003930123A354002344
:10CC800098460125002F02DD0126361B1CE30B9B75
:10CC9000002B00DC87E05B46069300230593089B8E
:10CCA000DB0F0D930C9B5B441E0001330493CA46BB
:10CCB000B8465B4628935BE0E05D4146FFF7CEFB5C
:10CCC000335D584030550134A542F5DCA8460123B8
:10CCD0009C46E144019B4B4514D04B461D7833786C
:10CCE0005D40029A0499300000F0AEFC039B0022E4
:10CCF000F2544346002BEADD002411AF2B004546D9
:10CD00009846D9E7059A00235046099C5D46B446EB
:10CD1000069F279E05E0F95CB154013312189D422D
:10CD200004D09C42F7D10899521AF4E78246AB46E8
:10CD300066464346002B12DD279B0C998C466344C4
:10CD40001A00059B9C466244002350464446F15C11
:10CD50001170013312189C42F9DC8246A046069BF2
:10CD60005B440693059B013305930B9A9A4218DDA9
:10CD7000059AD3170D99089882424B41099A934618
:10CD80009B4442460021300000F071FC5B46002BC2
:10CD9000CFDD069B99465B4401934346013B0293DA
:10CDA0009BE7289B9B4659460A98FFF77BFC5B460E
:10CDB0001B780593013B0693002B50DD0F9AD200A0
:10CDC00004920393002734E05346DB10279AD35C88
:10CDD000072251468A4313414A4613402A00210044
:10CDE0005846FFF7A4FB01239C46E244013CA742BE
:10CDF0000BD002942A0021005846FFF7E0FB0028E0
:10CE0000F4D1049B5345F1DDDEE70136019B5A1E48
:10CE1000019208D335004346002B00D1019D039CAD
:10CE200001239946E5E75746039B023B0393002BFA
:10CE300015DD039B062B00D132E2059B002BF3DDB1
:10CE4000069B9A460026039A531C022119408846E5
:10CE5000931E994653460193BA464F46DAE75B461E
:10CE60001B780293DD1F072D11DD07245E4600238A
:10CE7000220006213000FFF75AFB00230622210082
:10CE80003000FFF754FB0234AC42F0DBB346029BA8
:10CE90009A46082252429446E24401277F420A32CF
:10CEA0009146043B98465E4629E0023B4A4693433E
:10CEB0000AD00134052C1BD0E317E2185A40019B1D
:10CEC0009742F2DA1300F0E7E51C5A4629003000D9
:10CED000FFF76BFB4346191900235A463000FFF752
:10CEE00064FB0023524629003000FFF75EFBE0E7B9
:10CEF0005F46013701239C46E244082F09D0FB1E00
:10CF000004246442DA179B1853400193BB461F0068
:10CF1000D2E7B34611A90A98FFF7B5FA824600286E
:10CF200000DCE5E111AF002399460300013B0193CA
:10CF30003DE0019B43450DD14346013301369A45FF
:10CF40002ED098464B464246134300D1CAE14B4689
:10CF5000002BEED0019B4B451FD14346002BEBD05D
:10CF600001256D4207E0C046F40E0120500E01205D
:10CF70000135022DE0D00124644223002B435A42A4
:10CF80005341DBB232785219397809195846FFF704
:10CF9000CEFA0134022CF0D1EAE701256D42EAE72E
:10CFA0004B4601330137C14500D1A1E1994611AE8D
:10CFB00000239846C6E746460136062E16D00024C2
:10CFC000B04653461F194E462E40330042463900A4
:10CFD0005846FFF7ACFA33003A0041465846FFF78F
:10CFE000A6FA6D100134032CEBD1E4E727990A98D7
:10CFF000FFF758FB0E9B01330CD00E9C22005946C4
:10D000002798FFF775FC5A4621000798FFF7F0FBB9
:10D01000012063E500230293C34B04935C4617E1B0
:10D0200003239C46E14415E0320011A93800FFF7C4
:10D03000D0FB002C07D1310011A8FFF74BFA830079
:10D040001B18DB009944524629004046FFF7B7FA07
:10D05000040001270135B5420EDA52462900404648
:10D06000FFF7ADFAA042DFD10137052FD8D0F1DDAF
:10D0700001239C46E144EDE7002C1AD1F01932005F
:10D0800011A9FFF7A6FB310011A8FFF723FA8300CF
:10D090001B18DB00994401239C46E244B2450FDA99
:10D0A0001C22002111A800F0E2FA0027002400252C
:10D0B000D3E7320011A93800FFF78BFB0027DDE72B
:10D0C00000239A4640E003239C46E14415E03200E9
:10D0D00011A93800FFF77DFB002C07D1310011A802
:10D0E000FFF7F8F983001B18DB0099442A0051462A
:10D0F0004046FFF764FA040001270135B5420EDA15
:10D100002A0051464046FFF75AFAA042DFD10137C4
:10D11000052FD8D0F1DD01239C46E144EDE7002C3A
:10D120001BD1F019320011A9FFF753FB310011A8F0
:10D13000FFF7D0F983001B18DB00994401239C46BC
:10D14000E244B24500DBA0E01C22002111A800F05F
:10D150008EFA002700240025D2E7320011A93800FA
:10D16000FFF737FB0027DCE703239C46E1445545E6
:10D170001DD03A0029002000FFF721FA0600019592
:10D1800001353A0029002000FFF719FA8642EED156
:10D190005A4601992000FFF712FA8642E7D15A4613
:10D1A00029002000FFF70BFA8642E0D1DCE7A04619
:10D1B00054460137A74207DA00257B1C9B46002C0A
:10D1C000F7DDA2464446D4E7059E44460027002EDC
:10D1D00017DD0027002328941C00289B984602E0B6
:10D1E0000134B4420CDA0025220029004046FFF742
:10D1F000E6F9431E98413F180135B542F4DBEFE7ED
:10D20000444631007143B800C01980004F077F1AAF
:10D21000BF007F1A7F00C019C317C01858404018BC
:10D22000013802F055FD013883001B185B004B44A8
:10D23000049A934202DA0493039B0E93039A21000B
:10D240002798FFF755FB029B01330293082B1AD056
:10D250006B461B7A5BB21D0003931A0021002798CE
:10D26000FFF746FB220029000798FFF7C1FA26784E
:10D27000002E04DD002399469A46A04610E70023BD
:10D2800099460027BDE7A346B7E64446771E00232C
:10D290009A46002F9DDD0596A0463C0057468BE739
:10D2A00005230393059B002B00DDC9E503230393AE
:10D2B000BFE502212800FFF7D1F8050001239C46B5
:10D2C000E044474500DCE2E411AC20782900FFF798
:10D2D000C5F8207033199F42EBDD63785840207009
:10D2E0000134F2E74346013301369A4500D028E67F
:10D2F0000A9B062B00DC79E61D000C230B496A0013
:10D30000ED124D435540013B002BF8D10A9B1B0306
:10D310001D430026029B0B225242944663449A46C8
:10D32000012399464BE6C046FFFFFF7F251F000003
:10D330000078704710B504780023A14204D2A242BD
:10D3400002D2FFF73CF903000120184010BD03781A
:10D35000002B08D0303B092B07D801300378002B75
:10D36000F8D1012002E0012000E000207047000019
:10D3700070B50400017800290BD0084D280003F097
:10D3800093FC002807D0013421780029F6D1012030
:10D3900002E0012000E0002070BDC046200E012008
:10D3A00010B5FFF718F9431C02D00730C00810BDB4
:10D3B00001204042FBE7F0B5C64600B584B0070047
:10D3C0000E009046080003F0CFFC040001236A46DB
:10D3D000137001000120FFF7FEF80194002809DC1A
:10D3E0000023039333781800303801210024002BE8
:10D3F0000ED11CE00730C2080021404600F037F98A
:10D40000EEE703AB42460731FEF7D2FF00212000D2
:10D4100001363578002D08D0830018184000303DC3
:10D42000281801310329F3D1EBE700290CDC6B4606
:10D4300042469A603A0013CB13C21B68136038004F
:10D4400004B080BCB846F0BD4B005918013103ABA5
:10D450004246FEF7ADFFEAE7F0B5D646474680B54F
:10D4600085B080460D009246080003F07DFC040064
:10D4700002236A46137001000220FFF7ACF8019402
:10D4800000280CDC002303932978002929D01F4CA5
:10D49000200003F009FC041B01271C4E0EE007309E
:10D4A000C2080021504600F0E2F8EBE703AB524619
:10D4B0000B212000FEF77CFF00270024013529788E
:10D4C00000290CD0300003F0EFFB63001C1923018E
:10D4D0001C1B801B04190137022FEFD1E6E7002F38
:10D4E0000DDC6B4652469A60424613CB13C21B6852
:10D4F0001360404605B0C0BCBA46B046F0BD03ABB1
:10D50000524606312000FEF753FFEAE7200E0120C5
:10D51000F0B5DE4657464646C0B590B005000E0051
:10D52000904606931AAB1B785BB29A461BAB1B78EE
:10D530009B4603F019FC0790071E1AD0199B9B000D
:10D5400011335B430733DA1707241440E418E4105F
:10D5500001342800FFF7FBFE00283BD0079901208B
:10D56000FFF71EFFA04219D9002342461370002086
:10D570000EE04346049303965B46029353460193A1
:10D58000199B0093189B069A00210020FFF75AFA76
:10D5900010B0E0BCBB46B246A846F0BD0CAF08AC2C
:10D5A000320029002000FFF706FF3B0007CC07C32D
:10D5B00022681A604346049303965B4602935346DF
:10D5C0000193199B0093189B069A01210CA8FFF761
:10D5D00039FADDE72800FFF7CBFE002812D00799C3
:10D5E0000220FFF7DDFEA042BED80CAF08AC32002F
:10D5F00029002000FFF730FF3B0007CC07C322685B
:10D600001A60D7E7A742AFD800242B5D3355013409
:10D61000A742FAD10CAD04232B7021000420FEF7A1
:10D62000DAFF0F90431C9FD00D940E96C2E70000C6
:10D6300003B404490D604E608F604046C86003BC6F
:10D64000704700000815012010B5884208D2002A52
:10D6500005D00023CC5CC45401339A42FAD110BDEA
:10D66000013AFCD48B5C8354013AFBD5F7E7002ADE
:10D6700005D003001218197001339342FBD1704793
:10D68000024B18688007C00F7047C04600C00640B4
:10D69000EFF3108072B6034A1368002BFCD0BFF37F
:10D6A0005F8F70472C0100D0BFF35F8F024B0022C9
:10D6B0001A6080F3108870472C0100D0F8B505007F
:10D6C0000C001600FFF7E4FFE308EF18EA5C0721FF
:10D6D000214001238B40134204D113433B70FFF7D9
:10D6E000E3FFF8BD2100300001F070F9044B002188
:10D6F000044ABFF35F8F02C39342FAD17047C0461A
:10D70000000100D0800100D0064B1878431CDBB22A
:10D71000172B02D8034A137002E0024B10221A7032
:10D720007047C046D0120120074B9B681030800024
:10D73000C150BFF35F8FBFF35F8F044B00211960AF
:10D7400082F310887047C04600ED00E0240100D04D
:10D75000044B1B680122824013405A1E9341D8B2E9
:10D760007047C04600E100E0002904D0034B186078
:10D77000034B18607047034B1860FBE780E200E042
:10D7800000E100E080E100E010B5012383401800D3
:10D79000FFF7EAFF10BD0000024B9B6810308000CD
:10D7A000C058704700ED00E070B504000D00EFF3C5
:10D7B000108672B60B4A1368002BFCD0BFF35F8F44
:10D7C0002000FFF7E9FF084B984201D0A84205D19D
:10D7D000320029002000FFF7A7FF70BD01F00EF90D
:10D7E000F6E7C046240100D0CDC10020F0B5D646F2
:10D7F0004F464646C0B582B004000D00EFF31088D6
:10D8000072B6584A1368002BFCD0BFF35F8F564B9B
:10D810009B6827001037BA00D658544B9E4207D059
:10D82000AE4200D181E00196514BF31A2F2B0AD959
:10D83000424631002000FFF777FF02B0E0BCBA4655
:10D84000B146A846F0BD2000FFF782FF81460021C7
:10D850002000FFF799FFBFF35F8FEFF305839A4630
:10D86000002B03D09F4201D001F0C8F80123019F93
:10D870009F43BB689D425AD03D4900E017000620F7
:10D880003856002856DB43001A1892005218936845
:10D89000AB42F3D106215156002930DB4B005B1817
:10D8A0009800334B1B1898689060D879D071062087
:10D8B000185690719B797F2B1FD82D4D480040182A
:10D8C0008000281880884005031548004018800013
:10D8D0001B1808335B199B1A083B1B055B0DE020E6
:10D8E0000002034393804B005B189B00204AD3182F
:10D8F000204A1078987111701EE01F4BF2E75346D2
:10D90000002B22D1002F0ED0FF23BB711B4BBB80FD
:10D9100018490B7893711A4B1548121A5241534308
:10D920001B0D0B7008E0114EF2E7104E80E73A0035
:10D930000027AFE79D4204D049462000FFF724FFAF
:10D9400076E73A005346002BDED00E4B9B1A083B7D
:10D9500058085B025B0D0C490B4393800B4B034350
:10D96000D380E9E7240100D000ED00E0CDC1002024
:10D97000D41201204517012001BD000001BDFFFFA9
:10D98000AAAA00000E13012000F0FFFF00F8FFFF1D
:10D9900070B501240443EFF30582EFF3108C72B6E7
:10D9A0001C490B68002BFCD0BFF35F8F1A4B0100A2
:10D9B0001A4D491B49414B431B0D59B2184B9D68E9
:10D9C0009300EA58A24215D0144A002306241457A3
:10D9D0008C4214D001330C32042BF7D1114B1A783E
:10D9E00082711970BFF35F8F0A4B00221A608CF3AB
:10D9F000108870BD0A4A92680B4CD450EEE7074D70
:10DA00005A00D418A4002C19FF26A671074BA38036
:10DA1000E4E7C046240100D0AAAA0000D4120120E5
:10DA200000ED00E045170120CDC1002001BDFFFF42
:10DA3000084B094A1360094A1360094A1360094AEE
:10DA40001360094A1360094A1360094A1360094ABE
:10DA5000136070478080808000E400E004E400E010
:10DA600008E400E00CE400E010E400E014E400E06E
:10DA700018E400E01CE400E0024B9C46614489008D
:10DA8000016070474000003410B50400FFF73CFE11
:10DA900001002000FFF7F0FFFF232371BFF35F8F2A
:10DAA00010BD10B50400FFF72FFE01002000FFF7A6
:10DAB000E3FFFF23237100236371BFF35F8F10BD6A
:10DAC00030B50468480040180338251853009B18E7
:10DAD000033BE3189970215C002901D12A7030BD05
:10DAE00059702A70FBE7000083680C488446614443
:10DAF00009015918624412019A18012053689C4682
:10DB00004B689C4503D84B689C4502D00020C0B2AE
:10DB1000704712680B689A42F9D8F7E7FFFFFF0FCA
:10DB200070B505000C00080000F052FC0949200007
:10DB300000F0A6FBFFF7E8FD074B9C466044800021
:10DB400068602C75D0231B061B686B75A400034B03
:10DB5000E55070BD71DC0020400000341C15012030
:10DB60000A4B1A68EFF3108172B61368002BFCD0D1
:10DB7000BFF35F8F054B1B68BFF35F8F00221A60F6
:10DB800081F3108840BF002000217047301701202A
:10DB9000F0B5D64600B582B00500009201930AABFD
:10DBA0001C780BAB1F78002C31D0304BE3181B01D5
:10DBB000AA6894466344009A1A60019A5A60089AC7
:10DBC0009A60099ADA602E6863001B19033B326879
:10DBD0009446634400229A705A701A70737B9A4676
:10DBE000002B2ED022005146B06873689847002859
:10DBF00022D0220051463000FFF762FF5346737374
:10DC0000A2451FD0200002B080BCBA46F0BD026819
:10DC1000907B0028F7D043001B18033B11688C460B
:10DC2000634459789173002900D1D17300229A700E
:10DC30005A701A700400B8E7524621003000FFF70E
:10DC40003FFF7473287D009A019B00F061FB061E64
:10DC500001D0002F05D020000C9B002BD3D01E70CC
:10DC6000D1E72868210000F083FCF4E7FFFFFF0FF5
:10DC7000F0B5DE4657464E464546E0B58DB00B90B2
:10DC800000239B468200704BD3589A460023994646
:10DC900054462BE0002901D1002848D14946069876
:10DCA00000F05CFC2A686B6806920793AB680A93E5
:10DCB000ED68E3685344013B1B789B461B0203431A
:10DCC0002361484605E04D460023069307930A95D5
:10DCD00048466368BFF35F8F4A461A6088F310882E
:10DCE0000A9E002E2CD1002800D1A5E000F0AAFA4F
:10DCF00006000F006268EFF3108872B61368002BFD
:10DD0000FCD0BFF35F8F236806935B7B9A46002BA2
:10DD1000D9D04E4D55442D01A3689C4665442A68D0
:10DD20006B6810001900801BB9410029B2DD0B9807
:10DD300000F0EEFA4D460023069307930A95C8E7D4
:10DD40005B461802534618432900B04708900991D2
:10DD50006268EFF3108872B647461368002BFCD058
:10DD60000A96B846BFF35F8F0899099A002A28DB04
:10DD7000099B002B40DD2369002B44D12368D97B0C
:10DD8000002907D04A00521819688C466244033AA9
:10DD9000514651709A7B002A01D152469A735246DD
:10DDA000DA735346013BE168CA5C0132CA544B4600
:10DDB00023616368BFF35F8F4A461A6088F3108857
:10DDC00094E72369002BD9D0069E079F761A9741C6
:10DDD00032003B1E0CDB4946049101210391514660
:10DDE000029101950A9900912000FFF7D1FEDEE72C
:10DDF00001225242164BEEE7089A099B002BBDD137
:10DE0000002AB8D1BAE700F01DFA089A099B121847
:10DE10004B41002B0CDB49460491012103915146F3
:10DE2000029101950A9900912000FFF7B1FEBEE72B
:10DE300001225242064BEEE70DB0F0BCBB46B246A3
:10DE4000A946A046F0BDC0461C150120FFFFFF0FEC
:10DE5000FFFFFF7F10B50C4B5B68002B04D00A213D
:10DE60000A48FFF709FE10BD074C2300084A10219D
:10DE7000206800F019FB032000F0D8F903212000EE
:10DE8000FFF74EFEEBE7C0461C13012030170120C0
:10DE9000E9DA0020F0B5DE4657464E464546E0B585
:10DEA0008BB0814614001D00149B9B46159B9A461F
:10DEB00016AB1B7807931F2302AA944663440022E3
:10DEC0001A700023984625E0012464422F4D21E07A
:10DED00000F0B8F934003D0024184D41002D19DA46
:10DEE00001246442294D15E00120404245E0002014
:10DEF00043E0079B002B47D051464046D8470600D9
:10DF00000F0003000B43F2D00029E1DAA41BBD414E
:10DF1000002DD9DB4B465A68EFF3108672B61368B2
:10DF2000002BFCD0BFF35F8F1F2302AA94466344EB
:10DF30000493434603930293534601935B46009335
:10DF400022002B004846FFF723FE0200031E04D0E8
:10DF50004B46DB681B18013B1B7849464968BFF3F9
:10DF60005F8F47460F6086F31088002ABCD002AA54
:10DF7000D27F002ABDD11B0218430BB0F0BCBB46B8
:10DF8000B246A946A046F0BD0020F6E7FFFFFF7F9E
:10DF900070B504004268EFF3108572B61368002B69
:10DFA000FCD0BFF35F8FCEB22268537BB34211D057
:10DFB000FF230B405800C318106884466344033B9A
:10DFC0009B78002B06D1002023698B420ED10023C1
:10DFD00023610BE0FF230B40E06884466344013B70
:10DFE000090A1B78C9B200208B4207D06368BFF3CF
:10DFF0005F8F00221A6085F3108870BD3100100019
:10E0000000F0B6FAF2E70000F0B5D6464F464646B5
:10E01000C0B584B006000F0006246442E517A419B9
:10E020007D418D4202D803D1844201D900240025CC
:10E0300000F008F922002B00121A8B41002B02DCA1
:10E0400030D1002A2ED00023029301931A4B009363
:10E0500022002B001948FFF71DFF002822DBAC46E9
:10E060001748184B9A4699460023984612E05346A3
:10E070001A68EFF3108172B61368002BFCD0BFF35F
:10E080005F8F4B461B68BFF35F8F42461A6081F378
:10E09000108820BF436A9C45E9D8826AA24201D217
:10E0A0009C45E4D03000390000F0D6F804B0E0BC64
:10E0B000BA46B146A846F0BD61DB00201C13012022
:10E0C000004005403017012070B504000D0000F03D
:10E0D000B9F800196941002902DBFFF795FF70BD0F
:10E0E000012040420049F8E7FFFFFF7F10B5FA2208
:10E0F00092000023002102F013FCFFF7E5FF10BDA2
:10E1000070B584B006000D00EFF30583002B0CD032
:10E110001C4B596A00208D4220D89B6A0130B342C3
:10E120001CD2681A431E984118E000230293019301
:10E13000154B009302000B001448FFF7ABFE011EC5
:10E140000EDC104B586A0024854206D89B6A0134C5
:10E15000B34202D22C1A631E9C41200004B070BD51
:10E1600020BF0A48FFF714FF064B586A0024854277
:10E1700006D89B6A0134B34202D22C1A631E9C411A
:10E180002000EBE70040054061DB00201C1301206C
:10E19000F0B5C64600B5EFF3058318001038EFF36D
:10E1A000108C72B61A490A68002AFCD0BFF35F8F40
:10E1B00001242200824017494A6317490A6017491F
:10E1C0000D782E00C640002134420CD011494C6A13
:10E1D0008100134E89598C4212D38300114959583A
:10E1E00095430E4B1D70BFF35F8F094B00221A60E1
:10E1F0008CF31088002900D0884780BCB846F0BD59
:10E200009B00094A904643441A681A600021EAE7D5
:10E21000280100D0004005403C7005404617012011
:10E220003417012088140120D03F054010B50100AB
:10E23000024A0348FFF742FA10BDC046D80F01203A
:10E2400044170120034B596A986A0A00596A8A42A6
:10E25000FAD1704700400540084B5B6A994203D9E8
:10E26000064A536A9942FCD8994206D1034B9A6AEE
:10E27000824202D25A6A9142F9D07047004005406A
:10E2800070B504000D00EFF3108672B61B4A1368D8
:10E29000002BFCD0BFF35F8F002D1CD02000FFF7B8
:10E2A0007BFA174B83420BD019002000FFF77CFA52
:10E2B00001212000FFF768FA0123A340114A1360EF
:10E2C000A400114BE550BFF35F8F0C4B00221A6086
:10E2D00086F3108870BDA2000B4B0021D1500B4972
:10E2E0000122A2400B7893430B7005492000FFF7F1
:10E2F0007DFA00212000FFF747FAE4E7280100D06B
:10E3000091E1002038600540881401204617012063
:10E31000F0B5D6464F464646C0B5050016001C006F
:10E32000FFF790FF8C4202D846D1864244D9EFF3E2
:10E33000108A72B6214A1368002BFCD0BFF35F8F9E
:10E340001F4B1A7891460127AF403A43D2B290460C
:10E350001A701C4B5F632A1D9200D650AA001A49FE
:10E3600054501B6A00203B420BD1BFF35F8F134B0D
:10E3700000221A608AF31088E0BCBA46B146A8466B
:10E38000F0BDFFF75FFF8C4212D801D186420FD853
:10E39000C8450FD00B4B1F625F631F200540012350
:10E3A000AB400A4A1360064B4A461A701E38DCE737
:10E3B0000020DAE70120D8E70120DDE7280100D0BE
:10E3C00046170120004005403417012080E200E09C
:10E3D000EFF3108C72B60B4A1368002BFCD0BFF31E
:10E3E0005F8F01238340084A136208490A789A43E1
:10E3F0000A70BFF35F8F034B00221A608CF3108802
:10E400007047C046280100D0004005404617012053
:10E4100030B50468480040180338251853009B188D
:10E42000033BE3189970215C002901D12A7030BDAB
:10E4300059702A70FBE770B506000D00140010003B
:10E4400000290DD00800002A0AD0B06873689847E8
:10E45000002806D0220029003000FFF7D9FF28004D
:10E4600070BD2A0021003000FFF7D2FF2000F7E73F
:10E470000023437301338373027BC273012A0BD9D8
:10E480005A00D218033A01688C4662440133DBB269
:10E490005370027B9342F3D3036851008A189A1891
:10E4A000033A00235370704710B5017342608360D4
:10E4B000FFF7DEFF10BD70B50400081E07D021680D
:10E4C00043001B18033BCA185278002A00D170BDC4
:10E4D0005500AD18033D49194E7800254D7021684F
:10E4E0008C4663445D7001002000FFF7A4FF050027
:10E4F00031002000FFF7DFFF020029002000FFF7B6
:10E500009AFFE4E7F8B504000E0017004D006D18FF
:10E51000033D0368595DFFF7CEFF0300002F0ED0C7
:10E52000E17B002906D04A00521821688C466244DB
:10E53000033A5670A27B002A00D1A673E673002B23
:10E5400007D043001B18226894466344033B002213
:10E550009A7023685D1900236B70F8BD70B50400D4
:10E560000A00457B2900FFF7CDFF6073280070BDCE
:10E5700070B50400002934D0437B8B4218D0056865
:10E5800048004018033828188278002A2BD05300FE
:10E590009B18033BEE18EA5C8A420ED053009B188E
:10E5A000033BEB185A788A4218D0002AF6D106E0CD
:10E5B0000121FFF7D3FF01200FE0437833700023E0
:10E5C0008370437001222000FFF79CFF0200617BF3
:10E5D0002000FFF730FF6073012070BD42785A7051
:10E5E000EDE70020F9E70020F7E70000F8B5DE4688
:10E5F00057464E464546E0B50500884616000A9A3D
:10E600009A4200D971E01A0E91461F020A9A00231D
:10E610003800494601F0C2FB82466C006419A40030
:10E62000334B9C4664446368834200D260602B1F76
:10E63000DBB29B46012B35D9C0239B0123438022AB
:10E6400012011A60AB002B4A9958002905D0506975
:10E6500001F066FB01300138FDD12268760172407D
:10E66000E0261640210080235B0123431E605A46AA
:10E67000012A2DD980239B010B43802212011A60AD
:10E6800053466360AD00524600233800494601F00E
:10E6900085FB184B58510120F0BCBB46B246A94639
:10E6A000A046F8BD4346012BC6D1C0239B0123439E
:10E6B00003221A60023AA3681A42FCD0226876014B
:10E6C0005640E0231E40210080235B0123431E604F
:10E6D000206842465040032202401A60012243460D
:10E6E0009A40A3681A42FCD0C4E70020D4E7C04691
:10E6F000008000409814012030B583B00C2000F059
:10E70000D1F8FEF7BDFF00280BD02E4B19002831A1
:10E710002D4A04C38B42FCD12A4B2C4A5A6203B0C7
:10E7200030BD2B4B00229A6700F0C4F8294B012220
:10E730001A60274A536C012BFCD1274B03221A6025
:10E74000234A936B012BFCD1013300930433234AFA
:10E750000121234800F04EF805230093214A0121AE
:10E76000214800F047F8214B0093002202210420A9
:10E77000FFF73CFF1E4D00952B00002201210520D4
:10E78000FFF734FF104C00942300002200210720E3
:10E79000FFF72CFF00942300002200210820FFF740
:10E7A00025FF0A4B00932300002200210920FFF7D8
:10E7B0001DFF00952B00002200210620FFF716FF09
:10E7C000ADE7C04698140120006CDC021BB70000C6
:10E7D000008000403CB0004030B00040002F68593D
:10E7E00000800240008C864700C00240001BB7003A
:10E7F00040597307F0B5C64600B504000E009046B8
:10E800001F000C2001F08CFA4101091A8D01691AD0
:10E81000C90009188901404601F082FA3F04069BAD
:10E820001A0317432368002B22DB1A4BE2185342CA
:10E830005A41120380235B019C466244164B1A60C6
:10E84000164B1A60164DAB6811009943FBD1266038
:10E85000A060231DC02292011A4321231360236864
:10E86000002BFCDAE7600823136080BCB846F0BDDB
:10E8700022683F231340B342D7D1A3681B051B0D69
:10E880008342D2D1E368EE22D2021340BB42CCD104
:10E89000EBE7C0460040FDBF00E0004000F0004054
:10E8A00000C0004080239B000343014AD3627047AD
:10E8B00000800540064BAA2212011A602F22DA605E
:10E8C000044B054A1A60024A5368002BFCDA704771
:10E8D000004002400060024000B0FA0070B52B4BCF
:10E8E0002B4A1A602B4B2C4A1A602C498B68140057
:10E8F0009C43FBD12A4A2B4B9A420AD215001E0098
:10E90000013EB61AB60808CD984723000134B34239
:10E91000F9D1FFF7F1FE1F4B234A1A601F4A936893
:10E92000DB43DB01DD09002BF9D1204B40229A6744
:10E930005A671A67DA661E4A1E4B9A4210D21400B2
:10E940001E0005E02000FFF7ACF80834B44207D2FF
:10E950002368002BF6D12000FFF796F80834F5E77E
:10E96000FEF7C4FEFFF764F8FFF774FA124A134B80
:10E970009A420AD214001E00013EB61AB60808CC0C
:10E9800098472B0001359E42F9D170BD00E0004050
:10E99000BFCDFBFE00F00040FE7F3C0000C0004009
:10E9A0007813012088130120FFFFFF0100F00140D0
:10E9B000701301207813012088130120881301208F
:10E9C00000BEFDE710B5FFF7FBFF00000FB400B578
:10E9D00083B0084802F028F9049B002B07D005A952
:10E9E0000191180001F02EF9034802F01DF90120F1
:10E9F000FFF7E6FFFC0F01200C10012010B50148C5
:10EA0000FFF7E4FF10100120704710B50B0000283D
:10EA100002D049681B68984710BDF0B5DE465746DE
:10EA20004E464546E0B583B006000F000192984679
:10EA30000C9B9B460D9B9A4691460F9B9B0712D1C0
:10EA40000E9B9A450FD20E9B52469B1A019CA146E3
:10EA500099444D4622000134434639002020B047F6
:10EA6000A542F7D1A94654464D46002C10D03B0094
:10EA700037004E46994653469D192A1B013C5B467A
:10EA8000185D43464946B847002CF4D13E004F4636
:10EA90000F9B9B070ED5019BEC1A0E9BA34209D935
:10EAA00099462A004346013539002020B0470134F9
:10EAB0004C45F6D3280003B0F0BCBB46B246A9468D
:10EAC000A046F0BDF0B5CE46474680B585B0944629
:10EAD00098460D9C0EAB1B789946109F119D129E77
:10EAE000B30730D4002D0ED0F30700D481E04B469D
:10EAF000002B02D10C33334200D0013DBC4211D275
:10EB00001F2C04D90EE0BC420AD21F2C08D80C9B43
:10EB10005A1E302301341355A74201D9202CF9D1B4
:10EB2000F30710D5A5420ED90C9B5A1E30231F2C7B
:10EB300005D801341355AC4204D0202CF9D1F3068A
:10EB400003D41FE02C00F30613D5730505D4002C65
:10EB500003D0A74224D0AC4222D00F9B102B2AD046
:10EB60000F9B022B30D01F2C0CD830230C9A13553E
:10EB700001341F2C06D84B46002B2CD02D230C9A89
:10EB8000135501340396029501940C9B0093434660
:10EB90006246FFF742FF05B0C0BCB946B046F0BDC3
:10EBA000631E012C05D00F9A023C102A03D01C00D2
:10EBB000D6E71C00D1E7B30621D41F2CD3D8782385
:10EBC0000C9A13550134CEE71F2CDBD860330C9A16
:10EBD00013550134C7E7730704D52B230C9A13553B
:10EBE0000134CFE73307CDD520230C9A13550134D8
:10EBF000C8E7BC42A7D21F2C00D888E7A3E71F2C88
:10EC0000C0D858230C9A13550134ACE7F0B5DE4652
:10EC100057464E464546E0B593B008900991914657
:10EC20009A461CAB20CB1B789B461E9E002D0AD11A
:10EC30001023219A9A438023DB0021990B402192D3
:10EC40002C00002B26D16123219A920600D5412366
:10EC5000DBB200240A225242904698441F2702AB9E
:10EC60009C4667440CE03031C9B20134395531005B
:10EC7000280001F055F8B5420CD3202C0AD005002D
:10EC80003100280001F04CF8C9B20929EBD9414400
:10EC9000C9B2EAE7219B0693209B05931F9B04932F
:10ECA00003965B46029301940AAB009353464A468F
:10ECB00009990898FFF706FF13B0F0BCBB46B246AF
:10ECC000A946A046F0BDF0B5DE4657464E4645463D
:10ECD000E0B595B0804609910A920B931E9F1F9C48
:10ECE00020AB1B789B46229B9946239E3B002343E7
:10ECF00007D11033269A9A431300269A52052FD42F
:10ED000026936123269A920600D54123DBB2002583
:10ED10000A22524292469A4413E03032D2B201356E
:10ED200004AB1F215B185A554A46330038002100B6
:10ED300001F034F8A64215D80FD0202D12D00700CC
:10ED40000C004A4633003800210001F027F8D2B207
:10ED5000092AE2D95244D2B2E1E7B945EDD901E03E
:10ED600026930025269B0693259B0593249B0493BD
:10ED70004B4603935B46029301950CAB00930B9BB0
:10ED80000A9A09994046FFF79DFE15B0F0BCBB46B4
:10ED9000B246A946A046F0BDF0B5DE4657464E46FF
:10EDA0004546E0B591B080468B46099299461A9C3B
:10EDB00007941B9D089522002B002000290001F0DC
:10EDC00078FA002800D0FAE001225242D94B200004
:10EDD000290001F069FA002800D0F0E00122524237
:10EDE000D54B2000290001F049FA002800D0E6E0C8
:10EDF00000220023079F3800089E310001F03EFAF0
:10EE0000002800D0F4E0079C089D8023DB001E9AB8
:10EE10001A400D921E9A1A4201D106231C930A949D
:10EE20000B9523002B4300D17CE16800400DC34BC0
:10EE30009C46604401F050FAC14AC24B01F0DBF934
:10EE4000C14AC24B01F0B0F906000F002B031B0BA7
:10EE50000A98BF4A1A4311000022BE4B01F09BF9E9
:10EE6000BD4ABE4B01F0C7F902000B00300039006B
:10EE700001F09AF901F048FA824601F02DFA0600F5
:10EE80000F00B74AB74B01F0B6F90022B64B01F0BC
:10EE90008BF901F039FA0C90B44AB54B30003900C7
:10EEA00001F0A9F906000F000C9801F015FAB14A1B
:10EEB000B14B01F0A0F902000B003000390001F065
:10EEC0006AF906000F0002000B0001F094F90A90A5
:10EED0000B9132003B003000390001F065F90E90D3
:10EEE0000F910022A54B0A980B9901F066F90022B8
:10EEF000A34B01F059F902000B000A980B9901F09D
:10EF00005CF900229F4B01F04FF902000B000A98B8
:10EF10000B9901F052F90A900B9132003B0000204E
:10EF20008021C90501F037F902000B000A980B99FE
:10EF300001F03AF902000B000E980F9901F03DF92B
:10EF40000022834B01F030F90C9B8F4A94466344B6
:10EF500000221B0501F04FF906000F0022002B00D4
:10EF600001F0A2F900284AD10A960B97C62753460A
:10EF700063339F42BF417F4204371E9B1B055FD511
:10EF80000A9A0B9B1100194348D0804A804B2000FD
:10EF9000290001F081F9002807D000227D4B2000D4
:10EFA000290001F06BF9002838D11C9B002B47D0B9
:10EFB0000D9B5A1E93411C9AD31A1C9340E01E9B32
:10EFC00004931D9B03931C9B0293079A089B00923A
:10EFD00001934B46099A5946404600F0DFF8060077
:10EFE000300011B0F0BCBB46B246A946A046F0BD09
:10EFF0003C0080231B069C466644350005E7012340
:10F000005B429C46E24400225D4B3000390001F037
:10F01000D4F80A900B91A9E700239A461C9B53450C
:10F0200004DD5246981A431E1C9301E000231C93F2
:10F030008023DB001E9A1A431E92002700239A4663
:10F0400000261D9B9F4200D2DE1B02231E9A1A40FF
:10F050000C921E9A134203D07B427B415B421E40BE
:10F060005346002B07D00A9A0B9B2000290001F081
:10F07000A4F804000D00002200230798089901F06D
:10F08000FDF8002849D1444B1E9A1340049303967F
:10F090001C9B0293009401954B46099D2A005946FA
:10F0A000404600F07BF80600002F99D01E9B980682
:10F0B000C0171F2398436530741C4B4632005946D5
:10F0C000C04705230593013F0497002303930A33A8
:10F0D00002935346DB0F01935346D9175818484003
:10F0E00000904B46220059464046FFF78FFD060030
:10F0F0000C9B002B00D173E7471B1D9BBB4200D824
:10F100006EE745461C0032004B460136594620202A
:10F11000A8470137A742F6D362E7802109066B189A
:10F120001D00B0E71E9B1B0500D575E704270023D3
:10F130009A4685E7FFFFEF7FFFFFEFFF01FCFFFF30
:10F14000FB799F501344D33FB3C8608B288AC63FD6
:10F150000000F03F0000F83F61436F63A787D23F94
:10F1600071A379094F930A400000E03F1655B5BBE3
:10F17000B16B0240EF39FAFE422EE63F00002C4010
:10F180000000244000001840FF0300002D431CEB4A
:10F19000E2361A3F80842E41FFF7FFFFF0B5DE46CE
:10F1A00057464E464546E0B597B0824607910892CD
:10F1B0000993209C219D22002B002000290001F0B2
:10F1C00078F8002800D0ADE001225242CA4B20005E
:10F1D000290001F053F8002800D0B2E00122524289
:10F1E000C64B2000290001F05FF8002800D0B7E0EE
:10F1F0000022C34B2000290001F056F8002800D05F
:10F20000C3E00022BF4B2000290001F037F800289E
:10F2100000D0BAE0002200232000290001F02EF8DF
:10F22000002800D0C0E0002398468023DB00249E05
:10F230001E400627249A1A4217D0229B1F00002640
:10F24000092B12D90EAB30221A70229B5F1E093B8C
:10F250000126172108AA944661443022B34204D003
:10F2600001368A55013F202EF8D12000290001F0F7
:10F270004BF88146FA00A44B9B181A685B680A9207
:10F280000B9301F029F802000B002000290000F088
:10F2900082FF0A9A0B9B00F0AEFF0C900D9101F0DB
:10F2A00057F8834601F014F802000B000C980D99F2
:10F2B00000F071FF0C900D910022944B00F0F4FFD0
:10F2C00000287CD001239C46E344584601F000F816
:10F2D00002000B000A980B9900F0D6FF002804D01A
:10F2E00001239C46E14400239B46002F78D05D46D5
:10F2F0001F2E00D9AAE07B1E9B460136172308AAC1
:10F3000094466344F4180A21280000F009FD3031C6
:10F3100021700A21280000F003FD092D7ED95F46E7
:10F320000500E5E7249B0393239B029303230193AA
:10F33000774B0093099B089A07995046FFF76DFB9E
:10F34000D0E0249B0393239B029304230193714BEE
:10F350000093099B089A07995046FFF75EFBC1E0AE
:10F36000249B5B070ED46C4B0322249903912399B1
:10F37000029101920093099B089A07995046FFF762
:10F380004CFBAFE0654B0422EFE7249B0493239BE7
:10F390000393229B029300940195099B089A079975
:10F3A0005046FFF7F9FC9DE022002B0000200021D1
:10F3B00000F0F1FE04000D000123984635E700221D
:10F3C000524B0C980D9900F059FF00288DD15B46E7
:10F3D000002B01D0DB0788D501239C46E34484E75A
:10F3E000484600F079FF02000B002000290000F0E1
:10F3F000D2FE04000D000022444B00F03FFF002825
:10F4000024D10022414B2000290000F04DFF0028AC
:10F410001CD101234A461340994417E05C461F2E35
:10F4200014D83200172108AB9C4661443020002CD0
:10F4300008D001328854202A5BD0D3439B19DB19B2
:10F44000002BF6D1561C0EAB2E2199544C461F2E84
:10F4500036D80136172308AA94466344F5180A21C2
:10F46000200000F035FC303129700A21200000F026
:10F470002FFC041EEBD10323249A1340012B09D047
:10F480001F2E22D84346002B0AD00EAB2D229A55B0
:10F4900001361AE0239B002BF2D044E0239EEFE7D5
:10F4A000249B5B0704D50EAB2B229A5501360CE04A
:10F4B000249B1B0709D50EAB20229A55013604E088
:10F4C0000323249A1340012B2AD0249B0393239BCC
:10F4D000029301960EAB0093099B089A0799504638
:10F4E000FFF79BFA17B0F0BCBB46B246A946A04650
:10F4F000F0BD1600AAE7C046FFFFEFFFFFFFEF7F5A
:10F5000065CDCD4165CDCDC1181201200000E03F91
:10F51000281001202C100120241001201C10012093
:10F52000239B002BD1D04346002B03D10C33249ACC
:10F53000134202D0239B013B2393239B9E429FD2E5
:10F54000172208AB9C46624430231F2EBDD8239956
:10F55000013693558E42A1D0202EF9D1B5E7C04691
:10F5600010B5002800D110BD01F040FBFBE7000002
:10F57000F0B5DE4657464E464546E0B595B00B9091
:10F58000884691461C001E9B9A46C74BC74A1A6084
:10F59000002907D020780023002800D1E4E21F00D2
:10F5A000C346E6E0C24B0B93F4E701340026042384
:10F5B0009846023B9C46012016E00B00303B092B8D
:10F5C00029D900242A2935D02B78002290462E2BC9
:10F5D0003BD02B78683BDAB2122A7DD89300B54A2B
:10F5E000D3589F4606430134250021780B00203B69
:10F5F000DAB2102AE1D89300AF4AD3589F46634647
:10F600001E43F0E743461E43EDE708231E43EAE7A7
:10F6100010231E43E7E700240B000135A100091960
:10F620004900C91830390C002B781A00303A092AE1
:10F63000F3D9C9E7534604CB141E02DB01359A46C1
:10F64000C2E728390E435442F8E78023DB001E430B
:10F65000691C6B781A00303A092A05D92A2B14D074
:10F660000D0000239846B4E70022180001319300F2
:10F670009B185B001B18303B1A0008780300303BD6
:10F68000092BF3D990460D00A3E7534604CB9046CF
:10F69000D243D21741461140884602359A4698E730
:10F6A0006B786C2B04D080235B001E43013513E084
:10F6B000C0239B001E4302350EE06B78682B03D0FD
:10F6C00080231E43013507E0C0231E43023503E0BB
:10F6D00080235B001E43013528780300253BDAB206
:10F6E000532A00D937E29300744AD3589F468023A7
:10F6F0009B001E430135EFE780235B001E4301356D
:10F70000EAE7782800D186E2582800D143E26F2842
:10F7100000D182E2622800D181E2102332009A43B4
:10F720001300692831D1720500D56FE20A229905CC
:10F7300035D4D90560D4590674D5504640C8FF2148
:10F740003140824605930494434603930292CB0FC3
:10F750000193CB17C918594000914B463A005946BE
:10F760000B98FFF753FA07006C1C2078002800D193
:10F77000FDE1252800D118E77D1C4B463A0059468B
:10F780000B9EB04701342F00EFE7642804D17205C7
:10F7900000D536E20A22CAE716000A22FEE15146E7
:10F7A000073107208143013082468A44086849684E
:10F7B0000893079443460693049200230593CB0FC6
:10F7C0000293CB1710931193109B119C1A00424087
:10F7D000129222004A4013921299139AC91AA24116
:10F7E00013000A00009201934B463A0059460B98C9
:10F7F000FFF769FA0700B7E7564602CE059304946F
:10F80000434603930292CB0F0193CB17C91859407B
:10F8100000914B463A0059460B98FFF7F7F907005D
:10F82000B246A1E7190604D5504602C809B282467D
:10F8300088E7504602C8824684E7514607310720D0
:10F84000814308930794434606930492002305934B
:10F8500002930CC98A46009201934B463A005946DE
:10F860000B98FFF730FA07007EE75646059304949D
:10F870004346039302920023019308CE00934B4624
:10F880003A0059460B98FFF7C1F90700B2466BE7FB
:10F89000190605D5504602C80904090C82469AE1AA
:10F8A000504602C8824696E11815012071F50020E5
:10F8B00009EA00203410012080100120C41001202A
:10F8C000462816D053460733072293439A46049698
:10F8D00003944346029351460CC98A460092019311
:10F8E0004B463A0059460B98FFF758FC07006C1C32
:10F8F0003BE720231E43E5E7202302009A43472AE3
:10F9000002D0452809D106E080231B011E430223B3
:10F910009843452801D120231E435346073307222D
:10F9200093439A46049603944346029351460CC966
:10F930008A46009201934B463A0059460B98FFF7CE
:10F940002BFA07006C1C10E7B30728D57B1C0C931F
:10F95000534601CB9A46C0B24B463A0059460B9EDD
:10F96000B047E3199846012C00D844E153460D9363
:10F970000C9EA2464446B8465F46AB460B9D3200FD
:10F9800001364B4639002020A847B442F7D15446EF
:10F990000D9B9A465D46BB4647463F191BE0012C2E
:10F9A00000D82AE17B1E1C19A8460B9E5D463A0032
:10F9B00001374B4629002020B047A742F7D1AB467C
:10F9C00045465646671C01CEC0B24B4622005946FA
:10F9D0000B9CA047B2466C1CC7E6534604CB0C9266
:10F9E0000E934146002901D1012149420C9B187810
:10F9F00000280DD0844608000C9901331A78002A9B
:10FA000005D0CA1A1218002AF7D1604600E06046F5
:10FA10000C9A991A0D918023DB0032001A4092460D
:10FA20001E4203D0414501D943460D9302231A00DB
:10FA300032400F9233420ED0002855D03A000C9B32
:10FA4000DF1B53460C935B46AB463900474688465E
:10FA50001D00A2462FE00D9A531C944200D8CEE020
:10FA6000E619B61A53460D93A2460B9C5B46AB466D
:10FA70001D003A0001374B4629002020A047B7421D
:10FA8000F7D154460D9B9A462B005D469B46631C5E
:10FA90000D9337000C9B18783E000028CED11DE056
:10FAA0001F00561C4B4629000B9CA0474346985DFF
:10FAB00000280CD032000C9B002BF2D07B1E002FB4
:10FAC000EED154462B005D469B46160003E054469B
:10FAD0002B005D469B460F9B002B04D16C1C0E9B9C
:10FAE0009A46370041E637000D9B9C420FD9E41936
:10FAF000E61AA8460B9C5D463A0001374B462900A2
:10FB00002020A047BE42F7D1AB464546E6E73E007F
:10FB1000E4E721231E430596193B049343460393D0
:10FB20001023029300230193524608CA9246009381
:10FB30004B463A0059460B98FFF768F807006C1CD3
:10FB400013E67E1C4B463A00594625200B9CA047E5
:10FB50006C1C370009E67E1C4B463A0059460B9C4C
:10FB6000A0476C1C370000E600239B4601E0D84606
:10FB7000BB465A46D94501D84B465A1E4B464146CC
:10FB800000200B9CA047584615B0F0BCBB46B246BF
:10FB9000A946A046F0BD20231E4310220C233100AD
:10FBA00099430B00710508D50D239E433300692846
:10FBB00000D1BCE5642800D1B9E5990500D53CE643
:10FBC000D90500D551E6590600D461E6504640C833
:10FBD000FF213140824605930494434603930292E9
:10FBE0000023019300914B463A0059460B98FFF7CA
:10FBF0000DF80700B8E50C9FEDE63C00E1E60D933B
:10FC000048E711239E4333000A2290E511239E43C7
:10FC100033000A228BE51022C0E70822BEE7022249
:10FC2000BCE7C04600B585B0029003910121009366
:10FC300013004A4202A90248FFF79AFC05B000BD32
:10FC40000BEA002010B584B00300084A1468002CA9
:10FC500008D001220091524203A90548A047012083
:10FC600004B010BD00F0E0FF0020F9E718150120F6
:10FC700061F5002001480421014B18475013012071
:10FC8000A5FC002010B501001423188804331B883C
:10FC9000984710BD10B501001623188802331B8841
:10FCA000984710BDF8B50F1E0FD00400002501269F
:10FCB0002068FFF7E7FF01C4431E98414042064019
:10FCC0000135AF42F4D13000F8BD0126FBE700005A
:10FCD000124A936F9B0815D29066D166002905D011
:10FCE000FFE7FFE7FFE7516F106F704704B5802112
:10FCF0000906C2175140002800D0C84300F0D2FFC7
:10FD0000002104BDF0B5146E556E576F166FFFF7E6
:10FD1000E3FF1466556657671667F0BD000000D014
:10FD2000114A936F9B0813D210665166002905D0C3
:10FD3000FFE7FFE7FFE7516F106F704704B500283A
:10FD400001D00020C04300F0ADFF002104BDC0463B
:10FD5000F0B5146E556E576F166FFFF7E5FF14661A
:10FD6000556657671667F0BD000000D094464A4AB2
:10FD7000926F9208624601D228E0C046F0B5464E26
:10FD8000346E756E776F366F00F020F89446424AF5
:10FD900014665566576716676246F0BD94463E4A3C
:10FDA000926F9208624601D254E0C046F0B53A4ED6
:10FDB000346E756E776F366F00F04CF89446364AA5
:10FDC00014665566576716676246F0BD002B24DB44
:10FDD00011D000293EDA00B5C943404200D10131BB
:10FDE00000F038F8C943404200D10131DB435242B0
:10FDF00000D1013300BD002AEBD1002801D1002938
:10FE000005D00020C90FC90701D1C043410800B582
:10FE100000F048FF0022002300BD00B500290ADBE6
:10FE2000DB43524200D1013300F014F8C943404291
:10FE300000D1013100BDC943404200D10131DB4353
:10FE4000524200D1013300F005F8DB43524200D1A9
:10FE5000013300BD002923D1002B18D1002A0CD07A
:10FE6000BC460D4F38667A6600210023FFE7FFE7A6
:10FE7000FFE77A6F386F67467047002801D0074860
:10FE8000010000B500F00EFF0022002300BD0200BB
:10FE90000B00002000217047000000D0FFFFFFFF93
:10FEA000002B00D0BFE0130C28D1002AE7D080B48B
:10FEB000114F39667A66FFE7FFE730B4040C7B6FB9
:10FEC000396F1B0423433B667A66FFE7FFE7FFE7D2
:10FED000C04684B27B6F3D6F1B0423433B667A664A
:10FEE000FFE7FFE7C04600232C042D0C7A6F386F24
:10FEF00000196941B0BC7047000000D0F0B59446CD
:10FF00000025140E01D112020835140F01D112017F
:10FF10000435940F01D192000235D40F01D1520063
:10FF20000135D40B0134254F7C66254C3C660E0C04
:10FF300093B2FFE7FFE7FFE73C6F6643360C7703BA
:10FF4000BE467343DF0B5B04C01AB941130C734305
:10FF5000DB18C91ACE086643360CB64493B2734315
:10FF60001F0F1B01C01AB941130C73431F0B1B0554
:10FF7000C01AB941860D8F023E436643360C092DE7
:10FF800024DB520A7243801A7703460A6643360C12
:10FF900016235B1BDE40DF40BF1964466643821BAD
:10FFA0007046043506330100D940A840C01900D37B
:10FFB0000131A24206D20023F0BD0000000000D0B3
:10FFC000FFFFFFFF121B0130F3D3F1E709277F1B6F
:10FFD000FE406446A2B27243801A00D20139220C5C
:10FFE0007243130C1204821A99410B0070460435B7
:10FFF00013370100F940A840801900D30131002BCC
:020000042001D9
:1000000002D1A2420AD2F0BD013000D30131121B4D
:10001000FAD2013BF8D1A24200D2F0BD013000D3A8
:100020000131121BF7E7F0B51C0C00D080E00CB4D6
:1000300000251C0A04D11B02160E33431202083598
:100040001C0B04D11B01160F3343120104359C0B0A
:1000500004D19B00960F334392000235DC0B02D192
:1000600092185B4101351C00971864410134464FDA
:100070007C66464C3C660E0CFFE7FFE7FFE7C04698
:100080003C6F6643360C7703BE4697B27743C01B7E
:1000900000D20139C01B00D201399FB27743C91B7E
:1000A000C91B170C77437E04FF0B801BB941CE0898
:1000B0006643360C0C2D33DBB644120B1F053A4356
:1000C0001B0B97B27743C01B00D201399FB2774315
:1000D000C91B170C77433E043F0C801BB941860DAA
:1000E0008F023E43664329277F1BFE400C3D774627
:1000F000AF40BF1930BCA2B2ABB272437343801A97
:100100009941220C7243130C1204801A9941020087
:100110000B000137001BA941F9D2781E0021F0BD68
:100120000C277F1BFE4077467F0BAF40FF19E0E7AF
:1001300000245D1C07D0144F7D663966FFE7FFE79A
:10014000FFE7FFE73C6F95B29EB265436643401BF5
:10015000B141150C1E0C6543664336042F0C3E431B
:100160002D04401BB141994204D202000B00200033
:100170000021F0BD01D19042F7D3801A994101349A
:100180009942F2D3F6E70000000000D0FFFFFFFF26
:1001900048404140484018B41B4B5B68FC46019303
:1001A00008BD04DFF303012018B4174B1B68FC469D
:1001B000019308BD00DFFD0301209446134A926FAE
:1001C000920809D2624618B40F4BDB68FC460193D3
:1001D00008BD0CDFB50601200C4AF0B5146E556E53
:1001E000576F166F6246FFF7EEFF084A14665566B2
:1001F00057671667F0BD18B4034B9B68FC46019324
:1002000008BD08DF590501202C150120000000D091
:10021000FFB550404240504059404B40594000E0EB
:10022000FFB5154F4C00640D03D0BC4204D10C0344
:1002300014D80020090D09055C00640D03D0BC42F0
:1002400004D11C030AD800221B0D1B0501264B40BC
:1002500009D44B4003D58B4200D18242FFBD994265
:10026000FCD19042FFBD0B43DB1803431343F5D091
:10027000C9434918FFBD0000FF07000000B5FFF7A4
:10028000CFFF804100BDC04600B5FFF7C9FF01D9CF
:10029000002000BD012000BD00B5FFF7B9FF01D966
:1002A000002000BD012000BD00B5FFF7B1FF804177
:1002B00000BD012040054A00121804D85A00121847
:1002C00001D80020704701207047002070470000CF
:1002D0000021002805D17047C1174840401AFAD0C4
:1002E000C90713B5064B1B6898470CBC441CA240B9
:1002F0001005120B0349091B09051943114310BDD1
:100300002C1601201F04000010B54C00620D802344
:10031000D218DB00D21A5B057E2A10DD9E3A13DA72
:10032000CC170903490819435242D14064000134F3
:100330001532202A05DAD0400843604310BD002062
:1003400010BD0846604310BDC80FC018013810BD6D
:1003500018B4044B5B6AFC46019308BD24DF6508B2
:10036000012000002C15012010B513231C78012C4E
:1003700010D007DD0D48FFF78DFC010080220C48EE
:1003800000F034FB022C0CDD0A48FFF77BFC0A4B23
:10039000186010BD064B19008031084A04C38B4217
:1003A000FCD1034B054A9A64EEE7C0465344000073
:1003B0002C1501204C3300002C160120C103012014
:1003C00007B5604601880A0A0230DF2AFAD1C9B2AD
:1003D000820804D3028840880004104300E00068CB
:1003E000014A5050039007BD2C1501200FB403BCE7
:1003F0000CBCF0B50124E407634000E0F0B50C0D3F
:10040000CF0F661E3605891B640503D3C9434042DE
:1004100000D30131640D03D0661CF60A07D0E41B3B
:1004200000207F00791C89078912803C24031D0D60
:10043000DF0F6E1E36059B1B6D0503D3DB43524257
:1004400000D301336D0D03D06E1CF60A07D0ED1BEF
:1004500000227F007B1C9B079B12803D2D032F1BDE
:10046000661B58D4A446202E46DA20371400BC4020
:100470001D00BD40F24033412A4380185941CB0F43
:1004800005D0C943C04300226442504151416246F5
:100490004D0D28D10D0D07D100281FD02419404142
:1004A0004941013A0D0DF9D0640006D3013000D363
:1004B0000131002C01D140084000013A0BD4941CBA
:1004C000E40A04D112051144DB071944F0BDD90731
:1004D000204B194300E0D9070020F0BD0029DDD1F1
:1004E000002CDBD1F0BD0132C6074008CD07284300
:1004F0004908002EE1D0D9E73C2E29DA203E4037CA
:100500001400BC4000D00124F24014431A00BB4048
:100510001C43D317ACE7AC46202F08DA2036040082
:10052000B4400D00B540F84039412843A5E73C2FC1
:100530000CDA203F40360400B44000D00124F840DB
:1005400004430800B1400C43C117EAE7100019004A
:10055000002494E70000F07FF0B50C0D661E360510
:10056000891BE60A6405640D02D0651CED0A04D0FF
:10057000002001210905803C2403A4461C0D671EB0
:100580003F05DB1BE70A6405640D02D0651CED0A1C
:1005900004D0002201231B05803C240377406444DF
:1005A00097B484B296B27443070C7E43150C6F4324
:1005B00080B26843361802D3012000043F1830048B
:1005C000350C00197D41844688B29AB250430C0C18
:1005D00062431F0C7C438EB27E43921902D30126E4
:1005E0003604A4191604170C3618674101BC81B2F1
:1005F0009AB25143040C62431B0C5C4380B25843D3
:10060000121802D30120000424181004130C4018FF
:1006100063412D185E410020474106BC88B293B269
:1006200058430C0C6343120C544389B251435B187A
:1006300002D301210904641819041A0C0918624133
:100640006D1856410020474118BCF902720D114344
:10065000F0026A0D1043ED020A0D03D16D194041FD
:100660004941013B124E9B1B7600B3420ED26D00F6
:1006700007D30130002671416646354301D1400859
:1006800040001B05C918E4072144F0BD0BDA013313
:1006900006D1013004D101314F0D01D04908F2E7F4
:1006A000E1070020F0BD013631050020EBE7000036
:1006B000FF030000F0B51C0D671E3F05DB1BE70ABA
:1006C0006405640D02D0661CF60A04D000220123E2
:1006D0001B05803C2403D0252D060026F6432E66FC
:1006E0001E096E66CE0FF619B44649004F0D02D0B2
:1006F0007E1CF60A03D000200021403F3F033E1B32
:10070000B600B444013F7F05C91B49082E6F01366E
:1007100076089C02950D25437543ED137543AD1383
:1007200001356D10F603761B0CB4CC02450D2C433D
:10073000A2B2B3B25A43270C7B43350C6F43A4B229
:100740006C431B1902D3012424043F191C041D0C03
:10075000A4187D4124196D41009A91B2ACB2614355
:10076000170C7C432B0C5F4392B25A43A41802D35C
:1007700001221204BF182204230C52187B41019C51
:100780006C431B19520ED9010A434401A01A81B2CD
:10079000B2B2514303145A43360C734387B27743C2
:1007A000D617D21900277E4136049B191704160C60
:1007B0007F185E417316ED18F301002680337541F2
:1007C000A90F06D16400690AE8055B0A184309D23B
:1007D0002FE00422944480337541A90AA8059B0A9E
:1007E000184326D3404149412404009A019B0D003F
:1007F0005543641B4343E41A95B286B27543170C04
:100800007E43030C5F4392B25A43B61802D30122CF
:100810001204BF183204330C52197B4152429C41DE
:10082000002C02D40022013051414008CA07104375
:10083000490802B06246D7079210084BD218084BFD
:100840009A4203D212058918C919F0BD0020002A66
:1008500001DC3900F0BD01331905F5E7FD030000A7
:10086000FE070000002200B5203200F004F8080066
:1008700000BD000000220B150AD410B5944600F00C
:1008800031F81414013400DA0021CB17144C20473E
:100890000020002170476244343A0CD40C2A07DA55
:1008A00004009140904052422032D440214310BD78
:1008B000D843D94310BD203207D40C46944052424D
:1008C00020321141D040204310BD0800C91720320A
:1008D00003D452422032104110BD1800190010BD3F
:1008E000970801200A0DCC0F531E1B05C91A52058B
:1008F00003D3C943404200D30131520D03D0531CEE
:10090000DB0A07D0121B00206400611C89078912D2
:10091000803A1203014BD21A70470000FF03000017
:1009200051434343C9188C46110C83B24B4310B456
:10093000040C614392B280B2504362431C041B0C0E
:10094000001910BC59411304120CC01851416144E4
:100950007047000010B513231C781048FFF79AF970
:100960000100012C0AD003DD80220D4800F03EF882
:100970000C48FFF787F90C4B186010BD084C542247
:10098000200000F033F8230054338034074A04C3B6
:10099000A342FCD1024B1A62DA61E9E75346000038
:1009A000301601204C3300002C160120B109012023
:1009B00007B5604601880A0A0230DF2AFAD1C9B2B7
:1009C000820804D3028840880004104300E00068D5
:1009D000014A5050039007BD301601200148042100
:1009E000014B184760130120A5FC0020014B5B68F8
:1009F000184700006013012010B503000800110023
:100A00001B68984710BD0000F0B5CE4600B582B017
:100A100007000D001600437D002B06D000240020A7
:100A2000002A34DD4B1E99460FE0036811002800B0
:100A300098472CE03B7D10E0022117483B6898471F
:100A4000019801300134A64214D0002CF2DD4B464F
:100A50001B5D0D3B5A425341DBB201942A5D0A2AC9
:100A6000F0D1002BEED1A042E6DA211A28183B681B
:100A70009847E1E7A04203DA211A28183B68984713
:100A8000AD19013D2B780D3B5A4253413B7502B0E5
:100A900080BCB946F0BDC046B0120120F8B50500D3
:100AA0000368002B19D00D4B1C68002C13D00C4E82
:100AB000071D07E02A6839002000FFF7A5FF246919
:100AC000002C08D02368002BF9D03368002BF1D01C
:100AD000A342F4D1EEE700232B60F8BD00150120FE
:100AE0000415012070B505000C000B68802B05D0A3
:100AF00021684B1C23606418257170BD0800FFF746
:100B0000CDFFF5E710B5FDF79DFB074A002312184E
:100B10004B41002B03DB0548FBF7B6FB10BD012260
:100B20005242034BF7E7C04640420F0070130120CA
:100B3000FFFFFF7F10B50248FBF7C0FB10BDC046AA
:100B400070130120F0B5DE4657464E464546E0B5E7
:100B500083B080460D0091461C00FFF7D3FF82460C
:100B60006B1C0AD0002C0DD11C4F1D4B1C68002C97
:100B700024D01C4E0A239B4609E0404600F0F4F8BE
:100B80000500EFE7184FF0E72469002C16D0236822
:100B9000002BF9D03368002B01D0A342F4D12A00F6
:100BA00041462000B8474B46002BEDD06B465A46D5
:100BB000DA710122D91D2000B847E5E75346002B22
:100BC00009D16B1E9D41E8B203B0F0BCBB46B246F2
:100BD000A946A046F0BDFFF7ADFFF2E7090A0120E4
:100BE0000015012004150120F909012010B582B07B
:100BF00004006B46D81D0470002300220121FFF77A
:100C0000A1FF200002B010BD10B5064B1C68002CDF
:100C100004D110BD98472469002CFAD06368002BDA
:100C2000F8D1F8E70015012070B5050000F09CF838
:100C300004000023012201002800FFF783FFFFF7D3
:100C4000E3FF200070BD000070B5A2B004000E00EC
:100C5000FFF758FF0500002301933300220001A98C
:100C60000848FEF7DFFF040001A8FFF717FFFFF7B2
:100C7000CBFF002D02D1200022B070BDFFF75AFF3C
:100C8000F9E7C046E50A01200FB400B583B004A916
:100C900001C90191FFF7D8FF03B008BC04B01847A1
:100CA000002070477047C046CAB2F0B5002A35D060
:100CB000032483072DD1FF2529400D0229430D046C
:100CC0000D4329000468264E61408B198B43A119FE
:100CD000A143244E0B43334211D14168204F0C00F5
:100CE000CB196C408B43E119A1430B4304303342D1
:100CF000F3D00378002B05D09A4204D0013003785A
:100D0000002BF9D10020F0BD9342FCD001302042ED
:100D1000D1D00378002BF7D10020F4E7830708D067
:100D2000032202E00130104203D00378002BF9D1F6
:100D3000E9E702680A4B0B49D31893430B4206D1EB
:100D40004268074B0430D31893430B42F8D0037822
:100D5000002BD8D043780130002BFBD1D3E7C0461D
:100D6000FFFEFEFE8080808010B583070AD003005E
:100D7000032102E001330B4205D01A78002AF9D191
:100D8000181A10BD030019680C4A0D4C8A188A43C2
:100D900022420FD15968094A04338A188A432242F1
:100DA00008D15968054A04338A188A432242F1D08F
:100DB00000E001331A78002AFBD1E1E7FFFEFEFED6
:040DC000808080802F
:100DC80025640A0048656C6C6F2C20776F726C6420
:100DD8002100000064C600206AC6002072C60020F8
:100DE80064C600207AC6002064C6002064C60020BD
:100DF8008AC6002082C6002028C9002074C90020A5
:100E080080C9002092C90020A4C90020BCC90020C4
:100E1800DCC9002002CA002030313233343536377D
:100E280038394142434445464748494A4B4C4D4E60
:100E38004F505152535455565758595A2024252A21
:100E48002B2D2E2F3A000000FF070A0F141A121438
:100E5800181E1214181A1E16181C1E1C1C1C1C1EE8
:100E68001E1A1C1E1E1E1E1E1E1E1E1E1E1E1E1EA0
:100E78001EFF0A101A1218101216161A1E16161825
:100E8800181C1C1A1A1A1A1C1C1C1C1C1C1C1C1CA6
:100E98001C1C1C1C1C1C1C1C1C1CFF0D16121A12D2
:100EA80018121614181C1A18141E181C1C1A1E1CAA
:100EB8001E1E1E1E1C1E1E1E1E1E1E1E1E1E1E1E4C
:100EC8001E1E1EFF111C1610161C1A1A181C181CA0
:100ED8001618181E1C1C1A1C1E181E1E1E1E1E1E4E
:100EE8001E1E1E1E1E1E1E1E1E1E1E1EFF01010190
:100EF80001010202020204040404040606060607AD
:100F0800080809090A0C0C0C0D0E0F101112131306
:100F18001415161819FF010101020204040405053D
:100F2800050809090A0A0B0D0E10111112141517DC
:100F3800191A1C1D1F21232526282B2D2F31FF01AF
:100F4800010202040406060808080A0C100C111015
:100F58001215141717191B1D22222326282B2D3092
:100F68003335383B3E4144FF0101020404040506C1
:100F780008080B0B101012101315191919221E202E
:100F88002325282A2D303336393C3F42464A4D51D5
:100F98000100000000000000030000000200000043
:100FA800080000000A0000000C0000000800000013
:100FB8001000000010000000090000000B000000F5
:100FC8000D0000000A0000000C0000000E000000E8
:100FD800486172647761726520616C61726D202569
:100FE8006420616C726561647920636C61696D6508
:100FF800640000000A2A2A2A2050414E4943202A28
:101008002A2A0A000A00000048617264206173738A
:1010180065727400666E692B00000000666E6900D8
:101028006E616E00666E692D00000000BAF6002041
:10103800D8F60020EEF60020D8F60020A0F6002012
:10104800D8F60020D8F60020D8F60020D8F60020E0
:10105800D8F60020D8F60020D8F60020D0F60020D8
:10106800D8F60020D8F60020D8F60020D8F60020C0
:10107800D8F60020F8F600200AF60020BAF500207D
:10108800BAF5002010F60020BAF50020BAF50020C5
:10109800BAF50020BAF50020BAF50020BAF500200C
:1010A800BAF5002004F60020BAF50020FEF500206D
:1010B800BAF50020BAF50020E4F5002042FB002034
:1010C80056FB002056FB002056FB002056FB002054
:1010D80056FB002056FB002056FB002056FB002044
:1010E80056FB002056FB002056FB002056FB002034
:1010F80056FB002056FB002056FB002056FB002024
:1011080056FB002056FB002056FB002056FB002013
:1011180056FB002056FB002056FB002056FB002003
:1011280056FB002056FB002056FB002056FB0020F3
:1011380056FB002056FB002056FB0020F8F8002044
:10114800C0F80020F8F8002056FB002056FB0020CD
:1011580056FB002056FB002056FB002056FB0020C3
:1011680056FB002056FB002056FB002056FB0020B3
:1011780056FB002056FB002056FB002056FB0020A3
:1011880056FB002056FB002002F7002056FB0020EB
:1011980056FB002056FB002056FB002056FB002083
:1011A80056FB002056FB002056FB002056FB002073
:1011B80002F7002048F9002002F70020F8F8002084
:1011C800C0F80020F8F8002056FB002002F70020A5
:1011D80056FB002056FB002056FB002056FB002043
:1011E80056FB002002F7002012FB002056FB0020CF
:1011F80056FB0020DAF9002056FB002002F70020F9
:1012080056FB002056FB002002F7002000000000DB
:10121800000000000000F03F000000000000244033
:1012280000000000000059400000000000408F400E
:10123800000000000088C34000000000006AF84079
:101248000000000080842E4100000000D01263419D
:101258000000000084D797410000000065CDCD4113
:1012680052656C6561736500312E352E30000000C3
:101278007069636F000000005152434F444530438A
:10128800000000004E6F76203239203230323300B1
:1012980006005250BBFF3CB678120120060052509F
:0C12A800D3F07542681201200D0A00000E
:1012B400A4C0002098C00020981201208CC00020F7
:0412C400A41201204F
:1012D00010000000000000000000010000000000FD
:1012E00000000000000002000000000000000000FC
:1012F0000000030000000000000000000000FF00EC
:101300000000000001B5486801318E460047704674
:1013100009380149884701BD91D9002034130120C3
:101320000000000088130120C0140120000000000C
:1013300000000000D01401200000000000000000A8
:10134000100000000000000000000000000000008D
:10135000503300004C33000054330000523300007F
:101360004D5300004D43000053340000433400004F
:101370000000000000000000DD09012075FC0020D5
:08138000690301205509012059
:040000052000C00116
:00000001FF
