:020000042000DA
:108000001B481C49086006C881F3088810471A48B5
:108010000068002823D11949194A002000E001C155
:108020009142FCD117498847174988471749884723
:1080300000BEFDE7C0E00020C0E00020A8E5002071
:108040000000042000000420000004200010042090
:1080500000100420001004200000000070470C48AD
:1080600004F04AFB0047EFF30580C0B27047000000
:108070000081002008ED00E0000000D0A8E500200D
:1080800078ED00205DBF0020558400204FC0002007
:1080900057560000060052505422A29D50DF002087
:1080A00006005250861C03025CDF0020060052507E
:1080B000ABB3605370DF0020F2EB8871A0E00020CA
:1080C000B4E000203480002090A31AE700000000F4
:1080D00000000000000000000000000000000000A0
:1080E0000000000000000000000000000000000090
:1080F0000000000000000000000000000000000080
:10810000002004200F800020C3810020C5810020B2
:10811000C1810020C1810020C1810020C1810020D7
:10812000C1810020C1810020C1810020C7810020C1
:10813000C1810020C1810020C9810020CB810020A5
:10814000CD810020CD810020CD810020CD81002077
:10815000CD810020CD810020CD810020CD81002067
:10816000CD810020CD810020CD810020CD81002057
:10817000CD810020CD810020CD810020CD81002047
:10818000CD810020CD810020CD810020CD81002037
:10819000CD810020CD810020CD810020CD81002027
:1081A000CD810020CD810020CD810020CD81002017
:1081B000CD810020CD810020CD810020CD81002007
:1081C00000BE00BE00BE00BE00BE00BEFFF74BFFFB
:1081D000103800BE80B590B000AF7860D0231B0689
:1081E0001A683F23FB181A707B681B687B63EFF3E8
:1081F00010833B6372B63B6BFB627B6BBB62C0461A
:10820000BB6A1B685A425341DBB2002BF8D1BFF363
:108210005F8FC046C046C046FB6ABB637B681B7964
:108220005BB2002B1BDA7B683F22BA1812781A71F6
:108230007B681B687B62BB6B3B627B6AFB61BFF345
:108240005F8FC046C046FB6900221A60C0463B6A89
:10825000BB61BB6983F31088C046C04618E07B68E9
:108260001B687B61BB6B3B617B69FB60BFF35F8F0E
:10827000C046C046FB6800221A60C0463B69BB602E
:10828000BB6883F31088C046C04620BFC046ABE73A
:10829000C046BD4610B080BD80B58CB000AF7860E0
:1082A00039607B681B687B62EFF310833B6272B6B8
:1082B0003B6AFB617B6ABB61C046BB691B685A4273
:1082C0005341DBB2002BF8D1BFF35F8FC046C046ED
:1082D000C046FB69BB627B681B795BB2002B0ADA84
:1082E000D0231B061B685AB27B681A712F23FB1818
:1082F00001221A700CE03B68002B05D07B681B79CB
:108300005BB21A003B681A602F23FB1800221A7018
:108310007B681B687B61BB6A3B617B69FB60BFF369
:108320005F8FC046C046FB6800221A60C0463B69AA
:10833000BB60BB6883F31088C046C0462F23FB1880
:108340001B781800BD460CB080BD80B58CB000AF66
:1083500078607B681B68BB61EFF310837B6172B64A
:108360007B693B61BB69FB60C046FB681B685A4286
:108370005341DBB2002BF8D1BFF35F8FC046C0463C
:10838000C0463B69FB627B68FF221A717B681B68F1
:10839000BB62FB6A7B62BB6A3B62BFF35F8FC04616
:1083A000C0463B6A00221A60C0467B6AFB61FB69DB
:1083B00083F31088C046C04640BFC046C046BD4695
:1083C0000CB080BD80B582B000AF786039600B4BD7
:1083D000180000F055F97B68180000F051F93B686F
:1083E000180000F04DF9064B180000F049F9012083
:1083F00000F028F9C046BD4602B080BD98DA0020E2
:10840000A4DA00200FB480B500AFC046BD4680BCE2
:1084100008BC04B01847000080B582B000AF786097
:10842000094B1B68002B03D0084B7A681A6006E0E2
:10843000074B1A687B6811001800FFF7C3FFC0469E
:10844000BD4602B080BDC04624EB002028EB0020D2
:1084500030EB002090B589B000AF0423BB613B1D19
:108460003F4A13CA13C312681A6000F093F83D4ADA
:108470003D4B1100180001F03DFC0300180000F016
:10848000D3F804F061FE394B180002F082FF3B1D67
:108490005B68180000F0A8F903007B617B69002B82
:1084A00005D1334A334B11001800FFF78BFFBB692E
:1084B000022B2EDD3B1D9A687B691100180000F02D
:1084C00063FE0300FB61FA692B4B11001800FFF7F4
:1084D00099FF0123FB6115E07B69FA699200D3588B
:1084E000002B0CD07B69FA690A329200D358002B1A
:1084F00005D0FA69214B11001800FFF783FFFB69D3
:108500000133FB61FB69092BE6DD1D4B1800FFF70A
:1085100079FFBB69032B0CDD3B1DD968194A7B69C8
:10852000180000F0C9F8174A174B11001800FFF7A0
:1085300069FF0023FB61FB6903221340134AD35CEC
:108540001A00134B11001800FFF75CFFFA239B0081
:10855000180002F01EFFFB690133FB61EBE7C04628
:10856000F0DA0020A8DA0020ACDA0020B80B000016
:10857000C8DA0020CCDA0020DCDA0020E0DA0020C3
:10858000A4DA0020B8E60020E8DA002000DB0020B2
:10859000ECDA002080B500AF03B405490D604E60F1
:1085A0008F604046C86003BCC046BD4680BD000029
:1085B00038EB002090B587B000AFF860B9607A6002
:1085C0003B60074BDB687B613B687A68B968F86899
:1085D0007C69A04703001800BD4607B090BDC046A7
:1085E00038EB002080B582B000AF786079688B23CB
:1085F0000022FB20FFF7DEFF03001800BD4602B09B
:1086000080BD80B582B000AF786039607B683A6821
:10861000534319008B230022FA20FFF7CBFF0300FE
:108620001800BD4602B080BD80B582B000AF786052
:1086300079688B230022FC20FFF7BCFFC046BD46B3
:1086400002B080BD80B582B000AF78600A4B1800E0
:1086500000F016F87B68180000F020F8074B1800AF
:1086600000F00EF88323002200210020FFF7A2FF74
:10867000C046BD4602B080BD08DB002010DB0020F4
:1086800080B582B000AF7860786881230022112124
:10869000FFF790FFC046BD4602B080BD80B582B0F6
:1086A00000AF78607868812300221021FFF782FFF5
:1086B000C046BD4602B080BDF0B5CE46474680B547
:1086C00085B000AFF860B9607A60FD68BE687B680D
:1086D0009846002D05D0BB68002B02D07B68002B8C
:1086E00004D13D4B1800FFF797FE6FE05C23EB5C75
:1086F0009C2B61D0394B1800FFF78EFE66E04B468D
:10870000262B01D1002413E04B46242B0ED13378C5
:108710005A1C334BD3181B781A000423134005D07E
:1087200033005E1C1B78303B1C0001E001235C42DF
:10873000002C15DA4B465C2B0CD133785C2B05D022
:108740003378262B02D03378242B03D133005E1CE0
:108750001B78994643465A1C90464A461A702BE0AD
:10876000A3005B59002B27D023000A339B005B59E1
:10877000002B21D023000A339B005A59A3005B59D8
:108780009A4219D923000A339B005A59A3005B5916
:10879000D31A9946A3005B594A461900404604F093
:1087A00013FEC8444346013B1B78002B04D10D4BFC
:1087B0001800FFF731FE09E033005E1C1B78994674
:1087C0004B46002B9BD1434600221A70BD4605B094
:1087D000C0BCB946B046F0BD14DB002030DB002041
:1087E0009CDF002040DB0020F0B5C64600B588B015
:1087F00000AF78607B68002B05D1584B1800FFF75D
:108800000BFE0023A4E008243B197A681A603B1988
:1088100001225A603B1900221A613B1909221A737E
:108820003B1900229A733B199A7B3B195A733B19E7
:108830003A190C329A603B199C21180000F019FC7F
:108840001C23FA183B190021180000F08FF8031EB2
:1088500001D100237CE00823FB181B69404A9342A6
:1088600005DD404B1800FFF7D7FD002370E008231B
:10887000FB181B6960331800FFF7B4FE03001C1ED1
:1088800005D1394B1800FFF7C7FD002360E008252C
:108890007B197A681A607B1901225A6022005C32C7
:1088A0007B199A607B199C21180000F0E2FB1C23C5
:1088B000FA187B190021180000F058F8031E01D1A6
:1088C000002345E050230022E25451230022E254C9
:1088D000002363650023A36523005C335D1C28002F
:1088E00000F052FE03001B78002B30D103352B78AB
:1088F000082B03D1EA785023E25405E02B78012BB2
:1089000002D151230122E254FB69042213401ED0FC
:1089100000239846002614E02B78082B0DD1EB1C81
:10892000180004F0E9FC03009E4206D8EB1C9846B0
:10893000EB1C180004F0E0FC0600280000F024FE08
:108940000500002DE8D1434663653300A36523008D
:108950001800BD4608B080BCB846F0BD58DB00200A
:10896000FE7F000074DB002084DB0020F0B5C646EB
:1089700000B584B000AF040079603A603B68012222
:108980001A607B68002B14D06368092B05DD584BF7
:108990001800FFF741FD0023A3E063689846636871
:1089A00001336360434614331900200000F03CFBA0
:1089B00006000C23FB181900200000F0A1F8051E8A
:1089C00001D100238DE07B68002B05D02A00310007
:1089D000200000F095FB00E02E003B681B68FA6861
:1089E00001210A4051424A41D2B2D2431A403B6867
:1089F0001A603B681A68FB6804210B401A433B6805
:108A00001A6025E02368013323600C23FB1819004A
:108A1000200000F075F8051E01D1002361E02A0056
:108A20003100200000F06CFB3B681B68FA680121F4
:108A30000A4051424A41D2B2D2431A403B681A60BE
:108A40003B681A68FB6804210B401A433B681A60B4
:108A500023681B787C2BD5D07B68002B02D0434643
:108A60001E3300E000231900200000F0DDFA8046EC
:108A700042463100200000F043FB350008E042464A
:108A80002900200000F066FB280000F07DFD0500B5
:108A9000002DF4D17B68002B0BD023685A1C226078
:108AA0001B78292B05D0134B1800FFF7B5FC0023CA
:108AB00017E07B68002B13D123681B78002B0FD0A5
:108AC00023681B78292B05D10B4B1800FFF7A4FC5A
:108AD000002306E0094B1800FFF79EFC002300E08E
:108AE00033001800BD4604B080BCB846F0BDC04697
:108AF00094DB0020A0DB0020B0DB0020C0DB0020E6
:108B0000F0B5C64600B584B000AF040079607B685C
:108B100000221A600621200000F086FA8046002517
:108B200022E00C23FB181900200000F033F8061E89
:108B300001D1002327E07B681A68FB6801210B4004
:108B40001A437B681A60002D08D17B681A68FB689D
:108B500004210B401A437B681A6004E032002900AC
:108B6000200000F0CDFA350023681B781E1E03D0CC
:108B70007C2E01D0292ED4D1002D03D10921200033
:108B800000F052FA43461800BD4604B080BCB84617
:108B9000F0BD0000F0B585B000AF040079600C2393
:108BA000FB181900200000F0DFF8051E01D100239A
:108BB000D1E023681E782A2E08D02B2E06D03F2E17
:108BC00004D0FA687B681A602B00C4E0FB680122BD
:108BD000134007D13F2E05D0614B1800FFF71CFC56
:108BE0000023B8E033003F2B0DD010DC2A2B02D03D
:108BF0002B2B04D00BE07B6804221A6007E07B6813
:108C000005221A6003E07B6800221A60C0462A2E03
:108C100009D1FB680222134005D02A000A21200056
:108C200000F040FA81E02A2E28D12A0006212000F7
:108C300000F038FA0721200000F0F6F903001A00CE
:108C40002900200000F086FA2A002900200000F008
:108C500081FA0621200000F0E7F903001A0029003C
:108C6000200000F04DFA0921200000F0DDF903009A
:108C70001A002900200000F043FA56E02B2E09D1FB
:108C8000FB680222134005D02A000B21200000F0CF
:108C900009FA4AE02B2E28D10621200000F0C4F961
:108CA000060032002900200000F02AFA07212000E7
:108CB00000F0BAF903002A001900200000F020FAA1
:108CC0000621200000F0B0F903001A003100200056
:108CD00000F016FA0921200000F0A6F903001A009E
:108CE0002900200000F00CFA1FE03F2E1DD12A00C1
:108CF0000621200000F0D6F90621200000F094F9AA
:108D000003001A002900200000F0FAF909212000D0
:108D100000F08AF9060032002900200000F0F0F986
:108D200032002900200000F015FA23680133236087
:108D300023681B782A2B07D023681B782B2B03D0A2
:108D400023681B783F2B05D1064B1800FFF764FB07
:108D5000002300E02B001800BD4605B0F0BDC04662
:108D6000DCDB0020F8DB0020F0B5C64600B584B09F
:108D700000AF040079607B6800221A6023685A1CE7
:108D800022601B787C2B00D1C7E000DDF3E0002BD4
:108D900000D1C2E000DAEEE05E2B00DDEBE0242B38
:108DA00000DAE8E0243B3A2B00D9E4E09A00964B45
:108DB000D3181B689F460121200000F035F90600FA
:108DC0001AE10221200000F02FF9060014E103212E
:108DD000200000F029F906007B681B6803221A4373
:108DE0007B681A6008E123681B785E2B08D1052197
:108DF000200000F019F9060023680133236004E025
:108E00000421200000F010F9060023681B781D00E3
:108E10005D2D01D02D2D38D12900200000F029F939
:108E200023680133236030E02D2D04D02900200079
:108E300000F01FF929E023681B781D005D2D01D08B
:108E4000002D04D12D21200000F013F91DE023682E
:108E5000023B1B789846EBB21D00A84505DD6B4B25
:108E60001800FFF7D9FA0023C7E001239C46E0442D
:108E700006E04146200000F0FCF801239C46E04457
:108E8000A845F6DD23680133236023685A1C22605D
:108E90001B781D1E01D05D2DC6D10021200000F0E1
:108EA000E8F85D2D05D05A4B1800FFF7B5FA0023FE
:108EB000A3E07B681B6803221A437B681A609BE06F
:108EC00023681B783F2B13D1236801331B783A2B7F
:108ED0000ED12368023323600C23FB181A000121F2
:108EE0002000FFF743FD06006368013B636007E075
:108EF0000C23FB181A0001212000FFF737FD0600A4
:108F0000002E01D1002378E07B681A68FB680521F8
:108F10000B401A437B681A606EE03E4B1800FFF767
:108F20007BFA002369E03C4B1800FFF775FA002339
:108F300063E023681B78002B05D1384B1800FFF73E
:108F40006BFA002359E00821200000F06DF80600BC
:108F500023685A1C22601B781900200000F089F851
:108F60000021200000F085F87B681B6803221A436B
:108F70007B681A6040E02368013B23602368284A2D
:108F80001100180004F09EF9051E05D1254B1800AC
:108F9000FFF742FA002330E023685B191E78012DA9
:108FA00006D92A2E03D02B2E01D03F2E00D1013D11
:108FB0007B681B6801221A437B681A60012D05D16A
:108FC0007B681B6802221A437B681A600821200014
:108FD00000F02AF8060008E023685A1C22601B787B
:108FE0001900200000F045F8013D002DF4D10021CA
:108FF000200000F03EF8C04633001800BD4604B023
:1090000080BCB846F0BDC04610DD002004DC002066
:1090100018DC002028DC002048DC00205CDC00207C
:1090200068DC002074DC0020B0B582B000AF030023
:109030003A1D11709D6899681A000C32914204D152
:109040001A6903321A612B000FE02C002200541C15
:10905000391D097811702200541C00211170220062
:10906000541C002111709C602B001800BD4602B0FA
:10907000B0BD80B582B000AF03003A1D1170996891
:109080001A000C32914206D09A68511C99603B1D1F
:109090001B78137002E01A6901321A61C046BD469E
:1090A00002B080BD90B583B000AF04003A603B1DB4
:1090B0000A1C1A70A26823000C339A4203D1236958
:1090C0000333236119E03B68D81CA2683B68D31ABC
:1090D0001A003B68190004F03FF8A3680333A3604B
:1090E0003C6823005C1C3A1D12781A7023005C1C3B
:1090F00000221A70230000221A70BD4603B090BDF2
:10910000B0B582B000AF030079603A609A680C3362
:109110009A421BD07C6800E02C00200000F034FA5A
:10912000051EF9D12378072B02D13B68E31A01E031
:109130003B681B1B1D002B12DAB2631C7F210A4007
:10914000D2B21A70A31CEAB21A7000E0C046BD4643
:1091500002B0B0BD80B582B000AF030079603A6064
:1091600099681A000C3291420AD07A681278062A5D
:1091700006D17A68D11C3A681800FFF7C1FF00E0F9
:10918000C046BD4602B080BDB0B586B000AF041E7B
:1091900079607D6801D0002D05D1314B1800FFF7B3
:1091A0003BF9002357E05C23E35C9C2B05D02D4B5F
:1091B0001800FFF731F900234DE0636D002B08D054
:1091C000636D1900280004F093FA031E01D10023F7
:1091D00041E008217B185D6022007B189A60220024
:1091E00028327B18DA605123E35C002B07D07B1810
:1091F0002A002100180000F037F803002BE050236C
:10920000E35C002B1DD012E00823FB182A0021008C
:10921000180000F029F8031E01D001231BE06B1C8D
:109220005022A25C1100180003F0ECFF0500002D95
:10923000EAD100230FE02B78002B01D100230AE0B4
:1092400001350823FB182A002100180000F00CF853
:10925000031EF0D001231800BD4606B0B0BDC046C5
:1092600090DC0020ACDC0020F0B5C64600B582B032
:1092700000AF040079603A603B6823607E687B68D9
:109280002822904698440A2509E033001E1D00223A
:109290001A6043461A1D904600221A60013D002DB7
:1092A000F3DC7B685C3301331900200000F012F816
:1092B000031E07D07B683A681A6022687B689A624E
:1092C000012300E000231800BD4602B080BCB84670
:1092D000F0BD0000F0B5CE46474680B585B000AF82
:1092E000040079607D68F7E0280000F04DF9030084
:1092F000FB602B78272B00D9E2E09A007E4BD31835
:109300001B689F46226863689A4200D1E0E0002310
:10931000EAE023681B78002B00D1DBE00023E3E0C8
:1093200023681B78002B01D10023DDE02368013383
:109330002360D0E0EE1C327823681B789A4201D07B
:109340000023D1E0300003F0D7FF0500012D09D93B
:1093500023682A001900300003F0FCFF031E01D02F
:109360000023C1E023685B192360B4E023681B7805
:10937000002B08D0EA1C23681B781900100003F0AA
:1093800041FF031E01D10023AEE0236801332360B7
:10939000A1E023681B78002B08D0EA1C23681B7807
:1093A0001900100003F02EFF031E01D000239BE0E4
:1093B0002368013323608EE02B78143B1E00256860
:1093C000FB6819002000FFF785FF031E0DD0A2687F
:1093D00033009B00D3181B68002B04D1A268330014
:1093E0009B00D3181D6001237EE000237CE02B78D6
:1093F0001E3B1E002568FB6819002000FFF76AFF6E
:10940000031E0DD0E26833009B00D3181B68002BAD
:1094100004D1E26833009B00D3181D60012363E090
:10942000002361E02668FB681B78062B10D0EB1C3C
:10943000FB6050E0EB1C19002000FFF74BFF031E00
:1094400001D0012350E02660280000F09DF80500BF
:109450002B78062BEED0002346E0FB681B78082B08
:1094600003D1FB6803331B7800E000231E00236850
:1094700098462B780A3B5A1E9341DBB29946EB1C67
:109480001900200000F03EF803005D1C12E06B1E86
:1094900043442360002E03D023681B789E4208D1EA
:1094A000FB6819002000FFF715FF031E01D0012300
:1094B0001AE0013D4D45EAD8002315E0012313E0F1
:1094C0000E4B1800FEF7A8FF00230DE0C04602E097
:1094D000C04600E0C046FD68002D00D004E7084B00
:1094E0001800FEF799FF00231800BD4605B0C0BC68
:1094F000B946B046F0BDC046FCDD0020C0DC00200F
:10950000D4DC0020F0B583B000AF030079607A6846
:109510001278082A0ED02BDC052A20D028DC032A5A
:1095200002D0042A12D023E01B68180003F0E4FEE6
:10953000030022E07A68D67800251C6801E0013536
:10954000013423789E42FAD02B0016E01A687B681B
:1095500003331900100003F06DFF03000DE01A68DB
:109560007B6803331900100003F0ACFE030004E035
:10957000044B1800FEF750FF00231800BD4603B04F
:10958000F0BDC046E8DC002090B500AF03005A1CD7
:1095900012781102FE22D2010A40991C097854184F
:1095A000002C01D1002308E01A78072A03D12200F9
:1095B00052429B1801E022009B181800BD4690BD46
:1095C00080B588B000AF78607B68180003F094FE27
:1095D0000300BB61BB699B0005337B617B69012193
:1095E0001800FFF70EF803003B613B69FB613B6924
:1095F000002B03D1AB4B1800FEF70EFF0023FB60DE
:1096000039E10B217B181B785B2B11D05C2B00D030
:10961000E5E0FB695A1CFA617A1812781A707A68C8
:10962000531C7B60FB69591CF96112781A7022E1A6
:10963000FB695A1CFA610B22BA1812781A70BBE047
:109640000B217B181B78402B42D97B181B785A2B97
:109650003ED8FB695A1CFA617A1812781A707B6836
:109660001B782D2B2AD17B6801337B60FB695A1C48
:10967000FA612D221A707B685A1C7A600A203A1807
:109680001B781370FB695A1CFA613A1812781A7029
:10969000FB695A1CFA617A1812782032D2B21A7019
:1096A000FB695A1CFA612D221A70FB695A1CFA6177
:1096B0003A1812782032D2B21A707DE0FB695A1C37
:1096C000FA610B22BA1812782032D2B21A7073E003
:1096D0000B217B181B78602B42D97B181B787A2BC7
:1096E0003ED8FB695A1CFA617A1812781A707B68A6
:1096F0001B782D2B2AD17B6801337B60FB695A1CB8
:10970000FA612D221A707B685A1C7A600A203A1876
:109710001B781370FB695A1CFA613A1812781A7098
:10972000FB695A1CFA617A181278203AD2B21A7080
:10973000FB695A1CFA612D221A70FB695A1CFA61E6
:109740003A181278203AD2B21A7035E0FB695A1CE6
:10975000FA610B22BA181278203AD2B21A702BE0B2
:109760000B22BB181B782D2B03D0BB181B785C2B4E
:109770000FD1FB695A1CFA610B22BA1812781A70C1
:109780007A68531C7B60FB69591CF96112781A7066
:1097900012E00B217B181B785D2B06D1FB695A1C4C
:1097A000FA617A1812781A7018E0FB695A1CFA618B
:1097B0000B22BA1812781A707B693A69D318FA69C1
:1097C0009A4258D27B685A1C7A600B217A181B780F
:1097D00013707B181B78002B00D031E74BE00B2176
:1097E0007B181B78402B1CD97B181B785A2B18D858
:1097F000FB695A1CFA615B221A70FB695A1CFA61F8
:109800007A1812782032D2B21A70FB695A1CFA61A7
:109810007A1812781A70FB695A1CFA615D221A7064
:1098200028E00B217B181B78602B1CD97B181B7838
:109830007A2B18D8FB695A1CFA615B221A70FB69F3
:109840005A1CFA617A1812781A70FB695A1CFA616C
:109850007A181278203AD2B21A70FB695A1CFA614F
:109860005D221A7006E0FB695A1CFA610B22BA18D5
:1098700012781A70C0467B693A69D318FA699A421D
:109880000BD27B685A1C7A600B217A181B781370F4
:109890007B181B78002B00D0B3E63B691800BD464F
:1098A00008B080BD9CDE002080B58AB000AF786033
:1098B0007B68180003F020FD03003B627B68FB61BE
:1098C00001237B6100237B627B685A1C7A601B78D2
:1098D0007B2B09D01EDC002B1AD05C2B00D019E0AA
:1098E0007B6801337B6018E07B6A01337B620C2369
:1098F000FA181023F9187B68180000F02FF80300FD
:109900007B607A69FB689A4206DAFB687B6103E058
:10991000C04603E0C046D7E7C046D5E73B6A0133FF
:109920007A695A4311007A6A13005B009B18CB18BE
:10993000013301211800FEF764FE0300BB61BB691F
:10994000BB600823FA18FB690021180000F052F8E8
:10995000BB691800BD460AB080BD000080B584B068
:1099600000AFF860B9607A60FB680C22B9180A226F
:10997000180004F019F80200BB681A60FB685A1C52
:10998000FA601B782C2B06D07D2B1AD1BB681A6885
:109990007B681A601CE0FB680C22B9180A221800C8
:1099A00004F002F802007B681A60FB685A1CFA6037
:1099B0001B787D2B0BD0BB681B685A1E7B681A6016
:1099C00005E0BB681B685A1E7B681A6000E0C04651
:1099D0007B681A68BB681B689A4203DA044B18005C
:1099E000FEF71AFDFB681800BD4604B080BDC046F6
:1099F000ACDE002080B58CB000AFF8607A600B233D
:109A0000FB180A1C1A707B681B68BB61FB68FB6251
:109A1000FB683B62B9E01F217A180B23FB18127810
:109A20001B789A4200D1C2E07B181B787B2B02D0B6
:109A3000FB68013BFB621F23FB181B787B2B27D0A5
:109A400000DDA1E05C2B06D000DD9DE0282B0BD0D3
:109A50005B2B13D098E0FA68531CFB60BB69591C60
:109A6000B96112781A7090E01823FA18FB6829215E
:109A70001800FFF7BFFF0300FB6086E01823FA1809
:109A8000FB685D211800FFF7B5FF0300FB607CE079
:109A9000BB69013BBB61FB68013B3B621023FA18C9
:109AA0001423F918FB681800FFF758FF0300FB6048
:109AB0007A693B699A421BD113E00023BB620AE03A
:109AC000BB6AFA6AD218BB69591CB96112781A705C
:109AD000BB6A0133BB62BB6AFA6AD3183A6A9A421C
:109AE000EED87B69013B7B617B69002BE5DC4CE0B8
:109AF000BA69396AFB6ACB1A5B42D318BB61BB698E
:109B00005A1CBA6128221A70BB695A1CBA613F22DA
:109B10001A70BB695A1CBA613A221A702FE00023EE
:109B20007B6216E00023BB620AE0BB6AFA6AD218C5
:109B3000BB69591CB96112781A70BB6A0133BB62E8
:109B4000BB6AFA6AD3183A6A9A42EED87B6A013342
:109B50007B623B697A6A9A42E4DB7A693B699A42A2
:109B600005DABB695A1CBA617C221A7004E0BB6931
:109B70005A1CBA6129221A703B69013B3B617A6920
:109B80003B699A42CBDD00E0C046FA68531CFB609B
:109B9000BB69591CB96112781A701F217A181B7899
:109BA00013707B181B78002B00D034E700E0C04610
:109BB000BA697B681A60FB681800BD460CB080BDAE
:109BC00080B586B000AF78607B68180003F094FB26
:109BD00003003B613A6913009B009B18013301218C
:109BE0001800FEF70EFD0300FB60FB687B617A68DE
:109BF000531C7B607B69591C796112781A701B7841
:109C00005C2B05D02CDC002B28D02E2B09D027E094
:109C10007A68531C7B607B69591C796112781A70D1
:109C20001FE07B69013B7B617B695A1C7A615B2287
:109C30001A707B695A1C7A615E221A707B695A1C01
:109C40007A610D221A707B695A1C7A610A221A7095
:109C50007B695A1C7A615D221A7002E0C04601E0FD
:109C6000C046C4E7FB681800BD4606B080BD0000D2
:109C700080B584B000AF78600023FB607B685A1C1D
:109C80007A601B78732B0CD017DC6D2B0ED014DC94
:109C9000002B10D0692B10D1FB6801221343FB600D
:109CA0000CE0FB6804221343FB6007E0FB68022220
:109CB0001343FB6002E0C04601E0C046DEE7034B11
:109CC000FA681A60C046BD4604B080BD34EB00207F
:109CD00080B582B000AF7860054B1B687A6813408E
:109CE0005A1E9341DBB21800BD4602B080BDC0468B
:109CF00034EB002080B584B000AF78603960002379
:109D0000FB603B681800FFF7B3FF0120FFF7E0FF9F
:109D1000031E07D07B681800FFF752FC0300FB60AE
:109D2000FB687B600420FFF7D3FF031E0ED17B6826
:109D30001800FFF745FF03007B60FB68002B03D092
:109D4000FB681800FEF770FC7B68FB607B681800FE
:109D5000FFF7AAFD0300BB60FB68002B03D0FB6884
:109D60001800FEF761FC7B681800FEF75DFC044BF1
:109D7000BA681A60BB681800BD4604B080BDC04612
:109D800030EB002080B586B000AF0B237B607B6892
:109D90000F4A944663449B007B61EFF310833B6161
:109DA00072B63B69FB607B69BB60C046BB681B68E1
:109DB0005A425341DBB2002BF8D1BFF35F8FC0464C
:109DC000C046C046FB681800BD4606B080BDC04610
:109DD0004000003480B588B000AF78600B23FB6092
:109DE000FB680E4A944663449B00FB617B68BB6141
:109DF000FB697B61BFF35F8FC046C0467B69002271
:109E00001A60C046BB693B613B6983F31088C0465A
:109E1000C046C046BD4608B080BDC04640000034C4
:109E200080B582B000AF786039603B68DB087A6843
:109E3000D3181B7819003B680722134001229A406F
:109E400013000B405A1E9341DBB21800BD4602B00E
:109E500080BD80B586B000AFF860B9607A60FFF76A
:109E600091FF03007B61BA68FB6811001800FFF7DF
:109E7000D7FF031E05D0BA687B681100180002F0F6
:109E8000EFF8BB68DB08FA68D3181978BB680722BB
:109E9000134001229A401300DAB2BB68DB08F8686D
:109EA000C3180A43D2B21A707B691800FFF792FFF9
:109EB000C046BD4606B080BD80B500AF044B1B68F0
:109EC000022213405A1E9341DBB21800BD4680BDEA
:109ED00000C0064080B584B000AF0023FB6012E0F4
:109EE000FB687B607B680C4A944663449B00BB60C4
:109EF000BFF35F8FC046C046BB6800221A60C046F1
:109F0000FB680133FB60FB681F2BE9D9C046C046E4
:109F1000BD4604B080BDC0464000003480B582B06C
:109F200000AF094B1B785A1CD1B2074A11707B60F5
:109F3000054B1B78172B02D9034B10221A707B6834
:109F40001800BD4602B080BDC0E000200FB480B54F
:109F500000AF0823FB181B7801225340DBB2002B13
:109F600001D002F09DF8C046BD4680BC08BC04B0DC
:109F7000184780B582B000AF7860C046BD4602B0D9
:109F800080BD000080B500AF024B9B681800BD4645
:109F900080BDC04600ED00E080B582B000AF7860C3
:109FA0007B68012213431800BD4602B080BD80B516
:109FB00082B000AF78607B68012293431800BD46F1
:109FC00002B080BD80B58AB000AFF860B9607A6039
:109FD000FFF7D8FF0200FB6810339B00D318BA6864
:109FE0001A60BFF35F8FC04609237B617B690E4A0D
:109FF000944663449B007B627B683B627B6AFB61A7
:10A00000BFF35F8FC046C046FB6900221A60C0469E
:10A010003B6ABB61BB6983F31088C046C046C0463B
:10A02000BD460AB080BDC0464000003480B582B055
:10A0300000AF78600A00FB1C1A707B681800FFF7FD
:10A0400098FF01227B689A40FB1C1B7819001000C6
:10A0500000F01CF8C046BD4602B080BD80B582B09D
:10A0600000AF78607B681800FFF783FF01227B68F0
:10A070009A40054B1B6813405A1E9341DBB21800EF
:10A08000BD4602B080BDC04600E100E080B582B0B0
:10A0900000AF78600A00FB1C1A70FB1C1B78002BB9
:10A0A00006D0074B7A681A60064B7A681A6002E09D
:10A0B000054B7A681A60C046BD4602B080BDC046F6
:10A0C00080E200E000E100E080E100E080B582B0E5
:10A0D00000AF78607A68054BD21A2F210023914295
:10A0E0005B41DBB21800BD4602B080BDC4E0002079
:10A0F00080B582B000AF78607B681800FFF739FF49
:10A10000FFF740FF02007B6810339B00D3181B68E9
:10A110001800BD4602B080BD80B58AB000AF78603F
:10A1200039607B681800FFF724FF0923BB60BB6818
:10A130001F4A944663449B007B627B6ABB61EFF3DA
:10A1400010837B6172B67B693B61BB69FB60C04673
:10A15000FB681B685A425341DBB2002BF8D1BFF3B6
:10A160005F8FC046C046C0463B693B627B681800B3
:10A17000FFF7BEFF0300FB61FA690E4B9A4203D062
:10A18000FA693B689A4201D1012300E000231A1CBE
:10A1900001231340DBB21800FFF7D8FE3A6A396892
:10A1A0007B681800FFF70EFFC046BD460AB080BDB1
:10A1B00040000034CD81002080B586B000AF7860CB
:10A1C00039607B687B613B683B613A697B69D31A84
:10A1D000043BFB60FB685B101BB25B055B0D1BB2B5
:10A1E000034A13431BB29BB21800BD4606B080BDA4
:10A1F00000E0FFFF80B586B000AF786039607B6813
:10A200007B613B683B613A697B69D31A043B5B081D
:10A21000FB60FB68DB0A9BB25B055B0D9BB2084AE7
:10A2200013439AB27B681A80FB689AB27B68023348
:10A2300004490A4392B21A80C046BD4606B080BDAA
:10A2400000F0FFFF00F8FFFF80B584B000AF78603A
:10A250007B681B885B05FB60FB68002B02DA074A02
:10A26000944663445B15FB60FB6802335B007A68CD
:10A27000D3181800BD4604B080BDC046FFFF1F00C4
:10A2800080B584B000AF78603960084BFB603968F6
:10A29000FA687B685B1A5B415A43120DFA607B6077
:10A2A000FB685BB21800BD4604B080BDAAAA0000DE
:10A2B00080B582B000AF7860054A7B681100180055
:10A2C000FFF7DEFF03001800BD4602B080BDC046A8
:10A2D000C4E0002090B593B000AF786039600923E6
:10A2E000FB60FB68814A944663449B00BB63BB6B85
:10A2F000FB61EFF31083BB6172B6BB697B61FB69E5
:10A300003B61C0463B691B685A425341DBB2002B9C
:10A31000F8D1BFF35F8FC046C046C0467B697B6300
:10A32000FFF730FE02007B6810339B00D3181B68D8
:10A330007B647A6C6E4B9A4200D1CBE07A6C3B68BE
:10A340009A4200D1C6E07B6C1800FFF7BFFE031EE7
:10A3500000D1C1E03323FC187B681800FFF77EFEB4
:10A36000030023707B6800211800FFF75FFEBFF336
:10A370005F8FC046FDF777FE0300FB62FB6A002B90
:10A3800004D07B681033FA6A9A4201D1012300E0BD
:10A3900000231A1C01231340DBB21800FFF7D6FD7F
:10A3A00000233B647B6C1800FFF701FE0300BB62D7
:10A3B000BB6AFB6311E0FB6B3B64FB6B9B795BB29D
:10A3C000002B10DBFB6B9B795BB21A0013005B0068
:10A3D0009B189B00474A9B18FB63FB6B9B683A6882
:10A3E0009A42E8D100E0C046FB6B9B683A689A420B
:10A3F00067D127217B18FA6B92791A700A00BB1873
:10A400001B787F2B39D8BB1800229A5613005B00AB
:10A410009B189B00374A9B183B623B6A9A68FB6B10
:10A420009A603B6ADA79FB6BDA713B6A06229A56CC
:10A43000FB6B9A713B6A9B795BB2002B0EDBFB6B6B
:10A440001C1D3B6A04331800FFF7FEFE03001900D1
:10A450002000FFF7B1FE03001A0001E0BD231A023D
:10A46000FB6B9A80244B00229A563B6A9A71224BCE
:10A470002722BA1812781A7023E0FB6A002B19D130
:10A480003B6C002B06D03B6CFF229A713B6C1B4A45
:10A490009A8001E0164B7B64174B00229A56FB6BA7
:10A4A0009A71FB6B1800FFF703FF03001A00124BB1
:10A4B0001A7006E0FB6B0433114A11001800FFF715
:10A4C00099FE3323FB181A787B6811001800FFF7F8
:10A4D000ADFD01E0064B7B647A6B796C7B681800FC
:10A4E000FFF770FDC046BD4613B090BD400000347C
:10A4F000CD810020C4E0002075ED002000BDFFFFED
:10A50000FEE0002090B593B000AF78607B68180043
:10A51000FFF742FD03003B64FDF7A5FD0300FB636D
:10A520000923FB61FB69494A944663449B00BB6372
:10A53000BB6BFB62EFF31083BB6272B6BB6A7B62DC
:10A54000FB6A3B62C0463B6A1B685A425341DBB21E
:10A55000002BF8D1BFF35F8FC046C046C0467B6A70
:10A560007B633323FC187B681800FFF7A1FE030010
:10A570002370FFF707FD0200FB6B9B00D3181B68DD
:10A580003A6C9A4208D1FFF7FDFC0200FB6B9B007E
:10A59000D3182F4A1A6035E03223FB1800221A70B4
:10A5A00000237B642BE02B497A6C13005B009B1823
:10A5B0009B00CB1806331B785BB23322BA18127893
:10A5C00052B29A4218D123497A6C13005B009B184F
:10A5D0009B00CB180633FF221A701E497A6C1300B9
:10A5E0005B009B189B00CB1804331B4A1A80322354
:10A5F000FB1801221A7005E07B6C01337B647B6CD5
:10A60000032BD0D9154B00229A567B689A71134BB5
:10A610003322BA1812781A70BB6BBB617B6B7B61FB
:10A62000BB693B61BFF35F8FC046C0463B690022F8
:10A630001A60C0467B69FB60FB6883F31088C046E4
:10A64000C046C046BD4613B090BDC0464000003471
:10A65000CD810020C4E0002000BDFFFF75ED00208B
:10A6600080B584B000AF0B4B7B600B4BFB600023CD
:10A67000BB6007E0FB681A1DFA607A681A60BB6865
:10A680000133BB60BB68072BF4D9C046C046BD464A
:10A6900004B080BD8080808000E400E080B584B09C
:10A6A00000AF786039603B68FB60FB68054A944600
:10A6B00063449B001A007B681A60C046BD4604B024
:10A6C00080BDC0464000003480B582B000AF386025
:10A6D00079603A687B6810001900BD4602B080BD01
:10A6E00080B584B000AFF8603A607B60F9683A6882
:10A6F0007B680A604B60C046BD4604B080BD000068
:10A70000B0B586B000AF386079603A687B681000F9
:10A710001900FFF7D9FF02000B003A617B617B69EA
:10A720001C0000231D002300FB600D4B5B6ABB6017
:10A73000BA68FB689A420AD3094B9A6A3B699A4203
:10A7400003D2BA68FB689A4201D0012300E00023DB
:10A750001A1C01231340DBB21800BD4606B0B0BD81
:10A760000040054080B582B000AF00F067FE0200F7
:10A770000B0039000800FFF7B3FF3A687B68100050
:10A780001900BD4602B080BD80B58AB000AFB86088
:10A79000F9603A607B60BA68FB6810001900FFF747
:10A7A00093FF02000B00BA61FB61B869F9693A686E
:10A7B0007B6812184B413A627B62FA697B6A9A4263
:10A7C00007D8FA697B6A9A4208D1BA693B6A9A4209
:10A7D00004D901225242D3173A627B623A6A7B6AF9
:10A7E000102179180800FFF77BFF3A697B69100098
:10A7F0001900BD460AB080BD80B582B000AF386098
:10A800007960FFF7AFFF3A687B68FFF7BDFF020092
:10A810000B0010001900BD4602B080BDB0B584B079
:10A8200000AFB860F9603A607B603A687B681000FE
:10A830001900FFF749FF04000D00BA68FB6810001B
:10A840001900FFF741FF02000B00A41A9D412200EE
:10A850002B0010001900BD4604B0B0BD80B588B013
:10A8600004AFB860F9607A603B6000F0CDF9BA6877
:10A87000FB68182179180978029139680191796883
:10A88000009100F0E1FB03001800BD4604B080BD5C
:10A8900080B582B000AF78600A00FB1C1A707B683C
:10A8A0001968FB1C1A7813005B009B18033BCB183C
:10A8B0001800BD4602B080BD80B584B000AF78609E
:10A8C00008001100FB1C021C1A70BB1C0A1C1A7029
:10A8D000FB1C1A787B6811001800FFF7D9FF0300F2
:10A8E000FB60BB1C1A787B6811001800FFF7D0FFD3
:10A8F0000300BB60BB68FA1C12789A70FB681B7877
:10A90000002B04D1FB68BA1C12781A7007E0FB68B0
:10A910001A78BB685A70FB68BA1C12781A70C04665
:10A92000BD4604B080BD90B583B000AF786008002C
:10A930001100FB1C021C1A70BB1C0A1C1A70FB1CA9
:10A940001B78002B02D1BB1C1B7827E0BB1C1B789B
:10A95000002B02D1FB1C1B7820E07B685C687B68C5
:10A960009868BB1C1A78FB1C1B781900A047031EB3
:10A970000AD0BB1C1A78FB1C19787B681800FFF7FB
:10A980009BFFFB1C1B7809E0FB1C1A78BB1C197889
:10A990007B681800FFF790FFBB1C1B781800BD46B2
:10A9A00003B090BD80B584B000AF78607B689B7BBE
:10A9B000002B01D1002326E00F217B187A68927BBF
:10A9C0001A707B181A787B6811001800FFF760FF77
:10A9D0000300BB60BB685A787B689A737B689B7B7B
:10A9E000002B02D17B680022DA73BB6800229A70C8
:10A9F000BB689A78BB685A70BB685A78BB681A7093
:10AA00000F23FB181B781800BD4604B080BD80B52D
:10AA100084B000AF78600A00FB1C1A70FB1C1A7827
:10AA20007B6811001800FFF733FF0300FB60FB6831
:10AA300000229A70FB689A78FB685A70FB685A7813
:10AA4000FB681A707B68597BFB1C1A787B681800BE
:10AA5000FFF769FF03001A007B685A737B685B7B12
:10AA60001800BD4604B080BD80B582B000AF7860EC
:10AA70007B685B7B1800BD4602B080BD80B582B0AC
:10AA800000AF78600A00FB1C1A707B68DB7B002B30
:10AA90000AD07B68DA7B7B6811001800FFF7F8FEAC
:10AAA0000200FB1C1B7853707B68FA1C1278DA7367
:10AAB000C046BD4602B080BD80B500AF034B5B68A9
:10AAC0005A1E9341DBB21800BD4680BD1CE1002038
:10AAD00080B582B000AF78600A00FB1C1A707B68FA
:10AAE0009A68FB1C1B7804498C4663441B01D318ED
:10AAF0001800BD4602B080BDFFFFFF0F80B582B0D9
:10AB000000AF78600A00FB1C1A707B68DA68FB1CD7
:10AB10001B78013BD3181800BD4602B080BDB0B50C
:10AB200084B000AF786008001100FB1C021C1A7092
:10AB3000BB1C0A1C1A707B68FB60FB1C1A78FB6844
:10AB400011001800FFF7C4FF03001A685B681000CB
:10AB50001900FFF7B9FD04000D00BB1C1A78FB6853
:10AB600011001800FFF7B4FF03001A685B681000BB
:10AB70001900FFF7A9FD02000B000121AB4204D828
:10AB800001D1A24201D80023191CCBB21800BD4646
:10AB900004B0B0BD80B582B000AF0200FB1D1A70DA
:10ABA000BB1D0A1C1A70FB1D1B781A02BB1D1B78EB
:10ABB00013431800BD4602B080BD000080B500AF51
:10ABC000FFF77AFF03001A0001235340DBB2002B8A
:10ABD0000BD00A4B1868094B094A102100F094FF6A
:10ABE000064B0321180000F0FDF9064B0A2118005E
:10ABF000FFF754FDC046BD4680BDC0461CE10020A5
:10AC00001FAB002060ED002080B500AF014B1800A5
:10AC1000BD4680BD1CE10020F0B589B000AFF860F2
:10AC20003A607B6038220823FB189B181B78002BA6
:10AC300008D01F23FB1808218C46BC4462441278BC
:10AC40001A7008E0FB681B681F22BC181800FFF789
:10AC5000A9FE030023701F257B191B78002B4CD005
:10AC60007B191A78FB6811001800FFF731FF030009
:10AC7000BB61B9693A687B680A604B60BB69BA6BB3
:10AC80009A60BB69FA6BDA60FB681A687B191B78FB
:10AC900019001000FFF7BBFE03001A007B191B7898
:10ACA00093422AD1FB681B7D19001726BC193A680C
:10ACB0007B68080000F05CFD03002370BB191B7863
:10ACC000002B12D03C2308229446BC4463441B78DA
:10ACD00001225340DBB2002B07D0FB681A687B19B6
:10ACE0001B781900100001F043F8BB6C002B04D056
:10ACF000BB6C1722BA1812781A701F23FB181B7826
:10AD00001800BD4609B0F0BDB0B5A8B006AF786078
:10AD1000B34B7A689200D358FB66FFF723FD02001D
:10AD20000B003A667B6600238022BA18136000226B
:10AD30000023BA67FB6700237B678723FB18002289
:10AD40001A70FB6E5B687B64EFF310833B6472B632
:10AD50003B6CFB637B6CBB63C046BB6B1B685A429E
:10AD60005341DBB2002BF8D1BFF35F8FC046C04622
:10AD7000C046FB6BFB65FB6E1B685B257C191800EE
:10AD8000FFF772FE030023707B191B78002B53D052
:10AD90007B191A78FB6E11001800FFF799FE03006B
:10ADA0007B657B6D1A685B68386E796EFFF736FDE0
:10ADB00002000B00002B32DC01D1002A2FD1FB6EE8
:10ADC0001B6853257C190021180000F0AFFF030019
:10ADD00023707B6D1A685B68BA67FB677B6D9B6845
:10ADE0008022BA1813607B6DDB687B675B23FB18DE
:10ADF0001A78FB6E11001800FFF780FE0200732125
:10AE00007B1812781A707B191A787B181B7811003E
:10AE10001800FFF7BFFE0200FB6E1A610CE07B6DAD
:10AE20001A685B687968080000F0A2FC031E03D072
:10AE30008723FB1801221A70FB6E5B687B63FB6D36
:10AE40003B637B6BFB62BFF35F8FC046C046FB6A10
:10AE500000221A60C0463B6BBB62BB6A83F310885A
:10AE6000C046C04680243B191B68002B00D1ACE0D3
:10AE70005B23FB181A787323FB181B78110018004A
:10AE8000FFF788FE7A6F3B191B6811009847020094
:10AE90000B00BA64FB64FB6E5B687B62EFF31083AC
:10AEA0003B6272B63B6AFB617B6ABB61C046BB69B1
:10AEB0001B685A425341DBB2002BF8D1BFF35F8FBE
:10AEC000C046C046C046FB69FB65FB6C002B23DA1D
:10AED000FB6E1B69002B1FD0BA6CFB6C002000219D
:10AEE000801A994102000B00B86FF96FFFF74CFC14
:10AEF00002000B00F86E00210491012103915B21F7
:10AF0000791809780291796F01918021791809687F
:10AF10000091FFF781FE3BE0FB6C002B05DCFB6C36
:10AF2000002B20D1BB6C002B1DD0FB6E1B69002BAE
:10AF300019D0FFF717FCBA6CFB6CFFF725FC020079
:10AF40000B00F86E00210491012103915B21791817
:10AF500009780291796F019180217918096800912F
:10AF6000FFF75AFE14E0FB6E1A685B243B191B784E
:10AF700019001000FFF782FD3B191A78FB6E1100D3
:10AF80001800FFF7BBFD03001A780132D2B21A7025
:10AF9000FB6E00221A61FB6E5B687B61FB6D3B619F
:10AFA0007B69FB60BFF35F8FC046C046FB68002231
:10AFB0001A60C0463B69BB60BB6883F31088C0461B
:10AFC000C0468723FB1801221A708723FB181B78C1
:10AFD000002B00D0A1E6C046C046BD4622B0B0BDA1
:10AFE0004CEB002080B584B000AF786039603B68DE
:10AFF000180000F00DFA3B68180000F087FC0F4ABB
:10B000003B681100180000F019FBFEF787FF0300F2
:10B01000FB60FB680A4A944663449B001A007B6805
:10B020005A603B68DAB27B681A75064B3A68920040
:10B030007968D150C046BD4604B080BD09AD00203E
:10B04000400000344CEB0020B0B59AB006AFF86079
:10B050003A607B601723FB1800221A704B23FB1801
:10B0600000221A70FB685B687B63EFF310833B631D
:10B0700072B63B6BFB627B6BBB62C046BB6A1B68F4
:10B080005A425341DBB2002BF8D1BFF35F8FC04669
:10B09000C046C046FB6A7B6443257C193A687B68DE
:10B0A000F868172179180491002103910021029179
:10B0B000796E0191396E0091FFF7AEFD03002370A8
:10B0C0007B191B78002B0BD07B191A78FB681100B9
:10B0D0001800FFF713FD02004B23FB1812781A70BB
:10B0E000FB685B687B627B6C3B627B6AFB61BFF3E6
:10B0F0005F8FC046C046FB6900221A60C0463B6AAB
:10B10000BB61BB6983F31088C046C0464323FB186C
:10B110001B78002B02D101235B424CE01723FB1864
:10B120001B78002B0BD14323FB181A784B23FB18F9
:10B130001B7811001800FFF72DFD030000E000232D
:10B14000FB641723FB181B78002B33D06823FB18F4
:10B150001B78002B2ED0796EFA6C3B6E100098474E
:10B1600002000B00BA63FB63BB6BFA6B134302D1A3
:10B170000023FB641EE0FB6B002B10DABA6BFB6B49
:10B1800000200021801A994102000B00386879687C
:10B19000FFF7FAFA02000B003A607B605EE7FFF708
:10B1A000E1FABA6BFB6BFFF7EFFA02000B003A60B3
:10B1B0007B6053E7FB6C1800BD4614B0B0BD0000C7
:10B1C00080B58CB000AF786039601C4B1B68BB61E8
:10B1D000EFF310837B6172B67B693B61BB69FB60F7
:10B1E000C046FB681B685A425341DBB2002BF8D1C2
:10B1F000BFF35F8FC046C046C0463B69FB620F4B42
:10B200001B68BB62FB6A7B62BB6A3B62BFF35F8FFA
:10B21000C046C0463B6A00221A60C0467B6AFB619A
:10B22000FB6983F31088C046C04640BFC046002279
:10B23000002310001900BD460CB080BD60ED002059
:10B2400080B594B002AF386079603A687B681000CE
:10B250001900FFF739FA02000B00BA63FB63BA6BFF
:10B26000FB6B06204042C11712184B413A647B64C5
:10B270007A6CFB6B9A4207D87A6CFB6B9A4207D1C7
:10B280003A6CBB6B9A4203D9002200233A647B6478
:10B290003A6C7B6C082179180800FFF721FAFFF758
:10B2A00061FABA68FB68FFF7B9FA02000B00002BDD
:10B2B00002DC4BD1002A49D0B868F968284A00233B
:10B2C00000930023FFF7CAFA031E3FDB31E0254B52
:10B2D0001B683B62EFF31083FB6172B6FB69BB61D5
:10B2E0003B6A7B61C0467B691B685A425341DBB2B3
:10B2F000002BF8D1BFF35F8FC046C046C046BB6984
:10B300007B63184B1B683B637B6BFB623B6BBB62D5
:10B31000BFF35F8FC046C046BB6A00221A60C046BA
:10B32000FB6A7B627B6A83F31088C046C04620BFFD
:10B33000C046BA68FB6810001900FFF7E1F9030086
:10B340001A0001235340DBB2002BC0D13A687B685E
:10B350001000190000F0A2F8C046BD4612B080BD32
:10B36000C1B1002060ED002080B582B000AF386030
:10B3700079603A687B6810001900FFF73DFA020017
:10B380000B0010001900FFF75BFFC046BD4602B07E
:10B3900080BDB0B582B000AF78607B681C00002330
:10B3A0001D00FA22920000232000290001F0B6FCC3
:10B3B00002000B0010001900FFF7D6FFC046BD4683
:10B3C00002B0B0BD80B582B000AF386079603A6835
:10B3D0007B6810001900BD4602B080BD80B582B008
:10B3E00000AF7860C046BD4602B080BD80B582B077
:10B3F00000AF78607B681F221A40044B0121914006
:10B400000A001A60C046BD4602B080BD80E200E07E
:10B4100080B582B000AF78607B681800FFF7DEFF70
:10B42000044A7968044B1800FEF713FDC046BD4678
:10B4300002B080BDB8DE002074ED0020F0B587B00A
:10B4400000AF154E766A7E61134EB66A3E61124EAB
:10B45000766AFE607E69B446FE68B44502D0FE6836
:10B460007E61F1E7C0467E693E6000267E603E68F0
:10B470003300002632003E693000002631001600FD
:10B48000064334000B431D0022002B00100019005E
:10B49000BD4607B0F0BDC04600400540B0B588B01D
:10B4A00000AF386079603A687B6810001900FFF7D8
:10B4B00089FF02000B003A617B617B691C0000235D
:10B4C0001D002300FB600F4B5B6AFB6103E00D4B2B
:10B4D0005B6AFB61C046FA69FB689A42F7D303E0F6
:10B4E000084B5B6AFB61C046FA69FB689A4204D16B
:10B4F000044B9A6A3B699A42F2D3C046BD4608B0F3
:10B50000B0BDC0460040054080B582B000AF786055
:10B510007B681800BD4602B080BD000080B58EB0CB
:10B5200000AFEFF305833B633B6B3F221340103BBF
:10B53000FB62FB6A1800FFF751FF00237B630A23BD
:10B540003B613B69384A944663449B00BB62BB6ADB
:10B550003B62EFF31083FB6172B6FB69BB613B6A30
:10B560007B61C0467B691B685A425341DBB2002BAA
:10B57000F8D1BFF35F8FC046C046C046BB697B624F
:10B580002A4B0121FA6A91400A005A63284B1B7822
:10B590001A00FB6ADA4013000122134024D0234B27
:10B5A0005A6A244BF96A8900CB589A4212D3224B2B
:10B5B000FA6A9200D3587B630122FB6A9A40130017
:10B5C000DBB2DB43DBB21A4A12781340DAB2184B13
:10B5D0001A7009E0154A1549FB6A04339B009A5812
:10B5E000FB6A04339B005A50BB6AFB607B6ABB60FA
:10B5F000FB687B60BFF35F8FC046C0467B6800225C
:10B600001A60C046BB683B603B6883F31088C04645
:10B61000C0467B6B002B03D0FA6A7B6B1000984707
:10B62000C046BD460EB080BD40000034004005401D
:10B6300076ED002064ED0020A8E6002080B590B0F3
:10B6400000AF786039607B681800FFF7C7FE7B6841
:10B650001800FFF759FF0300FB630A233B623B6AB4
:10B660003E4A944663449B00BB63BB6B3B63EFF372
:10B670001083FB6272B6FB6ABB623B6B7B62C046A7
:10B680007B6A1B685A425341DBB2002BF8D1BFF3EF
:10B690005F8FC046C046C046BB6A7B633B68002BD9
:10B6A00026D0FB6B1800FEF723FD02002C4B9A42BC
:10B6B00018D02B4AFB6B11001800FEF72DFDFB6B19
:10B6C00001211800FEF7B2FC01227B689A401300AA
:10B6D000244AFA61BB61FB69802292011343BA6973
:10B6E0001A60C046204B7A6892003968D1501CE03D
:10B6F0001D4B7A6892000021D15001227B689A404C
:10B700001300DBB2DB43DBB2184A12781340DAB223
:10B71000164B1A70124AFB6B11001800FEF7DAFD87
:10B72000FB6B00211800FEF781FCBB6B7B617B6B20
:10B730003B617B69FB60BFF35F8FC046C046FB681F
:10B7400000221A60C0463B69BB60BB6883F3108867
:10B75000C046C046C046BD4610B080BD4000003463
:10B760001DB5002038400540A8E6002076ED0020F9
:10B77000B0B596B000AFF8603A607B60FFF75EFE50
:10B7800002000B00BA64FB643A687B681000190081
:10B79000FFF718FE02000B003A647B647A6CFB6CC6
:10B7A0009A420CD87A6CFB6C9A4203D13A6CBB6C0F
:10B7B0009A4204D85723FB1801221A7096E05723A7
:10B7C000FB1800221A700A233B623B6A4B4A9446DC
:10B7D00063449B00FB63FB6B3B63EFF31083FB62F3
:10B7E00072B6FB6ABB623B6B7B62C0467B6A1B68BE
:10B7F0005A425341DBB2002BF8D1BFF35F8FC046F2
:10B80000C046C046BB6ABB633723FB183C4A12786C
:10B810001A700122FB689A401300DAB2384B1B7889
:10B820001343DAB2364B1A70364B0121FA68914055
:10B830000A005A6333493A6CFB6804339B005A5040
:10B840007B6C1C0000231D0021002F4BFA68920026
:10B85000D1502C4B1B6A0121FA6891400A00134019
:10B860002FD0FFF7EBFD02000B00796C994228D82E
:10B87000796C994202D1396C914222D85723FB1836
:10B8800001221A701E4B1B7837243A1912789A42FB
:10B8900017D01C4B0121FA6891400A001A62194B1B
:10B8A0000121FA6891400A005A63FB681800FFF70B
:10B8B0002BFE03001800FFF799FD114B3A1912787F
:10B8C0001A70FB6BFB61BB6BBB61FB697B61BFF3F8
:10B8D0005F8FC046C0467B6900221A60C046BB69C4
:10B8E0003B613B6983F31088C046C0465723FB1871
:10B8F0001B781800BD4616B0B0BDC04640000034ED
:10B9000076ED00200040054064ED002080B58EB04B
:10B9100000AF78607B681800FFF760FD0A23FB60CA
:10B92000FB68254A944663449B007B637B6BFB6109
:10B93000EFF31083BB6172B6BB697B61FB693B614E
:10B94000C0463B691B685A425341DBB2002BF8D119
:10B95000BFF35F8FC046C046C0467B693B63174B51
:10B9600001217A6891400A001A6201227B689A409C
:10B970001300DBB2DB43DBB2114A12781340DAB2B8
:10B980000F4B1A707B6BFB623B6BBB62FB6A7B628B
:10B99000BFF35F8FC046C0467B6A00221A60C04674
:10B9A000BB6A3B623B6A83F31088C046C046C04610
:10B9B000BD460EB080BDC04640000034004005408A
:10B9C00076ED002080B582B000AF78600A00FB1CE5
:10B9D0001A707B681968FB1C1A7813005B009B18AF
:10B9E000033BCB181800BD4602B080BD80B584B0C3
:10B9F00000AF786008001100FB1C021C1A70BB1C11
:10BA00000A1C1A70FB1C1A787B6811001800FFF7DB
:10BA1000D9FF0300FB60BB1C1A787B68110018007B
:10BA2000FFF7D0FF0300BB60BB68FA1C12789A7066
:10BA3000FB681B78002B04D1FB68BA1C12781A70C3
:10BA400007E0FB681A78BB685A70FB68BA1C12786A
:10BA50001A70C046BD4604B080BD90B583B000AF3B
:10BA6000786008001100FB1C021C1A70BB1C0A1C29
:10BA70001A70FB1C1B78002B02D1BB1C1B7827E023
:10BA8000BB1C1B78002B02D1FB1C1B7820E07B68C1
:10BA90005C687B689868BB1C1A78FB1C1B781900D3
:10BAA000A047031E0AD0BB1C1A78FB1C19787B68C0
:10BAB0001800FFF79BFFFB1C1B7809E0FB1C1A78A2
:10BAC000BB1C19787B681800FFF790FFBB1C1B7824
:10BAD0001800BD4603B090BD80B582B000AF78605D
:10BAE0007B685B7B1800BD4602B080BD80B582B02C
:10BAF00000AF78607B680121180000F017F903009F
:10BB00001800BD4602B080BD80B584B000AFF860BB
:10BB1000B9607A603B60BB68DAB2FB681A73FB6895
:10BB20007A685A60FB683A689A60FB68180000F00F
:10BB300004F8C046BD4604B080BD90B585B000AFE6
:10BB400078607B6800225A737B6801229A737B6855
:10BB50001A7B7B68DA730F23FB1801221A7013E03B
:10BB60000F243B191A787B6811001800FFF72AFF91
:10BB7000020021007B181B780133DBB253707B1865
:10BB80001A787B1801321A707B681B7B0F22BA1857
:10BB900012789A42E4D37B681A7B7B681100180004
:10BBA000FFF710FF030000225A70C046BD4605B0E3
:10BBB00090BDF0B585B000AF78600A00FB1C1A702C
:10BBC000FB1C1B78002B0AD0FB1C1A787B68110029
:10BBD0001800FFF7F7FE03005B78002B02D1FB1C77
:10BBE0001B784AE00F26BB19FA1C12781A70FB1C4E
:10BBF0001A787B6811001800FFF7E4FE02000E259A
:10BC00007B1952781A707B191A787B68110018001A
:10BC1000FFF7D8FE02000D23FB1852781A707B192B
:10BC20001A787B6811001800FFF7CCFE040000238F
:10BC30006370BB191A787B6811001800FFF7C2FE09
:10BC4000030062785A707B191A78BB1919787B68DF
:10BC50001800FFF702FF03001C000D23FB181A78E1
:10BC60007B6811001800FFF7A4FF03001A007B682F
:10BC700021001800FFF7F1FE03001800BD4605B0D3
:10BC8000F0BD90B585B000AF786008001100FB1CD6
:10BC9000021C1A70BB1C0A1C1A70FB1C1A787B68E9
:10BCA00011001800FFF78EFE03001A780F23FC180E
:10BCB0007B6811001800FFF77CFF03002370BB1C9A
:10BCC0001B78002B12D07B68DB7B002B0AD07B68B3
:10BCD000DA7B7B6811001800FFF774FE0200FB1C82
:10BCE0001B7853707B68FA1C1278DA730F22BB182A
:10BCF0001B78002B09D0BB181A787B68110018003C
:10BD0000FFF760FE030000229A70FB1C1A787B6824
:10BD100011001800FFF756FE030000225A700F238F
:10BD2000FB181B781800BD4605B090BDB0B584B0B7
:10BD300000AF78600A00FB1C1A700F257C197B6825
:10BD40001800FFF7C9FE03002370FB1C1A782C00B3
:10BD50003B1919787B681800FFF793FF03001A005E
:10BD60007B685A733B191B781800BD4604B0B0BD00
:10BD7000B0B588B000AF78600A00FB1C1A70FB1CDD
:10BD80001B78002B01D1002378E07B685B7BFA1CD9
:10BD900012789A4205D17B681800FFF7A7FE0123AD
:10BDA0006CE0FB1C1A787B6811001800FFF70AFE94
:10BDB0000300BB61BB699B78002B01D100235DE0D0
:10BDC000BB699A787B6811001800FFF7FBFD030040
:10BDD0007B617B691B78FA1C12789A4204D1BB699B
:10BDE0005A787B691A702AE01F23FB187A69127847
:10BDF0001A701323FB1800221A701F23FB181A78DD
:10BE00007B6811001800FFF7DDFD0300FB60FB6895
:10BE10005B78FA1C12789A4208D1BB695A78FB68A1
:10BE20005A701323FB1801221A7008E01F217B1897
:10BE3000FA6852781A707B181B78002BDDD1BB6929
:10BE400000229A70BB699A78BB695A700B257C19DD
:10BE5000FB1C19787B6801221800FFF712FF030012
:10BE600023707B68597B7B191A787B681800FFF771
:10BE7000F4FD03001A007B685A7301231800BD46C5
:10BE800008B0B0BD90B583B000AF78607C68FEF7B5
:10BE900045F8030019002000FEF700FC7B68FF2234
:10BEA0001A71BFF35F8FC046C046C046BD4603B09F
:10BEB00090BD90B583B000AF78607C68FEF72EF837
:10BEC000030019002000FEF7E9FB7B68FF221A71CE
:10BED0007B6800225A71BFF35F8FC046C046C046E0
:10BEE000BD4603B090BD80B500AF00BEC046BD46A4
:10BEF00080BD000080B584B000AF7860074BFB6068
:10BF00007B68BB60FB68802292011343BA681A60A9
:10BF1000C046C046BD4604B080BDC04600C000401B
:10BF200080B584B000AF78600B4BFB607B68BB6072
:10BF3000FB68C02292011343BA681A60C04600E051
:10BF4000C046054B9B68DB437A681340F8D1C04676
:10BF5000C046BD4604B080BD00C0004080B586B07C
:10BF600000AF2D4B1800FFF7C5FF2C4B1800FFF753
:10BF7000D7FF2B4B7B6105E07B691B6898477B698A
:10BF800004337B617A69274B9A42F5D300F0D6F9E6
:10BF9000254B1800FFF7C4FF244A40239367234A28
:10BFA0005367224A1367214AD366214B3B6116E04F
:10BFB0003B691B68002B09D03B697B607B681800DC
:10BFC000FFF777FF7B6808333B6108E03B69BB60A4
:10BFD000BB681800FFF756FFBB6808333B613A693E
:10BFE000144B9A42E4D3FDF775FFFEF739FBFEF7D9
:10BFF000E5FD114BFB6005E0FB681B689847FB689B
:10C000000433FB60FA680D4B9A42F5D3C046C04634
:10C01000BD4606B080BDC046BFCDFBFEFE7F3C00E6
:10C0200098E50020A8E50020FFFFFF0100F0014097
:10C0300090E5002098E50020A8E50020A8E5002074
:10C0400080B582B000AF7860FFF74DFFFCE780B5A8
:10C0500082B000AF78607B681800FFF7F1FF000046
:10C060000FB480B582B000AF0B4B180001F038F868
:10C070003B69002B0CD01423FB187B607A683B696A
:10C080001100180000F00CFB044B180001F028F818
:10C090000120FFF7D5FFC04630DF002040DF002041
:10C0A00080B500AF014B1800FFF7DAFF44DF002036
:10C0B00080B582B000AF0200FB1D1A70FB1D1B781B
:10C0C000052B03D0FB1D1B78042B01D1012300E0BD
:10C0D00000231A1C01231340DBB21800BD4602B036
:10C0E00080BD0000F0B5A3B000AF3963FA62BB6257
:10C0F0000F232822BA18D218031C13709823082281
:10C100009446BC4463441A68BB6A9A4201D900232E
:10C110000CE1BB6A3B6200237B623A6A7B6A1100D6
:10C12000090EF96113001B02BB6198230822944693
:10C13000BC4463441B683B6100237B613A697B69B3
:10C14000B869F96900F078FB02000B001300842045
:10C150003A1813600F2328229446BC4463441A788B
:10C1600013005B009B189B00724A94466344802135
:10C170007A1813607B181B685B683A1812689A4239
:10C1800004D97B181B683A1812685A600F232822BA
:10C190009446BC4463441B781800FFF789FF031ED4
:10C1A00019D03B6B012B16D18023FB181B68BB6792
:10C1B00003237B67BB6FC022920113437A6F1A601F
:10C1C000C04600E0C0468023FB181B689B68012224
:10C1D0001340F7D029E08023FB181B683B678023BE
:10C1E0001B01FB663B6FC02292011343FA6E1A607B
:10C1F000C0460F212826BB195B181A784E4B9200B7
:10C20000D358002B11D04C4B5869BB195B181A78C6
:10C21000494B9200D358190000F0CCFA03000133C7
:10C22000FB67FB6F013BFDD1FB678026BB191A68DA
:10C23000FB6A5B01BA667B66E0233B66BB6E1A68ED
:10C240007B6E53403A6E1340BA6EFA65BB65FB6D68
:10C25000802252011343BA6D1A60C046C0460F23B4
:10C2600028229446BC4463441B781800FFF720FF43
:10C27000031E23D0BB191B687B653B6B3B65032307
:10C28000FB647B6D1A683B6D5340FA6C13407A6D0A
:10C29000BA647B64BB6C8022520113437A6C1A60CF
:10C2A000C046C04600E0C0468023FB181B689B6860
:10C2B00001213A6B91400A001340F4D080217B1891
:10C2C0001B683B6480231B01FB633B6C8022920153
:10C2D0001343FA6B1A60C0467B181B6884203A1817
:10C2E00012685A60BB6ABB600023FB60BA68FB68D7
:10C2F00011000D0E13001C023B181B683B6000234D
:10C300007B603A687B682000290000F095FA020003
:10C310000B00100019000F2328229446BC446344EC
:10C320001A780100044B9200D15001231800BD4639
:10C3300023B0F0BD00800040B8EA002080B588B08E
:10C3400002AF0C2000F050F9FDF7B6FD031E11D02E
:10C3500000237B6107E03F4B7A6992003E49D15050
:10C360007B6901337B617B69092BF4D9394B3B4AEB
:10C370005A626CE03A4B00229A6700F045F9394B5B
:10C380003B610123FB603B69C02292011343FA68C1
:10C390001A60C04600E0C046314B5B6C012BFAD1FD
:10C3A000314BBB6003237B60BB68C0229201134307
:10C3B0007A681A60C04600E0C046294B9B6B012B8F
:10C3C000FAD12A4A2A48022300930623012100F0C9
:10C3D0008DF8284A2848052300930523012100F001
:10C3E00085F8264A254B00931300002202210420E1
:10C3F000FFF778FE224A224B00931300002201210E
:10C400000520FFF76FFE144A134B00931300002220
:10C4100000210720FFF766FE0F4A0F4B0093130021
:10C42000002200210820FFF75DFE0B4A0B4B009312
:10C430001300002200210920FFF754FE104A104B80
:10C4400000931300002200210620FFF74BFEBD469B
:10C4500006B080BDB8EA0020006CDC021BB700000B
:10C46000008000403C80004030800040002F685930
:10C4700000800240008C864700C00240001BB700CD
:10C480004059730780B584B000AF7860074BFB60FC
:10C490007B68BB60FB68802292011343BA681A6014
:10C4A000C046C046BD4604B080BDC04600C0004086
:10C4B00080B584B000AF78600B4BFB607B68BB60DD
:10C4C000FB68C02292011343BA681A60C04600E0BC
:10C4D000C046054B9B68DB437A681340F8D1C046E1
:10C4E000C046BD4604B080BD00C0004080B58EB0DF
:10C4F00000AFF860B9607A603B60B9680C2000F06A
:10C5000059F903007B63796B0A005201521A9301B7
:10C510009B1ADB005B189B011900786800F04AF950
:10C5200003003B633B681A043B6C1B031343FB6231
:10C53000FB681B68002B15DAFB681B683F22134061
:10C54000BA689A420ED1FB689B681B051B0D3A6BBB
:10C550009A4207D1FB68DA68EE23DB021340FA6ADD
:10C560009A423AD0FB681F4A934202D180239B0132
:10C5700001E080235B01BB62BB6A1800FFF782FF0A
:10C58000BB6A1800FFF794FFFB68BA681A60FB6883
:10C590003A6B9A6021237B62FB6804333B627B6ABF
:10C5A000FB613B6AC02292011343FA691A60C046DC
:10C5B00000E0C046FB681B68002BFADAFB68FA6AE9
:10C5C000DA60FB680433BB6108237B61BB69C0226E
:10C5D000920113437A691A6000E0C046BD460EB06E
:10C5E00080BDC04600C0024080B582B000AF786018
:10C5F000044B7A68802189000A43DA62C046BD464E
:10C6000002B080BD0080054080B582B000AF0E4B07
:10C61000AA2212011A600C4B2F22DA600A4B7B60AF
:10C620000A4B3B607B688022920113433A681A6090
:10C63000C046C046044B5B68002BFBDAC046C046D0
:10C64000BD4602B080BDC0460040024000B0FA00C6
:10C6500080B582B000AF0200FB1D1A70FB1D1B7875
:10C66000180000F029FDC046BD4602B080BD80B56F
:10C6700084B000AFB9607A603B600F217B18021C68
:10C680001A700A00BB181B78002B04D0BB181B784B
:10C690001800FFF7DDFFC046BD4604B080BD0000B6
:10C6A000B0B586B002AF786039600D4B1B68002BC7
:10C6B0000DD00B4B1C687D6801235A420C23F918DE
:10C6C00008483B6800932B00A047012304E07B68E7
:10C6D000180000F005FD00231800BD4604B0B0BDF1
:10C6E00048EB00206FC6002001480421014B184789
:10C6F00040E100204DC7002080B586B000AF7860D3
:10C700007B687B6118231B883B6114231B88FB60BB
:10C710007969FA683B691000984703001800BD4624
:10C7200006B080BD80B584B000AF786018231B8848
:10C73000FB6016231B88BB607968BA68FB68100031
:10C74000984703001800BD4604B080BD80B584B092
:10C7500000AF786039600F23FB1801221A700023A4
:10C76000BB601CE0BB689B007A68D3181B6818008C
:10C77000FFF7C2FF0100BB689B007A68D3180A006C
:10C780001A60BB689B007A68D3181B68002B03D122
:10C790000F23FB1800221A70BB680133BB60BA6814
:10C7A0003B689A42DED30F23FB181B781800BD4666
:10C7B00004B080BD114A936F9B0813D21066516676
:10C7C000002905D0FFE7FFE7FFE7516F106F7047C3
:10C7D00004B5002801D00020C04300F0BBFC0021BC
:10C7E00004BDC046F0B5146E556E576F166FFFF757
:10C7F000E5FF1466556657671667F0BD000000D068
:10C8000094464E4A926F9208624601D230E0C0468A
:10C81000F0B54A4EB56F6D08FCD3346E756E776F08
:10C82000366F00F025F89446444A146655665767FB
:10C8300016676246F0BDC0469446404A926F920821
:10C84000624601D258E0C046F0B53C4EB56F6D0867
:10C85000FCD3346E756E776F366F00F04DF89446EA
:10C86000364A14665566576716676246F0BDC0467D
:10C87000002B24DB11D000293EDA00B5C943404229
:10C8800000D1013100F038F8C943404200D10131F4
:10C89000DB43524200D1013300BD002AEBD1002816
:10C8A00001D1002905D00020C90FC90701D1C0431B
:10C8B000410800B500F04EFC0022002300BD00B589
:10C8C00000290ADBDB43524200D1013300F014F8A7
:10C8D000C943404200D1013100BDC943404200D1AB
:10C8E0000131DB43524200D1013300F005F8DB4354
:10C8F000524200D1013300BD002923D1002B18D1B1
:10C90000002A0CD0BC460D4F38667A660021002301
:10C91000FFE7FFE7FFE77A6F386F67467047002849
:10C9200001D00748010000B500F014FC00220023EC
:10C9300000BD02000B00002000217047000000D065
:10C94000FFFFFFFF002B00D0BFE0130C28D1002A0F
:10C95000E7D080B4114F39667A66FFE7FFE730B45D
:10C96000040C7B6F396F1B0423433B667A66FFE739
:10C97000FFE7FFE7C04684B27B6F3D6F1B04234394
:10C980003B667A66FFE7FFE7C04600232C042D0CC8
:10C990007A6F386F00196941B0BC7047000000D051
:10C9A000F0B594460025140E01D112020835140F7B
:10C9B00001D112010435940F01D192000235D40F38
:10C9C00001D152000135D40B0134254F7C66254C32
:10C9D0003C660E0C93B2FFE7FFE7FFE73C6F664350
:10C9E000360C7703BE467343DF0B5B04C01AB941B4
:10C9F000130C7343DB18C91ACE086643360CB644D1
:10CA000093B273431F0F1B01C01AB941130C734338
:10CA10001F0B1B05C01AB941860D8F023E436643AA
:10CA2000360C092D24DB520A7243801A7703460A1A
:10CA30006643360C16235B1BDE40DF40BF1964469D
:10CA40006643821B7046043506330100D940A84076
:10CA5000C01900D30131A24206D20023F0BD00006C
:10CA6000000000D0FFFFFFFF121B0130F3D3F1E7FE
:10CA700009277F1BFE406446A2B27243801A00D28F
:10CA80000139220C7243130C1204821A99410B00D3
:10CA90007046043513370100F940A840801900D3CF
:10CAA0000131002B02D1A2420AD2F0BD013000D3E5
:10CAB0000131121BFAD2013BF8D1A24200D2F0BDE3
:10CAC000013000D30131121BF7E7F0B51C0C00D088
:10CAD00080E00CB400251C0A04D11B02160E33435F
:10CAE000120208351C0B04D11B01160F334312012F
:10CAF00004359C0B04D19B00960F33439200023502
:10CB0000DC0B02D192185B4101351C00971864417F
:10CB10000134464F7C66464C3C660E0CFFE7FFE74F
:10CB2000FFE7C0463C6F6643360C7703BE4697B2BC
:10CB30007743C01B00D20139C01B00D201399FB21C
:10CB40007743C91BC91B170C77437E04FF0B801B5F
:10CB5000B941CE086643360C0C2D33DBB644120BBC
:10CB60001F053A431B0B97B27743C01B00D2013914
:10CB70009FB27743C91B170C77433E043F0C801BC1
:10CB8000B941860D8F023E43664329277F1BFE4035
:10CB90000C3D7746AF40BF1930BCA2B2ABB2724376
:10CBA0007343801A9941220C7243130C1204801AA9
:10CBB000994102000B000137001BA941F9D2781EF0
:10CBC0000021F0BD0C277F1BFE4077467F0BAF4056
:10CBD000FF19E0E700245D1C07D0144F7D6639661D
:10CBE000FFE7FFE7FFE7FFE73C6F95B29EB26543C3
:10CBF0006643401BB141150C1E0C65436643360469
:10CC00002F0C3E432D04401BB141994204D2020037
:10CC10000B0020000021F0BD01D19042F7D3801A13
:10CC2000994101349942F2D3F6E70000000000D0A8
:10CC3000FFFFFFFF80B500AF13231B781800BD4630
:10CC400080BD80B582B000AF0200FB1D1A70BB1D15
:10CC50000A1C1A70FB1D1A78BB1D1B781B0213439C
:10CC60001800BD4602B080BD80B584B000AFFFF7AC
:10CC7000E1FF0300BB60BB68012B0DD10023FB600B
:10CC800007E01749174BFA689200D150FB6801334F
:10CC9000FB60FB681F2BF4D9BB68012B0FDD44211F
:10CCA0005320FFF7CEFF03001800FFF73BFD030002
:10CCB0007B6079680B4B8022180000F0D3F8BB68CA
:10CCC000022B02DC064A074B9A64074B1800FFF759
:10CCD00013FD0200054B1A60C046BD4604B080BD7E
:10CCE000F1CC00205CEB00204C3300005CEC002019
:10CCF00007B5604601880A0A0230DF2AFAD1C9B2B4
:10CD0000820804D3028840880004104300E00068D1
:10CD1000014A5050039007BD5CEB00205143434350
:10CD2000C9188C46110C83B24B4310B4040C6143F8
:10CD300092B280B2504362431C041B0C001910BC19
:10CD400059411304120CC01851416144704780B519
:10CD500000AF13231B781800BD4680BD80B582B09C
:10CD600000AF0200FB1D1A70BB1D0A1C1A70FB1DD0
:10CD70001A78BB1D1B781B0213431800BD4602B076
:10CD800080BD000080B584B000AFFFF7E0FF030076
:10CD9000BB6046215320FFF7E1FF03001800FFF7B7
:10CDA000C1FC03007B60BB68012B1AD17968174B6B
:10CDB0005422180000F056F81523FB6007E01449D0
:10CDC000124BFA689200D150FB680133FB60FB689C
:10CDD0001F2BF4D90E4A0D4B1A620C4B1A6A0B4BDF
:10CDE000DA61BB68012B05DD7968084B80221800E9
:10CDF00000F038F8074B1800FFF77EFC0200064BE6
:10CE00001A60C046BD4604B080BDC04660EC00203C
:10CE10001DCE00204C3300005CEC002007B56046BE
:10CE200001880A0A0230DF2AFAD1C9B2820804D383
:10CE3000028840880004104300E00068014A505016
:10CE4000039007BD60EC002001480421014B184706
:10CE500050E100204DC70020014B1B68184700001F
:10CE600050E10020014B5B681847000050E10020B2
:10CE700080B582B000AFD0231B061A68FB1D1A7064
:10CE80003A000E4B11001800FBF706FA03001A00D7
:10CE900001235340DBB2002B0BD0FB1D00229A561E
:10CEA0003B689A4201D1002304E0044B1800FBF7D1
:10CEB00091F901231800BD4602B080BD90E5002025
:10CEC00080B500AF034B1800FBF73FFAC046BD46E4
:10CED00080BDC04690E5002080B584B000AFF8600A
:10CEE000B9607A60FB681B687968BA681000984777
:10CEF000C046BD4604B080BD80B588B000AFF860C4
:10CF0000B9607A60FB685B7C01225340DBB2002B86
:10CF100006D0FB681B687968BA681000984760E023
:10CF20000023FB610023BB613BE0BB69002B09DDF3
:10CF3000BB69013BBA68D3181B780D3B5A42534179
:10CF4000DBB204E0FB681B7C5A1E9341DBB2172165
:10CF50007A181370BB69BA68D3181B780A2B1DD1D5
:10CF60007B181B7801225340DBB2002B16D0BA6924
:10CF7000FB699A4209DDFB681B68FA69B968881881
:10CF8000B969FA698A1A11009847FB681B68164A42
:10CF9000022110009847BB690133FB61BB69013373
:10CFA000BB61BA697B689A42BFDBFA697B689A42C7
:10CFB00009DAFB681B68FA69B96888187968FA6940
:10CFC0008A1A110098477B68002B0ADD7B68013BB9
:10CFD000BA68D3181B780D3B5A425341DAB2FB684A
:10CFE0001A74BD4608B080BD98DF002090B589B0A6
:10CFF00000AFF860B9601900FB1D1A70BB1D0A1C58
:10D000001A701B23FC18FFF733FF03002370BB6863
:10D01000013305D1FB68180000F06EF90300BB6016
:10D02000BB1D1B78002B01D01F4B00E01F4B7B6109
:10D030001F4B1B68FB6125E0FB691B68002B1BD0A5
:10D040001C4B1B68002B04D01A4B1B68FA699A42D0
:10D0500014D1BA68F968F8697B699847FB1D1B7899
:10D06000002B0CD013217B180A221A707918F8694A
:10D070007B690122984702E0C04600E0C046FB6998
:10D08000DB68FB61FB69002BD6D11B23FB181B78E7
:10D09000002B01D0FFF714FFBB685A1E9341DBB28F
:10D0A0001800BD4609B090BDD9CE0020F9CE0020B1
:10D0B00020EB00202CEB002080B584B000AF78601E
:10D0C0007B68DAB20F217B181A70781800230022CF
:10D0D0000121FFF78BFF7B681800BD4604B080BDBF
:10D0E00080B584B000AF78607B68180000F004F968
:10D0F0000300FB60F968786800230122FFF776FFE0
:10D1000000F006F8FB681800BD4604B080BD0000C2
:10D1100080B582B000AF0B4B1B687B6009E07B6879
:10D120005B68002B02D07B685B6898477B68DB6894
:10D130007B607B68002BF2D1C046C046BD4602B082
:10D1400080BDC04620EB002080B500AFC046BD4684
:10D1500080BD00007047C046F0B588420AD98B18E0
:10D16000984207D2531E002A03D0CA5CC254013B26
:10D17000FBD2F0BD0F2A0BD80500561E002AF8D0AE
:10D180000023CC5C1A00EC5401339642F9D1F0E74D
:10D1900003270D003E0005430C0003002E402F42E4
:10D1A0002BD11500103D2D09AC462F013F182568E5
:10D1B0001D6065685D60A5689D60E5681034DD6090
:10D1C0001D001033BD42F2D165460F230C240135FA
:10D1D0002D01491913404519144211D08C59AC51F5
:10D1E00004369C1B032CF9D8043B9B0801339B009D
:10D1F000ED18C91803231A40BFE70500561EBFE704
:10D200001A00BAE7CAB2F0B5002A35D00324830762
:10D210002DD1FF2529400D0229430D040D4329007E
:10D220000468264E61408B198B43A119A143244EFB
:10D230000B43334211D14168204F0C00CB196C4095
:10D240008B43E119A1430B4304303342F3D00378FD
:10D25000002B05D09A4204D001300378002BF9D17D
:10D260000020F0BD9342FCD001302042D1D00378A1
:10D27000002BF7D10020F4E7830708D0032202E057
:10D280000130104203D00378002BF9D1E9E702689E
:10D290000A4B0B49D31893430B4206D14268074B04
:10D2A0000430D31893430B42F8D00378002BD8D026
:10D2B00043780130002BFBD1D3E7C046FFFEFEFED2
:10D2C0008080808070B50D00017806000020002964
:10D2D0000CD030002C782A00231E04D107E05378AC
:10D2E0000132002B03D08B42F9D1801B70BD4178F5
:10D2F00001300029EFD1F8E710B583070AD0030009
:10D30000032102E001330B4205D01A78002AF9D13B
:10D31000181A10BD030019680C4A0D4C8A188A436C
:10D3200022420FD15968094A04338A188A4322429B
:10D3300008D15968054A04338A188A432242F1D039
:10D3400000E001331A78002AFBD1E1E7FFFEFEFE80
:10D350008080808030B5002A26D003000B439B07D5
:10D3600024D1032A22D9164D0BE0043A002A1BD0FF
:10D37000144C1C199C432C4216D104300431032A4E
:10D3800014D903680C68A342EFD004780D78AC423E
:10D3900013D1012306E0C45CCD5CAC420DD1013356
:10D3A000934201D0002CF6D1002030BD04780D78D6
:10D3B000A54202D1012AECD1F6E7601BF5E7C04691
:10D3C00080808080FFFEFEFEF0B50C000443030069
:10D3D0000700A40712D1032A10D9144CA4466746AB
:10D3E0000D68134C1E002C19AC433C421BD1043376
:10D3F000043A1F0004313560032AF0D80024BE1817
:10D4000006E00D5D013A3D55B31A0134002D02D0FE
:10D41000002AF6D1F0BD0021002AFBD0197001339B
:10D420009E42FBD1F6E71F00E8E7C046808080807F
:10D43000FFFEFEFE70B50D000178060000200029F9
:10D4400011D030002C78002C0CD02A00230003E0EF
:10D4500053780132002B05D08B42F9D1417801304D
:10D460000029F0D1801B70BDF0B5DE464E46454622
:10D470005746E0B59C4C8346A544884614001E00E0
:10D48000012B00D82AE101200125B4460021012208
:10D49000012306006D4205E0190001225E1B8B1876
:10D4A0009C450DD96019E75C805C8742F4D300D1BC
:10D4B00088E001220D0001318B1801269C45F1D82E
:10D4C0000123009666469C46023B99464846002149
:10D4D000A94601220500023306E05A1B94461900B2
:10D4E00001228B189E420DD9A018E75C405D87424F
:10D4F000F3D86CD0012301220D0001319C468B181A
:10D500009E42F1D82B004D4601336A1C92469A4246
:10D5100002D862469A460092FFAA02AB0C3240C380
:10D520009A42FCD101256D42002E0DD02300A44665
:10D53000751E371960191A78C11A920002AC0133AE
:10D54000A1509F42F7D16446009B52462000E1184B
:10D5500000F046FA002869D100235246994601336B
:10D560009B1A0193330000274E4699465B46D81913
:10D57000435D02AA9B00D358002B2CD0002E04D070
:10D58000009A934201D24B469B1A0026FF1843464D
:10D590004A469B1ABB42E9D28021584609011143F1
:10D5A000404400F041FA804443464A469B1ABB423D
:10D5B000DCD200204D4B9D44F0BCBB46B246A94690
:10D5C000A046F0BD964200D185E0013267E7624592
:10D5D0007ED0013285E75346B24506D2330004E0DF
:10D5E000E15CC25C91421BD10133AB42F8D353469C
:10D5F000D446013BB24504D809E05A1EB34213D0C9
:10D6000013005A1C9446E15CC25C9142F5D001368D
:10D610006645CFD8009B4A469C46D61A6744B6E773
:10D62000019A94466744B0E7B446F0E75346F31ACC
:10D6300053454BD301335246019301239B1A009368
:10D6400080231B01994633000027464698465B46D7
:10D65000D819435D02AA9B00D358002B18D0DF19BC
:10D660004346F31A9F42F2D95B464946981943460E
:10D67000194300F0D9F943463618F31A9F4298D857
:10D680005B46D819435D02AA9B00D358002BE6D114
:10D690005346AA4503D30AE00133AB4207D2E15C0B
:10D6A000C25C9142F8D0009A94466744D7E753464B
:10D6B000013B03D27EE7013B00D27BE7E15CC25C29
:10D6C0009142F8D0019B9C466744C9E75346B1E7B5
:10D6D0008918012205E701228919E0E60123009358
:10D6E00000239A4618E7C046F4FBFFFF0C04000035
:10D6F000F0B5CE46474680B50E0009780500040017
:10D7000091B0002950D07078002800D189E0B77816
:10D71000002F4FD0F378002B00D189E03279002A16
:10D7200058D03000FFF7E8FD802189000700014351
:10D73000280000F079F9874263D8FE2F00D989E0EC
:10D74000C01B804640226846791CA844FFF784FB32
:10D75000002F0FD0BA1994463F2233009146F8B2F9
:10D76000301849466C461A780A40C11A0133A15450
:10D770006345F6D12C003F256A46013CE35D2B4012
:10D78000D05C2418A04503D23DE04C44A0453AD3D8
:10D790006A46E35D31002B40D35C20003A00994695
:10D7A00000F01EF90028F0D1200011B0C0BCB9462D
:10D7B000B046F0BD090400232A78014300E00500CB
:10D7C000002A1ED01B041343681C6A789942F6D1C4
:10D7D0006C1EE9E72A78002A13D0000208433904B6
:10D7E0001B060143194309BA002301E099421DD0E9
:10D7F0002C001B02013513432A78002AF6D19942E6
:10D8000014D00024D0E74346D819DB5D002BF8D0B4
:10D810008021090100F008F980444445ACD9002476
:10D82000C2E72800FFF7EEFC0400BDE7033CBBE7BE
:10D830000906000401433F022A78394300E005004D
:10D84000002ADED013431B026A78681C9942F6D185
:10D85000AC1EA9E701003B0032002800FFF704FEE0
:10D860000400A1E7F0B557464E464546DE468246DF
:10D87000E0B5914688461E000A000820484F83B054
:10D8800013001C78551C395D2A000842F8D12D2C54
:10D8900066D02B2C29D0434B9B4600230193002EAE
:10D8A0002BD0102E64D0370039005846FEF782FF87
:10D8B0002B008C460022002107E0884212D33FD083
:10D8C0000122794369181C7801332500303D092D68
:10D8D00004D9113D192D15D8373C2500AE4219DD6C
:10D8E000002AEADA01225242EDE72C789D1C2D4BEA
:10D8F0009B4600230193002ED3D1302C46D00A271B
:10D900000A26D1E72500613D192D03D8573C250093
:10D91000AE42E5DC002A18DB0198002800D049421D
:10D920004846002804D0002A38D14B4642461A60A7
:10D93000080003B0F0BCBB46B246A946A046F0BD05
:10D94000AC45BDDA01225242BDE7222251460A60AF
:10D950004A465946002AEBD0013B98465946E4E72F
:10D960002C789D1C80231B069B460123019396E780
:10D97000302C04D120222B789343582B01D0102730
:10D9800092E76C781027102602358DE720222B783D
:10D990009343582BF5D00827082685E78B46DBE70D
:10D9A0009DDF0020FFFFFF7F130010B5012A09D083
:10D9B000242A07D8064A14680A0001002000FFF74D
:10D9C00051FF04E000F006F816230360002010BDAC
:10D9D00060E10020014B18687047C04660E10020FC
:10D9E00030B5032A0CD903000B439B0719D10368F8
:10D9F0000C68A34215D1043A04300431032AF6D846
:10DA0000551E002A0BD0002303E05A1C9D4206D06D
:10DA10001300C25CCC5CA242F7D0101B00E00020D7
:10DA200030BD551EEFE7C04610B50300441800296D
:10DA300003D109E001339C4204D01A78002AF9D1BD
:0CDA4000181A10BD201AFCE70020FAE7BD
:10DA4C0070726F6772616D6E616D65005E282E2954
:10DA5C005B612D7A5D000000546869732069732046
:10DA6C006120766572792073696D706C65207369BD
:10DA7C006D706C652073696D706C65207374726960
:10DA8C006E6700002430202D2024310072656765FC
:10DA9C0078703A20000000000A0000006973000052
:10DAAC007465735C5B745B612D665C5D472D485DD2
:10DABC005B616263302D395D2E00000000000000B8
:10DACC00726567636F6D70206661696C7572650055
